{"abi":[{"type":"fallback","stateMutability":"nonpayable"},{"type":"function","name":"MIN_ORDER_SIZE","inputs":[],"outputs":[{"name":"","type":"uint16","internalType":"uint16"}],"stateMutability":"view"},{"type":"function","name":"WITHDRAW_EPOCH","inputs":[],"outputs":[{"name":"","type":"uint256","internalType":"uint256"}],"stateMutability":"view"},{"type":"function","name":"deposit","inputs":[{"name":"_token","type":"address","internalType":"address"},{"name":"_amount","type":"uint160","internalType":"uint160"}],"outputs":[],"stateMutability":"nonpayable"},{"type":"function","name":"destinationSettlers","inputs":[{"name":"chainId","type":"uint256","internalType":"uint256"}],"outputs":[{"name":"settler","type":"address","internalType":"address"}],"stateMutability":"view"},{"type":"function","name":"eip712Domain","inputs":[],"outputs":[{"name":"fields","type":"bytes1","internalType":"bytes1"},{"name":"name","type":"string","internalType":"string"},{"name":"version","type":"string","internalType":"string"},{"name":"chainId","type":"uint256","internalType":"uint256"},{"name":"verifyingContract","type":"address","internalType":"address"},{"name":"salt","type":"bytes32","internalType":"bytes32"},{"name":"extensions","type":"uint256[]","internalType":"uint256[]"}],"stateMutability":"view"},{"type":"function","name":"factory","inputs":[],"outputs":[{"name":"_factory","type":"address","internalType":"address"}],"stateMutability":"pure"},{"type":"function","name":"multicall","inputs":[{"name":"data","type":"bytes[]","internalType":"bytes[]"}],"outputs":[{"name":"","type":"bytes[]","internalType":"bytes[]"}],"stateMutability":"payable"},{"type":"function","name":"owner","inputs":[],"outputs":[{"name":"_factory","type":"address","internalType":"address"}],"stateMutability":"pure"},{"type":"function","name":"setDestinationSettler","inputs":[{"name":"_chainId","type":"uint256","internalType":"uint256"},{"name":"_settler","type":"address","internalType":"address"}],"outputs":[],"stateMutability":"nonpayable"},{"type":"function","name":"setWithdrawEpochCap","inputs":[{"name":"_token","type":"address","internalType":"address"},{"name":"_cap","type":"uint256","internalType":"uint256"}],"outputs":[],"stateMutability":"nonpayable"},{"type":"function","name":"settleBatch","inputs":[{"name":"_deltas","type":"tuple[]","internalType":"struct MidribV3.SettleDelta[]","components":[{"name":"user","type":"address","internalType":"address"},{"name":"token","type":"address","internalType":"address"},{"name":"delta","type":"int256","internalType":"int256"}]},{"name":"_nonce","type":"uint256","internalType":"uint256"},{"name":"_signature","type":"bytes","internalType":"bytes"}],"outputs":[],"stateMutability":"nonpayable"},{"type":"function","name":"tradeBalance","inputs":[{"name":"holder","type":"address","internalType":"address"},{"name":"token","type":"address","internalType":"address"}],"outputs":[{"name":"amount","type":"uint256","internalType":"uint256"}],"stateMutability":"view"},{"type":"function","name":"usedSettleNonces","inputs":[{"name":"nonce","type":"uint256","internalType":"uint256"}],"outputs":[{"name":"used","type":"bool","internalType":"bool"}],"stateMutability":"view"},{"type":"function","name":"usedWithdrawNonces","inputs":[{"name":"account","type":"address","internalType":"address"},{"name":"nonce","type":"uint256","internalType":"uint256"}],"outputs":[{"name":"used","type":"bool","internalType":"bool"}],"stateMutability":"view"},{"type":"function","name":"version","inputs":[],"outputs":[{"name":"_version","type":"uint8","internalType":"uint8"}],"stateMutability":"pure"},{"type":"function","name":"withdraw","inputs":[{"name":"_v","type":"tuple","internalType":"struct MidribV3.WithdrawalVoucher","components":[{"name":"account","type":"address","internalType":"address"},{"name":"token","type":"address","internalType":"address"},{"name":"amount","type":"uint256","internalType":"uint256"},{"name":"nonce","type":"uint256","internalType":"uint256"},{"name":"expiry","type":"uint256","internalType":"uint256"}]},{"name":"_signature","type":"bytes","internalType":"bytes"}],"outputs":[],"stateMutability":"nonpayable"},{"type":"function","name":"withdrawEpochCap","inputs":[{"name":"token","type":"address","internalType":"address"}],"outputs":[{"name":"cap","type":"uint256","internalType":"uint256"}],"stateMutability":"view"},{"type":"function","name":"withdrawnInEpoch","inputs":[{"name":"token","type":"address","internalType":"address"},{"name":"epoch","type":"uint256","internalType":"uint256"}],"outputs":[{"name":"amount","type":"uint256","internalType":"uint256"}],"stateMutability":"view"},{"type":"event","name":"DestinationSettlerSet","inputs":[{"name":"chainId","type":"uint256","indexed":true,"internalType":"uint256"},{"name":"oldSettler","type":"address","indexed":true,"internalType":"address"},{"name":"newSettler","type":"address","indexed":true,"internalType":"address"}],"anonymous":false},{"type":"event","name":"NetSettled","inputs":[{"name":"user","type":"address","indexed":true,"internalType":"address"},{"name":"tokenContract","type":"address","indexed":true,"internalType":"address"},{"name":"delta","type":"int256","indexed":false,"internalType":"int256"}],"anonymous":false},{"type":"event","name":"TokenDeposited","inputs":[{"name":"user","type":"address","indexed":true,"internalType":"address"},{"name":"tokenContract","type":"address","indexed":true,"internalType":"address"},{"name":"amount","type":"uint160","indexed":false,"internalType":"uint160"}],"anonymous":false},{"type":"event","name":"Withdrawn","inputs":[{"name":"account","type":"address","indexed":true,"internalType":"address"},{"name":"tokenContract","type":"address","indexed":true,"internalType":"address"},{"name":"amount","type":"uint256","indexed":false,"internalType":"uint256"},{"name":"nonce","type":"uint256","indexed":false,"internalType":"uint256"}],"anonymous":false},{"type":"error","name":"INSUFFICIENT_BALANCE","inputs":[{"name":"available","type":"uint256","internalType":"uint256"},{"name":"required","type":"uint160","internalType":"uint160"}]},{"type":"error","name":"INVALID_SIGNER","inputs":[]},{"type":"error","name":"MINIMUM_ORDER_AMOUNT","inputs":[{"name":"amount","type":"uint160","internalType":"uint160"}]},{"type":"error","name":"Reentrancy","inputs":[]},{"type":"error","name":"SETTLE_NONCE_ALREADY_USED","inputs":[]},{"type":"error","name":"SETTLE_NOT_CONSERVED","inputs":[]},{"type":"error","name":"UNAUTHORIZED_CALLER","inputs":[]},{"type":"error","name":"WITHDRAW_NONCE_ALREADY_USED","inputs":[]},{"type":"error","name":"WITHDRAW_RATE_LIMITED","inputs":[{"name":"cap","type":"uint256","internalType":"uint256"},{"name":"attempted","type":"uint256","internalType":"uint256"}]},{"type":"error","name":"WITHDRAW_VOUCHER_EXPIRED","inputs":[]},{"type":"error","name":"ZERO_AMOUNT","inputs":[]}],"bytecode":{"object":"0x61012060405234801561001157600080fd5b50306080524660a05260608061002561008e565b815160209283012081519183019190912060c082905260e0819052604080517f8b73c3c69bb8fe3d512ecc4cf759cc79239f7b179b0ffacaa9a75d522b39400f8152938401929092529082015246606082015230608082015260a0902061010052506100dc9050565b60408051808201909152600681526526b4b23934b160d11b602082015260606100b760036100bd565b90509091565b6060604051604081016040526001815282603001602082015392915050565b60805160a05160c05160e05161010051611dae61012060003960006115d50152600061168f0152600061166901526000611619015260006115f60152611dae6000f3fe6080604052600436106101295760003560e01c8063742960c1116100a55780638d7b222711610074578063ac9650d811610059578063ac9650d8146103c2578063c45a0155146103e2578063d3f82d8e1461040757600080fd5b80638d7b2227146103525780638da5cb5b146103a057600080fd5b8063742960c11461029757806376ec433e146102cf57806384b0196e146102ef578063892d16be1461031757600080fd5b80634565fe4a116100fc57806354fd4d50116100e157806354fd4d501461024557806362fe8ee114610261578063717653a01461027757600080fd5b80634565fe4a146101e55780634e5c6e4e1461022557600080fd5b806303fde2551461012e57806319d5f0c3146101505780632d2cfb6614610198578063426aabc2146101b8575b600080fd5b34801561013a57600080fd5b5061014e6101493660046117d7565b61042f565b005b34801561015c57600080fd5b5061018561016b3660046117d7565b600060208181529281526040808220909352908152205481565b6040519081526020015b60405180910390f35b3480156101a457600080fd5b5061014e6101b3366004611810565b610475565b3480156101c457600080fd5b506101856101d336600461183c565b60046020526000908152604090205481565b3480156101f157600080fd5b50610215610200366004611860565b60026020526000908152604090205460ff1681565b604051901515815260200161018f565b34801561023157600080fd5b5061014e6102403660046118c2565b6104d9565b34801561025157600080fd5b506040516003815260200161018f565b34801561026d57600080fd5b50610185610e1081565b34801561028357600080fd5b5061014e61029236600461191d565b610846565b3480156102a357600080fd5b506101856102b2366004611810565b600560209081526000928352604080842090915290825290205481565b3480156102db57600080fd5b5061014e6102ea366004611942565b610904565b3480156102fb57600080fd5b50610304610d0f565b60405161018f9796959493929190611a57565b34801561032357600080fd5b50610215610332366004611810565b600360209081526000928352604080842090915290825290205460ff1681565b34801561035e57600080fd5b5061038861036d366004611860565b6001602052600090815260409020546001600160a01b031681565b6040516001600160a01b03909116815260200161018f565b3480156103ac57600080fd5b503660011981013560f01c90033560601c610388565b6103d56103d0366004611b0b565b610d52565b60405161018f9190611b82565b3480156103ee57600080fd5b503660011981013560f01c90036014013560601c610388565b34801561041357600080fd5b5061041c600a81565b60405161ffff909116815260200161018f565b3068929eee149b4bd21268540361044e5763ab143c066000526004601cfd5b3068929eee149b4bd2126855610465338383610d77565b3868929eee149b4bd21268555050565b3660011981013560f01c90033560601c33146104bd576040517fe15e56c900000000000000000000000000000000000000000000000000000000815260040160405180910390fd5b6001600160a01b03909116600090815260046020526040902055565b3068929eee149b4bd2126854036104f85763ab143c066000526004601cfd5b3068929eee149b4bd212685561050f838383611095565b826080013542111561054d576040517fcfb1238700000000000000000000000000000000000000000000000000000000815260040160405180910390fd5b6003600061055e602086018661183c565b6001600160a01b03168152602080820192909252604090810160009081206060870135825290925290205460ff16156105c3576040517f2152b76d00000000000000000000000000000000000000000000000000000000815260040160405180910390fd5b6001600360006105d6602087018761183c565b6001600160a01b031681526020808201929092526040908101600090812060608801358252835290812080547fffffffffffffffffffffffffffffffffffffffffffffffffffffffffffffff0016931515939093179092558190819061063e9087018761183c565b6001600160a01b03166001600160a01b031681526020019081526020016000206000856020016020810190610673919061183c565b6001600160a01b03166001600160a01b0316815260200190815260200160002054905080846040013511156106f957806106b085604001356111dd565b6040517ff075336700000000000000000000000000000000000000000000000000000000815260048101929092526001600160a01b031660248201526044015b60405180910390fd5b61071661070c604086016020870161183c565b8560400135611207565b610724604085013582611c34565b600080610734602088018861183c565b6001600160a01b03166001600160a01b031681526020019081526020016000206000866020016020810190610769919061183c565b6001600160a01b03168152602080820192909252604001600020919091556107bb906107979086018661183c565b604086018035906107ab906020890161183c565b6001600160a01b031691906112df565b6107cb604085016020860161183c565b6001600160a01b03166107e1602086018661183c565b6001600160a01b03167f91fb9d98b786c57d74c099ccd2beca1739e9f6a81fb49001ca465c4b7591bbe28660400135876060013560405161082c929190918252602082015260400190565b60405180910390a3503868929eee149b4bd2126855505050565b3660011981013560f01c90033560601c331461088e576040517fe15e56c900000000000000000000000000000000000000000000000000000000815260040160405180910390fd5b60008281526001602052604080822080547fffffffffffffffffffffffff000000000000000000000000000000000000000081166001600160a01b038681169182179093559251911692839186917f26d6df0348ebeb28206400947b117b5e650404f607b1c272f84b52d45592556691a4505050565b3068929eee149b4bd2126854036109235763ab143c066000526004601cfd5b3068929eee149b4bd212685561093c8585858585611338565b60008381526002602052604090205460ff1615610985576040517f539110c900000000000000000000000000000000000000000000000000000000815260040160405180910390fd5b600083815260026020526040812080547fffffffffffffffffffffffffffffffffffffffffffffffffffffffffffffff0016600117905584905b81811015610b275760008787838181106109db576109db611c47565b90506060020160200160208101906109f3919061183c565b9050600160005b83811015610a5557826001600160a01b03168a8a83818110610a1e57610a1e611c47565b9050606002016020016020810190610a36919061183c565b6001600160a01b031603610a4d5760009150610a55565b6001016109fa565b5080610a62575050610b1f565b6000805b85811015610ae257836001600160a01b03168b8b83818110610a8a57610a8a611c47565b9050606002016020016020810190610aa2919061183c565b6001600160a01b031603610ada578a8a82818110610ac257610ac2611c47565b9050606002016040013582610ad79190611c76565b91505b600101610a66565b508015610b1b576040517f053b624b00000000000000000000000000000000000000000000000000000000815260040160405180910390fd5b5050505b6001016109bf565b5060005b81811015610cfa5736878783818110610b4657610b46611c47565b606002919091019150600090508080610b62602085018561183c565b6001600160a01b03166001600160a01b031681526020019081526020016000206000836020016020810190610b97919061183c565b6001600160a01b03166001600160a01b031681526020019081526020016000205490506000826040013582610bcc9190611c76565b90506000811215610c13576040517ff075336700000000000000000000000000000000000000000000000000000000815260048101839052600060248201526044016106f0565b80600080610c24602087018761183c565b6001600160a01b03166001600160a01b031681526020019081526020016000206000856020016020810190610c59919061183c565b6001600160a01b03166001600160a01b0316815260200190815260200160002081905550826020016020810190610c90919061183c565b6001600160a01b0316610ca6602085018561183c565b6001600160a01b03167fcb92bc64cc5c68703b92c9fcf4b3a37a69be04873e614837f8aeacfa8589e8f58560400135604051610ce491815260200190565b60405180910390a3505050806001019050610b2b565b50503868929eee149b4bd21268555050505050565b7f0f000000000000000000000000000000000000000000000000000000000000006060806000808083610d4061147e565b97989097965046955030945091925090565b60603415610d5f57600080fd5b610d71610d6c84846114c4565b61155b565b92915050565b806001600160a01b0316600003610dba576040517ff6fa545000000000000000000000000000000000000000000000000000000000815260040160405180910390fd5b600a6001600160a01b0382161015610e09576040517f7ccfd2ff0000000000000000000000000000000000000000000000000000000081526001600160a01b03821660048201526024016106f0565b6040517f70a082310000000000000000000000000000000000000000000000000000000081526001600160a01b038481166004830152600091908416906370a0823190602401602060405180830381865afa158015610e6c573d6000803e3d6000fd5b505050506040513d601f19601f82011682018060405250810190610e909190611c9e565b6040517f70a082310000000000000000000000000000000000000000000000000000000081523060048201529091506000906001600160a01b038516906370a0823190602401602060405180830381865afa158015610ef3573d6000803e3d6000fd5b505050506040513d601f19601f82011682018060405250810190610f179190611c9e565b9050826001600160a01b0316821015610f6e576040517ff0753367000000000000000000000000000000000000000000000000000000008152600481018390526001600160a01b03841660248201526044016106f0565b610f886001600160a01b038581169087903090871661156c565b6040517f70a0823100000000000000000000000000000000000000000000000000000000815230600482015260009082906001600160a01b038716906370a0823190602401602060405180830381865afa158015610fea573d6000803e3d6000fd5b505050506040513d601f19601f8201168201806040525081019061100e9190611c9e565b6110189190611c34565b6001600160a01b03808816600081815260208181526040808320948b16808452949091529020805484019055919250907ff252e7564622d27c64805f4295d4aed7999599ad484da4eaa1377fc14df9f1d5611072846111dd565b6040516001600160a01b03909116815260200160405180910390a3505050505050565b60007f232a4ef2241135df893cd0d3f880df0ff65115b1f538078c78353f91a83077026110c5602086018661183c565b6110d5604087016020880161183c565b6040805160208101949094526001600160a01b03928316848201529116606083810191909152908601356080838101919091529086013560a083015285013560c082015260e001604051602081830303815290604052805190602001209050600061113f826115d3565b90506000611172826020527b19457468657265756d205369676e6564204d6573736167653a0a3332600052603c60042090565b905060006111818287876116eb565b90503660011981013560f01c90033560601c6001600160a01b038216146111d4576040517f6cbfd82c00000000000000000000000000000000000000000000000000000000815260040160405180910390fd5b50505050505050565b600074010000000000000000000000000000000000000000821061120357611203611792565b5090565b6001600160a01b0382166000908152600460205260408120549081900361122d57505050565b600061123b610e1042611cb7565b6001600160a01b03851660009081526005602090815260408083208484529091528120549192509061126e908590611cf2565b9050828111156112b4576040517f5e7fe40c00000000000000000000000000000000000000000000000000000000815260048101849052602481018290526044016106f0565b6001600160a01b03909416600090815260056020908152604080832093835292905220929092555050565b81601452806034526fa9059cbb00000000000000000000000060005260206000604460106000875af1806001600051141661132d57803d853b15171061132d576390b8ec186000526004601cfd5b506000603452505050565b60007f0caeb2f59f7faee29bc813688a73008850a2c6447d5a79812cc6f052aea3d7eb868660405160200161136e929190611d05565b604080517fffffffffffffffffffffffffffffffffffffffffffffffffffffffffffffffe08184030181528282528051602091820120908301939093528101919091526060810185905260800160405160208183030381529060405280519060200120905060006113de826115d3565b90506000611411826020527b19457468657265756d205369676e6564204d6573736167653a0a3332600052603c60042090565b905060006114208287876116eb565b90503660011981013560f01c90033560601c6001600160a01b03821614611473576040517f6cbfd82c00000000000000000000000000000000000000000000000000000000815260040160405180910390fd5b505050505050505050565b60408051808201909152600681527f4d69647269620000000000000000000000000000000000000000000000000000602082015260606114be60036117a0565b90509091565b600060405190506020815281816020015280604001808360051b808684378201808515611543575b835187018035602082018337600038823584305af461150e573d6000873e3d86fd5b5082810384523d815260209384019381013d6000823e60003d8201523d01601f0167ffffffffffffffe01690508184106114ec575b806040528485820360401b1794505050505092915050565b8060401c8167ffffffffffffffff16f35b60405181606052826040528360601b602c526f23b872dd000000000000000000000000600c52602060006064601c6000895af180600160005114166115c457803d873b1517106115c457637939f4246000526004601cfd5b50600060605260405250505050565b7f00000000000000000000000000000000000000000000000000000000000000007f000000000000000000000000000000000000000000000000000000000000000030147f00000000000000000000000000000000000000000000000000000000000000004614166116c65750604080517f8b73c3c69bb8fe3d512ecc4cf759cc79239f7b179b0ffacaa9a75d522b39400f81527f000000000000000000000000000000000000000000000000000000000000000060208201527f00000000000000000000000000000000000000000000000000000000000000009181019190915246606082015230608082015260a090205b67190100000000000060005280601a5281603a52604260182090506000603a52919050565b600060405182604081146117075760418114611747575061177c565b60208581013560ff81901c601b0190915285356040527f7fffffffffffffffffffffffffffffffffffffffffffffffffffffffffffffff16606052611759565b604085013560001a6020526040856040375b5084600052602060016080600060015afa5191506000606052806040523d61178a575b638baa579f6000526004601cfd5b509392505050565b6335278d126000526004601cfd5b6060604051604081016040526001815282603001602082015392915050565b6001600160a01b03811681146117d457600080fd5b50565b600080604083850312156117ea57600080fd5b82356117f5816117bf565b91506020830135611805816117bf565b809150509250929050565b6000806040838503121561182357600080fd5b823561182e816117bf565b946020939093013593505050565b60006020828403121561184e57600080fd5b8135611859816117bf565b9392505050565b60006020828403121561187257600080fd5b5035919050565b60008083601f84011261188b57600080fd5b50813567ffffffffffffffff8111156118a357600080fd5b6020830191508360208285010111156118bb57600080fd5b9250929050565b600080600083850360c08112156118d857600080fd5b60a08112156118e657600080fd5b5083925060a084013567ffffffffffffffff81111561190457600080fd5b61191086828701611879565b9497909650939450505050565b6000806040838503121561193057600080fd5b823591506020830135611805816117bf565b60008060008060006060868803121561195a57600080fd5b853567ffffffffffffffff81111561197157600080fd5b8601601f8101881361198257600080fd5b803567ffffffffffffffff81111561199957600080fd5b8860206060830284010111156119ae57600080fd5b6020918201965094508601359250604086013567ffffffffffffffff8111156119d657600080fd5b6119e288828901611879565b969995985093965092949392505050565b6000815180845260005b81811015611a19576020818501810151868301820152016119fd565b5060006020828601015260207fffffffffffffffffffffffffffffffffffffffffffffffffffffffffffffffe0601f83011685010191505092915050565b7fff000000000000000000000000000000000000000000000000000000000000008816815260e060208201526000611a9260e08301896119f3565b8281036040840152611aa481896119f3565b606084018890526001600160a01b038716608085015260a0840186905283810360c08501528451808252602080870193509091019060005b81811015611afa578351835260209384019390920191600101611adc565b50909b9a5050505050505050505050565b60008060208385031215611b1e57600080fd5b823567ffffffffffffffff811115611b3557600080fd5b8301601f81018513611b4657600080fd5b803567ffffffffffffffff811115611b5d57600080fd5b8560208260051b8401011115611b7257600080fd5b6020919091019590945092505050565b6000602082016020835280845180835260408501915060408160051b86010192506020860160005b82811015611bf9577fffffffffffffffffffffffffffffffffffffffffffffffffffffffffffffffc0878603018452611be48583516119f3565b94506020938401939190910190600101611baa565b50929695505050505050565b7f4e487b7100000000000000000000000000000000000000000000000000000000600052601160045260246000fd5b81810381811115610d7157610d71611c05565b7f4e487b7100000000000000000000000000000000000000000000000000000000600052603260045260246000fd5b8082018281126000831280158216821582161715611c9657611c96611c05565b505092915050565b600060208284031215611cb057600080fd5b5051919050565b600082611ced577f4e487b7100000000000000000000000000000000000000000000000000000000600052601260045260246000fd5b500490565b80820180821115610d7157610d71611c05565b6020808252810182905260008360408301825b85811015611d6e578235611d2b816117bf565b6001600160a01b031682526020830135611d44816117bf565b6001600160a01b031660208301526040838101359083015260609283019290910190600101611d18565b509594505050505056fea2646970667358221220d1c44f9f1a937afd386a2b556724dd53886ebd5b50e132fada234c1c7958170964736f6c63430008220033","linkReferences":{}},"methodIdentifiers":{"MIN_ORDER_SIZE()":"d3f82d8e","WITHDRAW_EPOCH()":"62fe8ee1","deposit(address,uint160)":"03fde255","destinationSettlers(uint256)":"8d7b2227","eip712Domain()":"84b0196e","factory()":"c45a0155","multicall(bytes[])":"ac9650d8","owner()":"8da5cb5b","setDestinationSettler(uint256,address)":"717653a0","setWithdrawEpochCap(address,uint256)":"2d2cfb66","settleBatch((address,address,int256)[],uint256,bytes)":"76ec433e","tradeBalance(address,address)":"19d5f0c3","usedSettleNonces(uint256)":"4565fe4a","usedWithdrawNonces(address,uint256)":"892d16be","version()":"54fd4d50","withdraw((address,address,uint256,uint256,uint256),bytes)":"4e5c6e4e","withdrawEpochCap(address)":"426aabc2","withdrawnInEpoch(address,uint256)":"742960c1"},"id":46}