{
  "abi": [
    {
      "stateMutability": "nonpayable",
      "type": "fallback"
    },
    {
      "inputs": [],
      "name": "MIN_ORDER_SIZE",
      "outputs": [
        {
          "internalType": "uint16",
          "name": "",
          "type": "uint16"
        }
      ],
      "stateMutability": "view",
      "type": "function"
    },
    {
      "inputs": [
        {
          "internalType": "address",
          "name": "_token",
          "type": "address"
        },
        {
          "internalType": "uint160",
          "name": "_amount",
          "type": "uint160"
        }
      ],
      "name": "deposit",
      "outputs": [],
      "stateMutability": "nonpayable",
      "type": "function"
    },
    {
      "inputs": [
        {
          "internalType": "uint256",
          "name": "chainId",
          "type": "uint256"
        }
      ],
      "name": "destinationSettlers",
      "outputs": [
        {
          "internalType": "address",
          "name": "settler",
          "type": "address"
        }
      ],
      "stateMutability": "view",
      "type": "function"
    },
    {
      "inputs": [],
      "name": "eip712Domain",
      "outputs": [
        {
          "internalType": "bytes1",
          "name": "fields",
          "type": "bytes1"
        },
        {
          "internalType": "string",
          "name": "name",
          "type": "string"
        },
        {
          "internalType": "string",
          "name": "version",
          "type": "string"
        },
        {
          "internalType": "uint256",
          "name": "chainId",
          "type": "uint256"
        },
        {
          "internalType": "address",
          "name": "verifyingContract",
          "type": "address"
        },
        {
          "internalType": "bytes32",
          "name": "salt",
          "type": "bytes32"
        },
        {
          "internalType": "uint256[]",
          "name": "extensions",
          "type": "uint256[]"
        }
      ],
      "stateMutability": "view",
      "type": "function"
    },
    {
      "inputs": [],
      "name": "factory",
      "outputs": [
        {
          "internalType": "address",
          "name": "_factory",
          "type": "address"
        }
      ],
      "stateMutability": "pure",
      "type": "function"
    },
    {
      "inputs": [
        {
          "internalType": "bytes32",
          "name": "_orderId",
          "type": "bytes32"
        },
        {
          "internalType": "bytes",
          "name": "_originData",
          "type": "bytes"
        },
        {
          "internalType": "bytes",
          "name": "_fillerData",
          "type": "bytes"
        }
      ],
      "name": "fill",
      "outputs": [],
      "stateMutability": "nonpayable",
      "type": "function"
    },
    {
      "inputs": [
        {
          "internalType": "address",
          "name": "holder",
          "type": "address"
        },
        {
          "internalType": "address",
          "name": "token",
          "type": "address"
        }
      ],
      "name": "lockedTradeBalance",
      "outputs": [
        {
          "internalType": "uint256",
          "name": "amount",
          "type": "uint256"
        }
      ],
      "stateMutability": "view",
      "type": "function"
    },
    {
      "inputs": [
        {
          "internalType": "bytes[]",
          "name": "data",
          "type": "bytes[]"
        }
      ],
      "name": "multicall",
      "outputs": [
        {
          "internalType": "bytes[]",
          "name": "",
          "type": "bytes[]"
        }
      ],
      "stateMutability": "payable",
      "type": "function"
    },
    {
      "inputs": [
        {
          "components": [
            {
              "internalType": "uint32",
              "name": "fillDeadline",
              "type": "uint32"
            },
            {
              "internalType": "bytes32",
              "name": "orderDataType",
              "type": "bytes32"
            },
            {
              "internalType": "bytes",
              "name": "orderData",
              "type": "bytes"
            }
          ],
          "internalType": "struct OnchainCrossChainOrder",
          "name": "_order",
          "type": "tuple"
        }
      ],
      "name": "open",
      "outputs": [],
      "stateMutability": "nonpayable",
      "type": "function"
    },
    {
      "inputs": [
        {
          "components": [
            {
              "internalType": "address",
              "name": "originSettler",
              "type": "address"
            },
            {
              "internalType": "address",
              "name": "user",
              "type": "address"
            },
            {
              "internalType": "uint256",
              "name": "nonce",
              "type": "uint256"
            },
            {
              "internalType": "uint256",
              "name": "originChainId",
              "type": "uint256"
            },
            {
              "internalType": "uint32",
              "name": "openDeadline",
              "type": "uint32"
            },
            {
              "internalType": "uint32",
              "name": "fillDeadline",
              "type": "uint32"
            },
            {
              "internalType": "bytes32",
              "name": "orderDataType",
              "type": "bytes32"
            },
            {
              "internalType": "bytes",
              "name": "orderData",
              "type": "bytes"
            }
          ],
          "internalType": "struct GaslessCrossChainOrder",
          "name": "_order",
          "type": "tuple"
        },
        {
          "internalType": "bytes",
          "name": "_signature",
          "type": "bytes"
        },
        {
          "internalType": "bytes",
          "name": "_originFillerData",
          "type": "bytes"
        }
      ],
      "name": "openFor",
      "outputs": [],
      "stateMutability": "nonpayable",
      "type": "function"
    },
    {
      "inputs": [],
      "name": "owner",
      "outputs": [
        {
          "internalType": "address",
          "name": "_factory",
          "type": "address"
        }
      ],
      "stateMutability": "pure",
      "type": "function"
    },
    {
      "inputs": [
        {
          "components": [
            {
              "internalType": "uint32",
              "name": "fillDeadline",
              "type": "uint32"
            },
            {
              "internalType": "bytes32",
              "name": "orderDataType",
              "type": "bytes32"
            },
            {
              "internalType": "bytes",
              "name": "orderData",
              "type": "bytes"
            }
          ],
          "internalType": "struct OnchainCrossChainOrder",
          "name": "_order",
          "type": "tuple"
        }
      ],
      "name": "resolve",
      "outputs": [
        {
          "components": [
            {
              "internalType": "address",
              "name": "user",
              "type": "address"
            },
            {
              "internalType": "uint256",
              "name": "originChainId",
              "type": "uint256"
            },
            {
              "internalType": "uint32",
              "name": "openDeadline",
              "type": "uint32"
            },
            {
              "internalType": "uint32",
              "name": "fillDeadline",
              "type": "uint32"
            },
            {
              "internalType": "bytes32",
              "name": "orderId",
              "type": "bytes32"
            },
            {
              "components": [
                {
                  "internalType": "bytes32",
                  "name": "token",
                  "type": "bytes32"
                },
                {
                  "internalType": "uint256",
                  "name": "amount",
                  "type": "uint256"
                },
                {
                  "internalType": "bytes32",
                  "name": "recipient",
                  "type": "bytes32"
                },
                {
                  "internalType": "uint256",
                  "name": "chainId",
                  "type": "uint256"
                }
              ],
              "internalType": "struct Output[]",
              "name": "maxSpent",
              "type": "tuple[]"
            },
            {
              "components": [
                {
                  "internalType": "bytes32",
                  "name": "token",
                  "type": "bytes32"
                },
                {
                  "internalType": "uint256",
                  "name": "amount",
                  "type": "uint256"
                },
                {
                  "internalType": "bytes32",
                  "name": "recipient",
                  "type": "bytes32"
                },
                {
                  "internalType": "uint256",
                  "name": "chainId",
                  "type": "uint256"
                }
              ],
              "internalType": "struct Output[]",
              "name": "minReceived",
              "type": "tuple[]"
            },
            {
              "components": [
                {
                  "internalType": "uint64",
                  "name": "destinationChainId",
                  "type": "uint64"
                },
                {
                  "internalType": "bytes32",
                  "name": "destinationSettler",
                  "type": "bytes32"
                },
                {
                  "internalType": "bytes",
                  "name": "originData",
                  "type": "bytes"
                }
              ],
              "internalType": "struct FillInstruction[]",
              "name": "fillInstructions",
              "type": "tuple[]"
            }
          ],
          "internalType": "struct ResolvedCrossChainOrder",
          "name": "_resolvedOrder",
          "type": "tuple"
        }
      ],
      "stateMutability": "view",
      "type": "function"
    },
    {
      "inputs": [
        {
          "components": [
            {
              "internalType": "address",
              "name": "originSettler",
              "type": "address"
            },
            {
              "internalType": "address",
              "name": "user",
              "type": "address"
            },
            {
              "internalType": "uint256",
              "name": "nonce",
              "type": "uint256"
            },
            {
              "internalType": "uint256",
              "name": "originChainId",
              "type": "uint256"
            },
            {
              "internalType": "uint32",
              "name": "openDeadline",
              "type": "uint32"
            },
            {
              "internalType": "uint32",
              "name": "fillDeadline",
              "type": "uint32"
            },
            {
              "internalType": "bytes32",
              "name": "orderDataType",
              "type": "bytes32"
            },
            {
              "internalType": "bytes",
              "name": "orderData",
              "type": "bytes"
            }
          ],
          "internalType": "struct GaslessCrossChainOrder",
          "name": "_order",
          "type": "tuple"
        },
        {
          "internalType": "bytes",
          "name": "_originFillerData",
          "type": "bytes"
        }
      ],
      "name": "resolveFor",
      "outputs": [
        {
          "components": [
            {
              "internalType": "address",
              "name": "user",
              "type": "address"
            },
            {
              "internalType": "uint256",
              "name": "originChainId",
              "type": "uint256"
            },
            {
              "internalType": "uint32",
              "name": "openDeadline",
              "type": "uint32"
            },
            {
              "internalType": "uint32",
              "name": "fillDeadline",
              "type": "uint32"
            },
            {
              "internalType": "bytes32",
              "name": "orderId",
              "type": "bytes32"
            },
            {
              "components": [
                {
                  "internalType": "bytes32",
                  "name": "token",
                  "type": "bytes32"
                },
                {
                  "internalType": "uint256",
                  "name": "amount",
                  "type": "uint256"
                },
                {
                  "internalType": "bytes32",
                  "name": "recipient",
                  "type": "bytes32"
                },
                {
                  "internalType": "uint256",
                  "name": "chainId",
                  "type": "uint256"
                }
              ],
              "internalType": "struct Output[]",
              "name": "maxSpent",
              "type": "tuple[]"
            },
            {
              "components": [
                {
                  "internalType": "bytes32",
                  "name": "token",
                  "type": "bytes32"
                },
                {
                  "internalType": "uint256",
                  "name": "amount",
                  "type": "uint256"
                },
                {
                  "internalType": "bytes32",
                  "name": "recipient",
                  "type": "bytes32"
                },
                {
                  "internalType": "uint256",
                  "name": "chainId",
                  "type": "uint256"
                }
              ],
              "internalType": "struct Output[]",
              "name": "minReceived",
              "type": "tuple[]"
            },
            {
              "components": [
                {
                  "internalType": "uint64",
                  "name": "destinationChainId",
                  "type": "uint64"
                },
                {
                  "internalType": "bytes32",
                  "name": "destinationSettler",
                  "type": "bytes32"
                },
                {
                  "internalType": "bytes",
                  "name": "originData",
                  "type": "bytes"
                }
              ],
              "internalType": "struct FillInstruction[]",
              "name": "fillInstructions",
              "type": "tuple[]"
            }
          ],
          "internalType": "struct ResolvedCrossChainOrder",
          "name": "_resolvedOrder",
          "type": "tuple"
        }
      ],
      "stateMutability": "view",
      "type": "function"
    },
    {
      "inputs": [
        {
          "internalType": "address",
          "name": "holder",
          "type": "address"
        },
        {
          "internalType": "address",
          "name": "token",
          "type": "address"
        }
      ],
      "name": "tradeBalance",
      "outputs": [
        {
          "internalType": "uint256",
          "name": "amount",
          "type": "uint256"
        }
      ],
      "stateMutability": "view",
      "type": "function"
    },
    {
      "inputs": [
        {
          "internalType": "bytes32",
          "name": "_orderId",
          "type": "bytes32"
        }
      ],
      "name": "unlockForCanceledOrder",
      "outputs": [],
      "stateMutability": "nonpayable",
      "type": "function"
    },
    {
      "inputs": [],
      "name": "version",
      "outputs": [
        {
          "internalType": "uint8",
          "name": "_version",
          "type": "uint8"
        }
      ],
      "stateMutability": "pure",
      "type": "function"
    },
    {
      "inputs": [
        {
          "internalType": "address",
          "name": "_tokenContract",
          "type": "address"
        },
        {
          "internalType": "uint160",
          "name": "_amount",
          "type": "uint160"
        }
      ],
      "name": "withdraw",
      "outputs": [],
      "stateMutability": "nonpayable",
      "type": "function"
    },
    {
      "anonymous": false,
      "inputs": [
        {
          "indexed": true,
          "internalType": "address",
          "name": "user",
          "type": "address"
        },
        {
          "indexed": true,
          "internalType": "address",
          "name": "tokenContract",
          "type": "address"
        },
        {
          "indexed": false,
          "internalType": "uint160",
          "name": "amount",
          "type": "uint160"
        },
        {
          "indexed": false,
          "internalType": "bytes32",
          "name": "erc7683Id",
          "type": "bytes32"
        }
      ],
      "name": "LockedForOrder",
      "type": "event"
    },
    {
      "anonymous": false,
      "inputs": [
        {
          "indexed": true,
          "internalType": "bytes32",
          "name": "orderId",
          "type": "bytes32"
        },
        {
          "components": [
            {
              "internalType": "address",
              "name": "user",
              "type": "address"
            },
            {
              "internalType": "uint256",
              "name": "originChainId",
              "type": "uint256"
            },
            {
              "internalType": "uint32",
              "name": "openDeadline",
              "type": "uint32"
            },
            {
              "internalType": "uint32",
              "name": "fillDeadline",
              "type": "uint32"
            },
            {
              "internalType": "bytes32",
              "name": "orderId",
              "type": "bytes32"
            },
            {
              "components": [
                {
                  "internalType": "bytes32",
                  "name": "token",
                  "type": "bytes32"
                },
                {
                  "internalType": "uint256",
                  "name": "amount",
                  "type": "uint256"
                },
                {
                  "internalType": "bytes32",
                  "name": "recipient",
                  "type": "bytes32"
                },
                {
                  "internalType": "uint256",
                  "name": "chainId",
                  "type": "uint256"
                }
              ],
              "internalType": "struct Output[]",
              "name": "maxSpent",
              "type": "tuple[]"
            },
            {
              "components": [
                {
                  "internalType": "bytes32",
                  "name": "token",
                  "type": "bytes32"
                },
                {
                  "internalType": "uint256",
                  "name": "amount",
                  "type": "uint256"
                },
                {
                  "internalType": "bytes32",
                  "name": "recipient",
                  "type": "bytes32"
                },
                {
                  "internalType": "uint256",
                  "name": "chainId",
                  "type": "uint256"
                }
              ],
              "internalType": "struct Output[]",
              "name": "minReceived",
              "type": "tuple[]"
            },
            {
              "components": [
                {
                  "internalType": "uint64",
                  "name": "destinationChainId",
                  "type": "uint64"
                },
                {
                  "internalType": "bytes32",
                  "name": "destinationSettler",
                  "type": "bytes32"
                },
                {
                  "internalType": "bytes",
                  "name": "originData",
                  "type": "bytes"
                }
              ],
              "internalType": "struct FillInstruction[]",
              "name": "fillInstructions",
              "type": "tuple[]"
            }
          ],
          "indexed": false,
          "internalType": "struct ResolvedCrossChainOrder",
          "name": "resolvedOrder",
          "type": "tuple"
        }
      ],
      "name": "Open",
      "type": "event"
    },
    {
      "anonymous": false,
      "inputs": [
        {
          "indexed": false,
          "internalType": "bytes32",
          "name": "erc7683Id",
          "type": "bytes32"
        }
      ],
      "name": "OrderCanceled",
      "type": "event"
    },
    {
      "anonymous": false,
      "inputs": [
        {
          "indexed": true,
          "internalType": "address",
          "name": "user",
          "type": "address"
        },
        {
          "indexed": true,
          "internalType": "address",
          "name": "tokenContract",
          "type": "address"
        },
        {
          "indexed": false,
          "internalType": "uint160",
          "name": "amount",
          "type": "uint160"
        }
      ],
      "name": "TokenDeposited",
      "type": "event"
    },
    {
      "anonymous": false,
      "inputs": [
        {
          "indexed": true,
          "internalType": "address",
          "name": "user",
          "type": "address"
        },
        {
          "indexed": true,
          "internalType": "address",
          "name": "tokenContract",
          "type": "address"
        },
        {
          "indexed": false,
          "internalType": "uint160",
          "name": "amount",
          "type": "uint160"
        }
      ],
      "name": "TokenWithdrawn",
      "type": "event"
    },
    {
      "anonymous": false,
      "inputs": [
        {
          "indexed": true,
          "internalType": "address",
          "name": "maker",
          "type": "address"
        },
        {
          "indexed": true,
          "internalType": "address",
          "name": "taker",
          "type": "address"
        },
        {
          "indexed": false,
          "internalType": "uint160",
          "name": "amount",
          "type": "uint160"
        },
        {
          "indexed": false,
          "internalType": "uint160",
          "name": "fees",
          "type": "uint160"
        },
        {
          "indexed": false,
          "internalType": "uint256",
          "name": "repaymentChainId",
          "type": "uint256"
        },
        {
          "indexed": false,
          "internalType": "bytes32",
          "name": "erc7683Id",
          "type": "bytes32"
        }
      ],
      "name": "TradeSettled",
      "type": "event"
    },
    {
      "anonymous": false,
      "inputs": [
        {
          "indexed": false,
          "internalType": "bytes32",
          "name": "erc7683Id",
          "type": "bytes32"
        }
      ],
      "name": "UnlockedForCanceledOrder",
      "type": "event"
    },
    {
      "inputs": [],
      "name": "BLOCK_NOT_CONFIRMED",
      "type": "error"
    },
    {
      "inputs": [],
      "name": "INSUFFICIENT_AVAILABLE_BALANCE",
      "type": "error"
    },
    {
      "inputs": [
        {
          "internalType": "uint256",
          "name": "available",
          "type": "uint256"
        },
        {
          "internalType": "uint160",
          "name": "required",
          "type": "uint160"
        }
      ],
      "name": "INSUFFICIENT_BALANCE",
      "type": "error"
    },
    {
      "inputs": [],
      "name": "INVALID_INTENT",
      "type": "error"
    },
    {
      "inputs": [],
      "name": "INVALID_SIGNER",
      "type": "error"
    },
    {
      "inputs": [
        {
          "internalType": "uint160",
          "name": "amount",
          "type": "uint160"
        }
      ],
      "name": "MINIMUM_ORDER_AMOUNT",
      "type": "error"
    },
    {
      "inputs": [],
      "name": "ORDER_ALREADY_CANCELED",
      "type": "error"
    },
    {
      "inputs": [
        {
          "internalType": "bytes32",
          "name": "erc7683Id",
          "type": "bytes32"
        }
      ],
      "name": "ORDER_ALREADY_EXISTS",
      "type": "error"
    },
    {
      "inputs": [],
      "name": "ORDER_DOES_NOT_EXIST",
      "type": "error"
    },
    {
      "inputs": [],
      "name": "ORDER_LARGER_THAN_LOCKED_BALANCE",
      "type": "error"
    },
    {
      "inputs": [],
      "name": "ORDER_NOT_CANCELED",
      "type": "error"
    },
    {
      "inputs": [],
      "name": "Reentrancy",
      "type": "error"
    },
    {
      "inputs": [],
      "name": "ZERO_AMOUNT",
      "type": "error"
    }
  ],
  "assembly": null,
  "bytecode": "0x610120604052348015610010575f5ffd5b503073ffffffffffffffffffffffffffffffffffffffff16608081815250504660a0818152505060608061004861012b60201b60201c565b6100635761005a61012f60201b60201c565b80925081935050505b5f61007261012b60201b60201c565b610083578280519060200120610087565b5f5f1b5b90505f61009861012b60201b60201c565b6100a95782805190602001206100ad565b5f5f1b5b90508160c081815250508060e081815250505f6100ce61012b60201b60201c565b610118576040517f8b73c3c69bb8fe3d512ecc4cf759cc79239f7b179b0ffacaa9a75d522b39400f815283602082015282604082015246606082015230608082015260a081209150505b80610100818152505050505050506101a5565b5f90565b6060806040518060400160405280600681526020017f4d69647269620000000000000000000000000000000000000000000000000000815250915061017d600260ff1661018360201b60201c565b90509091565b6060604051604081016040526001815282603001602082015380915050919050565b60805160a05160c05160e051610100516160f16101e25f395f61405901525f61428101525f61425e01525f6142f001525f61431401526160f15ff3fe608060405260043610610101575f3560e01c806384b0196e11610094578063ac9650d811610063578063ac9650d814610356578063b9afd4b914610386578063c45a0155146103ae578063d3f82d8e146103d8578063e917a9621461040257610102565b806384b0196e146102985780638b1db0f3146102c85780638d7b2227146102f05780638da5cb5b1461032c57610102565b806354fd4d50116100d057806354fd4d50146101e25780637e8d29d61461020c57806382e2c43f14610248578063844fac8e1461027057610102565b806303fde2551461010657806319d5f0c31461012e57806322bcd51a1461016a57806341b477dd146101a657610102565b5b5f5ffd5b348015610111575f5ffd5b5061012c600480360381019061012791906145b2565b61042a565b005b348015610139575f5ffd5b50610154600480360381019061014f91906145f0565b61046f565b6040516101619190614646565b60405180910390f35b348015610175575f5ffd5b50610190600480360381019061018b91906146e3565b61048f565b60405161019d9190614b00565b60405180910390f35b3480156101b1575f5ffd5b506101cc60048036038101906101c79190614b3e565b6104b2565b6040516101d99190614b00565b60405180910390f35b3480156101ed575f5ffd5b506101f66104d1565b6040516102039190614ba0565b60405180910390f35b348015610217575f5ffd5b50610232600480360381019061022d91906145f0565b6104d9565b60405161023f9190614646565b60405180910390f35b348015610253575f5ffd5b5061026e60048036038101906102699190614be3565b6104f9565b005b34801561027b575f5ffd5b5061029660048036038101906102919190614c74565b610772565b005b3480156102a3575f5ffd5b506102ac610a38565b6040516102bf9796959493929190614e73565b60405180910390f35b3480156102d3575f5ffd5b506102ee60048036038101906102e991906145b2565b610a83565b005b3480156102fb575f5ffd5b5061031660048036038101906103119190614f1f565b610ac8565b6040516103239190614f4a565b60405180910390f35b348015610337575f5ffd5b50610340610af8565b60405161034d9190614f4a565b60405180910390f35b610370600480360381019061036b9190614fb8565b610b07565b60405161037d91906150be565b60405180910390f35b348015610391575f5ffd5b506103ac60048036038101906103a791906150de565b610b2c565b005b3480156103b9575f5ffd5b506103c2611091565b6040516103cf9190614f4a565b60405180910390f35b3480156103e3575f5ffd5b506103ec6110a1565b6040516103f99190615125565b60405180910390f35b34801561040d575f5ffd5b5061042860048036038101906104239190614b3e565b6110a6565b005b3068929eee149b4bd2126854036104485763ab143c065f526004601cfd5b3068929eee149b4bd212685561045f33838361129e565b3868929eee149b4bd21268555050565b6002602052815f5260405f20602052805f5260405f205f91509150505481565b610497614344565b6104a2848484611663565b9091509050809150509392505050565b6104ba614344565b6104c382611a0c565b909150905080915050919050565b5f6002905090565b6003602052815f5260405f20602052805f5260405f205f91509150505481565b3068929eee149b4bd2126854036105175763ab143c065f526004601cfd5b3068929eee149b4bd21268555f848481019061053391906152cb565b9050610540818484611d95565b600381604001516006811115610559576105586152f7565b5b60ff161015610594576040517f3cf5125f00000000000000000000000000000000000000000000000000000000815260040160405180910390fd5b6005816040015160068111156105ad576105ac6152f7565b5b60ff1610156106d4575f60018111156105c9576105c86152f7565b5b816020015160018111156105e0576105df6152f7565b5b036106445761063f81606001518260800151835f01518460a001518560c001518b60046006811115610615576106146152f7565b5b8860400151600681111561062c5761062b6152f7565b5b14610637575f61063a565b60015b611eaa565b6106cf565b600180811115610657576106566152f7565b5b8160200151600181111561066e5761066d6152f7565b5b036106ce576106cd81606001518260800151835f01518460a001518560c001518b600460068111156106a3576106a26152f7565b5b886040015160068111156106ba576106b96152f7565b5b146106c5575f6106c8565b60015b61253f565b5b5b61075e565b600560068111156106e8576106e76152f7565b5b816040015160068111156106ff576106fe6152f7565b5b0361071f5761071a8160600151825f01518360a001516129c6565b61075d565b600680811115610732576107316152f7565b5b81604001516006811115610749576107486152f7565b5b0361075c5761075b8160e00151612d33565b5b5b5b503868929eee149b4bd21268555050505050565b3068929eee149b4bd2126854036107905763ab143c065f526004601cfd5b3068929eee149b4bd21268555f5f5f6107aa888686611663565b925092509250600260068111156107c4576107c36152f7565b5b8360068111156107d7576107d66152f7565b5b1461097e576107e66028612f73565b73ffffffffffffffffffffffffffffffffffffffff16632b67b5708960200160208101906108149190615324565b848a8a6040518563ffffffff1660e01b8152600401610836949392919061545b565b5f604051808303815f87803b15801561084d575f5ffd5b505af115801561085f573d5f5f3e3d5ffd5b5050505060016006811115610877576108766152f7565b5b83600681111561088a576108896152f7565b5b03610922576108e18860200160208101906108a59190615324565b835f01515f0151845f0151602001518460c001515f815181106108cb576108ca61549a565b5b6020026020010151602001518560800151612f8e565b80608001517fa576d0af275d0c6207ef43ceee8c498a5d7a26b8157a32d3fdf361e64371628c826040516109159190614b00565b60405180910390a2610979565b5f6006811115610935576109346152f7565b5b836006811115610948576109476152f7565b5b03610978576109778860200160208101906109639190615324565b835f01515f0151845f01516020015161129e565b5b5b610a22565b60026006811115610992576109916152f7565b5b8360068111156109a5576109a46152f7565b5b03610a21576109b58888886137e2565b6109e48860200160208101906109cb9190615324565b835f01515f0151845f015160200151846080015161399c565b80608001517fa576d0af275d0c6207ef43ceee8c498a5d7a26b8157a32d3fdf361e64371628c82604051610a189190614b00565b60405180910390a25b5b5050503868929eee149b4bd21268555050505050565b5f6060805f5f5f60607f0f000000000000000000000000000000000000000000000000000000000000009650610a6c613e7a565b809650819750505046935030925090919293949596565b3068929eee149b4bd212685403610aa15763ab143c065f526004601cfd5b3068929eee149b4bd2126855610ab83383836129c6565b3868929eee149b4bd21268555050565b6004602052805f5260405f205f915054906101000a900473ffffffffffffffffffffffffffffffffffffffff1681565b5f610b025f612f73565b905090565b60605f3414610b14575f5ffd5b610b26610b218484613ec8565b613f74565b92915050565b3068929eee149b4bd212685403610b4a5763ab143c065f526004601cfd5b3068929eee149b4bd21268555f5f5f8381526020019081526020015f206040518060800160405290815f82015f9054906101000a900473ffffffffffffffffffffffffffffffffffffffff1673ffffffffffffffffffffffffffffffffffffffff1673ffffffffffffffffffffffffffffffffffffffff1681526020015f820160149054906101000a900460ff16151515158152602001600182015f9054906101000a900473ffffffffffffffffffffffffffffffffffffffff1673ffffffffffffffffffffffffffffffffffffffff1673ffffffffffffffffffffffffffffffffffffffff168152602001600282015f9054906101000a900473ffffffffffffffffffffffffffffffffffffffff1673ffffffffffffffffffffffffffffffffffffffff1673ffffffffffffffffffffffffffffffffffffffff16815250509050600a61ffff16815f015173ffffffffffffffffffffffffffffffffffffffff161015610cf257805f01516040517f7ccfd2ff000000000000000000000000000000000000000000000000000000008152600401610ce991906154d6565b60405180910390fd5b805f015173ffffffffffffffffffffffffffffffffffffffff1660035f836060015173ffffffffffffffffffffffffffffffffffffffff1673ffffffffffffffffffffffffffffffffffffffff1681526020019081526020015f205f836040015173ffffffffffffffffffffffffffffffffffffffff1673ffffffffffffffffffffffffffffffffffffffff1681526020019081526020015f20541015610dc5576040517fee9f7c3e00000000000000000000000000000000000000000000000000000000815260040160405180910390fd5b8060200151610e00576040517f7c78d56400000000000000000000000000000000000000000000000000000000815260040160405180910390fd5b60015f8381526020019081526020015f20544311610e4a576040517fba179b3e00000000000000000000000000000000000000000000000000000000815260040160405180910390fd5b805f015173ffffffffffffffffffffffffffffffffffffffff1660035f836060015173ffffffffffffffffffffffffffffffffffffffff1673ffffffffffffffffffffffffffffffffffffffff1681526020019081526020015f205f836040015173ffffffffffffffffffffffffffffffffffffffff1673ffffffffffffffffffffffffffffffffffffffff1681526020019081526020015f205f828254610ef2919061551c565b92505081905550805f015173ffffffffffffffffffffffffffffffffffffffff1660025f836060015173ffffffffffffffffffffffffffffffffffffffff1673ffffffffffffffffffffffffffffffffffffffff1681526020019081526020015f205f836040015173ffffffffffffffffffffffffffffffffffffffff1673ffffffffffffffffffffffffffffffffffffffff1681526020019081526020015f205f82825401925050819055505f5f8381526020019081526020015f205f5f82015f6101000a81549073ffffffffffffffffffffffffffffffffffffffff02191690555f820160146101000a81549060ff0219169055600182015f6101000a81549073ffffffffffffffffffffffffffffffffffffffff0219169055600282015f6101000a81549073ffffffffffffffffffffffffffffffffffffffff0219169055505060015f8381526020019081526020015f205f90557f9a35c4dbc1cf59bcbe9087b2d49e9f4089b163b71ea35d507e142b207e396d0a82604051611079919061554f565b60405180910390a1503868929eee149b4bd212685550565b5f61109c6014612f73565b905090565b600a81565b3068929eee149b4bd2126854036110c45763ab143c065f526004601cfd5b3068929eee149b4bd21268555f5f5f6110dc84611a0c565b925092509250600260068111156110f6576110f56152f7565b5b836006811115611109576111086152f7565b5b146112055760016006811115611122576111216152f7565b5b836006811115611135576111346152f7565b5b036111bb5761117a33835f01515f0151845f0151602001518460c001515f815181106111645761116361549a565b5b6020026020010151602001518560800151612f8e565b80608001517fa576d0af275d0c6207ef43ceee8c498a5d7a26b8157a32d3fdf361e64371628c826040516111ae9190614b00565b60405180910390a2611200565b5f60068111156111ce576111cd6152f7565b5b8360068111156111e1576111e06152f7565b5b036111ff576111fe33835f01515f0151845f01516020015161129e565b5b5b61128c565b60026006811115611219576112186152f7565b5b83600681111561122c5761122b6152f7565b5b0361128b5761124e33835f01515f0151845f015160200151846080015161399c565b80608001517fa576d0af275d0c6207ef43ceee8c498a5d7a26b8157a32d3fdf361e64371628c826040516112829190614b00565b60405180910390a25b5b5050503868929eee149b4bd212685550565b5f8173ffffffffffffffffffffffffffffffffffffffff16036112ed576040517ff6fa545000000000000000000000000000000000000000000000000000000000815260040160405180910390fd5b600a61ffff168173ffffffffffffffffffffffffffffffffffffffff16101561134d57806040517f7ccfd2ff00000000000000000000000000000000000000000000000000000000815260040161134491906154d6565b60405180910390fd5b5f8273ffffffffffffffffffffffffffffffffffffffff166370a08231856040518263ffffffff1660e01b81526004016113879190614f4a565b602060405180830381865afa1580156113a2573d5f5f3e3d5ffd5b505050506040513d601f19601f820116820180604052508101906113c6919061557c565b90505f8373ffffffffffffffffffffffffffffffffffffffff166370a08231306040518263ffffffff1660e01b81526004016114029190614f4a565b602060405180830381865afa15801561141d573d5f5f3e3d5ffd5b505050506040513d601f19601f82011682018060405250810190611441919061557c565b90508273ffffffffffffffffffffffffffffffffffffffff168210156114a05781836040517ff07533670000000000000000000000000000000000000000000000000000000081526004016114979291906155a7565b60405180910390fd5b6114e385308573ffffffffffffffffffffffffffffffffffffffff168773ffffffffffffffffffffffffffffffffffffffff16613f85909392919063ffffffff16565b5f818573ffffffffffffffffffffffffffffffffffffffff166370a08231306040518263ffffffff1660e01b815260040161151e9190614f4a565b602060405180830381865afa158015611539573d5f5f3e3d5ffd5b505050506040513d601f19601f8201168201806040525081019061155d919061557c565b611567919061551c565b90508060025f8873ffffffffffffffffffffffffffffffffffffffff1673ffffffffffffffffffffffffffffffffffffffff1681526020019081526020015f205f8773ffffffffffffffffffffffffffffffffffffffff1673ffffffffffffffffffffffffffffffffffffffff1681526020019081526020015f205f82825401925050819055508473ffffffffffffffffffffffffffffffffffffffff168673ffffffffffffffffffffffffffffffffffffffff167ff252e7564622d27c64805f4295d4aed7999599ad484da4eaa1377fc14df9f1d561164684613fea565b60405161165391906154d6565b60405180910390a3505050505050565b5f61166c6143a6565b611674614344565b61167c6143e1565b868060e0019061168c91906155da565b81019061169991906158ab565b8093508195508296505050505f600167ffffffffffffffff8111156116c1576116c0615142565b5b6040519080825280602002602001820160405280156116fa57816020015b6116e7614470565b8152602001906001900390816116df5790505b5090506040518060800160405280835f01518152602001836020015173ffffffffffffffffffffffffffffffffffffffff168152602001836060015173ffffffffffffffffffffffffffffffffffffffff165f1b81526020018360800151815250815f8151811061176e5761176d61549a565b5b60200260200101819052505f600167ffffffffffffffff81111561179557611794615142565b5b6040519080825280602002602001820160405280156117ce57816020015b6117bb614470565b8152602001906001900390816117b35790505b5090505f8888906117df919061592e565b90506040518060800160405280875f01515f015173ffffffffffffffffffffffffffffffffffffffff165f1b8152602001856040015173ffffffffffffffffffffffffffffffffffffffff16815260200182815260200146815250825f8151811061184d5761184c61549a565b5b60200260200101819052505f600167ffffffffffffffff81111561187457611873615142565b5b6040519080825280602002602001820160405280156118ad57816020015b61189a614494565b8152602001906001900390816118925790505b50905060405180606001604052806118c88760800151614018565b67ffffffffffffffff168152602001866080015173ffffffffffffffffffffffffffffffffffffffff165f1b81526020018c60405160200161190a9190615b97565b604051602081830303815290604052815250815f8151811061192f5761192e61549a565b5b60200260200101819052506040518061010001604052808c60200160208101906119599190615324565b73ffffffffffffffffffffffffffffffffffffffff1681526020018c6060013581526020018c60800160208101906119919190615bb7565b63ffffffff1681526020018c60a00160208101906119af9190615bb7565b63ffffffff1681526020018c87608001516040516020016119d1929190615be2565b604051602081830303815290604052805190602001208152602001858152602001848152602001828152509550505050505093509350939050565b5f611a156143a6565b611a1d614344565b611a256143e1565b848060400190611a3591906155da565b810190611a4291906158ab565b8093508195508296505050505f600167ffffffffffffffff811115611a6a57611a69615142565b5b604051908082528060200260200182016040528015611aa357816020015b611a90614470565b815260200190600190039081611a885790505b5090506040518060800160405280835f01518152602001836020015173ffffffffffffffffffffffffffffffffffffffff168152602001836060015173ffffffffffffffffffffffffffffffffffffffff165f1b81526020018360800151815250815f81518110611b1757611b1661549a565b5b60200260200101819052505f600167ffffffffffffffff811115611b3e57611b3d615142565b5b604051908082528060200260200182016040528015611b7757816020015b611b64614470565b815260200190600190039081611b5c5790505b5090506040518060800160405280865f01515f015173ffffffffffffffffffffffffffffffffffffffff165f1b8152602001846040015173ffffffffffffffffffffffffffffffffffffffff1681526020018460a0015173ffffffffffffffffffffffffffffffffffffffff165f1b815260200146815250815f81518110611c0257611c0161549a565b5b60200260200101819052505f600167ffffffffffffffff811115611c2957611c28615142565b5b604051908082528060200260200182016040528015611c6257816020015b611c4f614494565b815260200190600190039081611c475790505b5090506040518060600160405280611c7d8660800151614018565b67ffffffffffffffff168152602001856080015173ffffffffffffffffffffffffffffffffffffffff165f1b815260200189604051602001611cbf9190615c77565b604051602081830303815290604052815250815f81518110611ce457611ce361549a565b5b60200260200101819052506040518061010001604052803373ffffffffffffffffffffffffffffffffffffffff16815260200146815260200163ffffffff80168152602001895f016020810190611d3b9190615bb7565b63ffffffff168152602001898660800151604051602001611d5d929190615c97565b604051602081830303815290604052805190602001208152602001848152602001838152602001828152509450505050509193909250565b5f7f436662be8c9ccdbf835196f5a0bab546929d93f1cdda1663c33321145dd3e78e845f015185602001518660400151876060015188608001518960a001518a60c001518b60e00151604051602001611df699989796959493929190615d51565b6040516020818303038152906040528051906020012090505f611e188261403a565b90505f611e24826140b6565b90505f611e328287876140e6565b9050611e3d5f612f73565b73ffffffffffffffffffffffffffffffffffffffff168173ffffffffffffffffffffffffffffffffffffffff1614611ea1576040517f6cbfd82c00000000000000000000000000000000000000000000000000000000815260040160405180910390fd5b50505050505050565b600a61ffff168473ffffffffffffffffffffffffffffffffffffffff161015611f0a57836040517f7ccfd2ff000000000000000000000000000000000000000000000000000000008152600401611f0191906154d6565b60405180910390fd5b8373ffffffffffffffffffffffffffffffffffffffff1660035f8973ffffffffffffffffffffffffffffffffffffffff1673ffffffffffffffffffffffffffffffffffffffff1681526020019081526020015f205f8773ffffffffffffffffffffffffffffffffffffffff1673ffffffffffffffffffffffffffffffffffffffff1681526020019081526020015f20541015611fd2576040517fee9f7c3e00000000000000000000000000000000000000000000000000000000815260040160405180910390fd5b8373ffffffffffffffffffffffffffffffffffffffff1660035f8973ffffffffffffffffffffffffffffffffffffffff1673ffffffffffffffffffffffffffffffffffffffff1681526020019081526020015f205f8773ffffffffffffffffffffffffffffffffffffffff1673ffffffffffffffffffffffffffffffffffffffff1681526020019081526020015f205f82825461206f919061551c565b925050819055505f61271061ffff16612088603c614172565b61ffff16866120979190615ddc565b6120a19190615e4a565b73ffffffffffffffffffffffffffffffffffffffff1690505f8673ffffffffffffffffffffffffffffffffffffffff166370a08231306040518263ffffffff1660e01b81526004016120f39190614f4a565b602060405180830381865afa15801561210e573d5f5f3e3d5ffd5b505050506040513d601f19601f82011682018060405250810190612132919061557c565b90506121d56121416014612f73565b73ffffffffffffffffffffffffffffffffffffffff166316a084496040518163ffffffff1660e01b81526004016020604051808303815f875af115801561218a573d5f5f3e3d5ffd5b505050506040513d601f19601f820116820180604052508101906121ae9190615e8e565b838973ffffffffffffffffffffffffffffffffffffffff1661418d9092919063ffffffff16565b5f8773ffffffffffffffffffffffffffffffffffffffff166370a08231306040518263ffffffff1660e01b815260040161220f9190614f4a565b602060405180830381865afa15801561222a573d5f5f3e3d5ffd5b505050506040513d601f19601f8201168201806040525081019061224e919061557c565b82612259919061551c565b90508315612422575f8873ffffffffffffffffffffffffffffffffffffffff166370a08231306040518263ffffffff1660e01b815260040161229b9190614f4a565b602060405180830381865afa1580156122b6573d5f5f3e3d5ffd5b505050506040513d601f19601f820116820180604052508101906122da919061557c565b90506123288a838a73ffffffffffffffffffffffffffffffffffffffff16612302919061551c565b8b73ffffffffffffffffffffffffffffffffffffffff1661418d9092919063ffffffff16565b5f8973ffffffffffffffffffffffffffffffffffffffff166370a08231306040518263ffffffff1660e01b81526004016123629190614f4a565b602060405180830381865afa15801561237d573d5f5f3e3d5ffd5b505050506040513d601f19601f820116820180604052508101906123a1919061557c565b826123ac919061551c565b90508973ffffffffffffffffffffffffffffffffffffffff168b73ffffffffffffffffffffffffffffffffffffffff167f261f61e2ebf752ba735e34549daf998db76c008224631402de807aafe5dc098661240684613fea565b60405161241391906154d6565b60405180910390a350506124c0565b808773ffffffffffffffffffffffffffffffffffffffff160360025f8b73ffffffffffffffffffffffffffffffffffffffff1673ffffffffffffffffffffffffffffffffffffffff1681526020019081526020015f205f8a73ffffffffffffffffffffffffffffffffffffffff1673ffffffffffffffffffffffffffffffffffffffff1681526020019081526020015f205f82825401925050819055505b8873ffffffffffffffffffffffffffffffffffffffff168a73ffffffffffffffffffffffffffffffffffffffff167f175db405132d8c2a71c52e9106464f2596ce376af3ea904079ed95a38e3941d78961251985613fea565b8a8a60405161252b9493929190615eb9565b60405180910390a350505050505050505050565b5f8473ffffffffffffffffffffffffffffffffffffffff160361258e576040517ff6fa545000000000000000000000000000000000000000000000000000000000815260040160405180910390fd5b8373ffffffffffffffffffffffffffffffffffffffff1660025f8973ffffffffffffffffffffffffffffffffffffffff1673ffffffffffffffffffffffffffffffffffffffff1681526020019081526020015f205f8773ffffffffffffffffffffffffffffffffffffffff1673ffffffffffffffffffffffffffffffffffffffff1681526020019081526020015f20541015612656576040517f06bc047a00000000000000000000000000000000000000000000000000000000815260040160405180910390fd5b8373ffffffffffffffffffffffffffffffffffffffff1660025f8973ffffffffffffffffffffffffffffffffffffffff1673ffffffffffffffffffffffffffffffffffffffff1681526020019081526020015f205f8773ffffffffffffffffffffffffffffffffffffffff1673ffffffffffffffffffffffffffffffffffffffff1681526020019081526020015f205f8282546126f3919061551c565b9250508190555080156128b6575f8573ffffffffffffffffffffffffffffffffffffffff166370a08231306040518263ffffffff1660e01b815260040161273a9190614f4a565b602060405180830381865afa158015612755573d5f5f3e3d5ffd5b505050506040513d601f19601f82011682018060405250810190612779919061557c565b90506127bc878673ffffffffffffffffffffffffffffffffffffffff168873ffffffffffffffffffffffffffffffffffffffff1661418d9092919063ffffffff16565b5f8673ffffffffffffffffffffffffffffffffffffffff166370a08231306040518263ffffffff1660e01b81526004016127f69190614f4a565b602060405180830381865afa158015612811573d5f5f3e3d5ffd5b505050506040513d601f19601f82011682018060405250810190612835919061557c565b82612840919061551c565b90508673ffffffffffffffffffffffffffffffffffffffff168873ffffffffffffffffffffffffffffffffffffffff167f261f61e2ebf752ba735e34549daf998db76c008224631402de807aafe5dc098661289a84613fea565b6040516128a791906154d6565b60405180910390a35050612952565b8373ffffffffffffffffffffffffffffffffffffffff1660025f8873ffffffffffffffffffffffffffffffffffffffff1673ffffffffffffffffffffffffffffffffffffffff1681526020019081526020015f205f8773ffffffffffffffffffffffffffffffffffffffff1673ffffffffffffffffffffffffffffffffffffffff1681526020019081526020015f205f82825401925050819055505b8573ffffffffffffffffffffffffffffffffffffffff168773ffffffffffffffffffffffffffffffffffffffff167f175db405132d8c2a71c52e9106464f2596ce376af3ea904079ed95a38e3941d7865f87876040516129b59493929190615f3e565b60405180910390a350505050505050565b5f8173ffffffffffffffffffffffffffffffffffffffff1603612a15576040517ff6fa545000000000000000000000000000000000000000000000000000000000815260040160405180910390fd5b5f60025f8573ffffffffffffffffffffffffffffffffffffffff1673ffffffffffffffffffffffffffffffffffffffff1681526020019081526020015f205f8473ffffffffffffffffffffffffffffffffffffffff1673ffffffffffffffffffffffffffffffffffffffff1681526020019081526020015f205490505f8373ffffffffffffffffffffffffffffffffffffffff166370a08231306040518263ffffffff1660e01b8152600401612acb9190614f4a565b602060405180830381865afa158015612ae6573d5f5f3e3d5ffd5b505050506040513d601f19601f82011682018060405250810190612b0a919061557c565b90508273ffffffffffffffffffffffffffffffffffffffff16821015612b695781836040517ff0753367000000000000000000000000000000000000000000000000000000008152600401612b609291906155a7565b60405180910390fd5b612baa858473ffffffffffffffffffffffffffffffffffffffff168673ffffffffffffffffffffffffffffffffffffffff1661418d9092919063ffffffff16565b5f8473ffffffffffffffffffffffffffffffffffffffff166370a08231306040518263ffffffff1660e01b8152600401612be49190614f4a565b602060405180830381865afa158015612bff573d5f5f3e3d5ffd5b505050506040513d601f19601f82011682018060405250810190612c23919061557c565b82612c2e919061551c565b90508060025f8873ffffffffffffffffffffffffffffffffffffffff1673ffffffffffffffffffffffffffffffffffffffff1681526020019081526020015f205f8773ffffffffffffffffffffffffffffffffffffffff1673ffffffffffffffffffffffffffffffffffffffff1681526020019081526020015f205f828254612cb7919061551c565b925050819055508473ffffffffffffffffffffffffffffffffffffffff168673ffffffffffffffffffffffffffffffffffffffff167f261f61e2ebf752ba735e34549daf998db76c008224631402de807aafe5dc0986612d1684613fea565b604051612d2391906154d6565b60405180910390a3505050505050565b5f5f5f8381526020019081526020015f206040518060800160405290815f82015f9054906101000a900473ffffffffffffffffffffffffffffffffffffffff1673ffffffffffffffffffffffffffffffffffffffff1673ffffffffffffffffffffffffffffffffffffffff1681526020015f820160149054906101000a900460ff16151515158152602001600182015f9054906101000a900473ffffffffffffffffffffffffffffffffffffffff1673ffffffffffffffffffffffffffffffffffffffff1673ffffffffffffffffffffffffffffffffffffffff168152602001600282015f9054906101000a900473ffffffffffffffffffffffffffffffffffffffff1673ffffffffffffffffffffffffffffffffffffffff1673ffffffffffffffffffffffffffffffffffffffff168152505090505f815f015173ffffffffffffffffffffffffffffffffffffffff1603612ebb576040517fd5516fcd00000000000000000000000000000000000000000000000000000000815260040160405180910390fd5b806020015115612ef7576040517f099126c500000000000000000000000000000000000000000000000000000000815260040160405180910390fd5b60015f5f8481526020019081526020015f205f0160146101000a81548160ff0219169083151502179055504360015f8481526020019081526020015f20819055507f30ad15c39984aa59d60d4089cbbbaa503c4c9e0fa0e3bdf62a5bab180fcb974d82604051612f67919061554f565b60405180910390a15050565b5f5f612f7d6141e1565b90508281013560601c915050919050565b5f8273ffffffffffffffffffffffffffffffffffffffff161480612fc757505f8373ffffffffffffffffffffffffffffffffffffffff16145b15612ffe576040517ff6fa545000000000000000000000000000000000000000000000000000000000815260040160405180910390fd5b600a61ffff168273ffffffffffffffffffffffffffffffffffffffff16101561305e57816040517f7ccfd2ff00000000000000000000000000000000000000000000000000000000815260040161305591906154d6565b60405180910390fd5b600a61ffff168373ffffffffffffffffffffffffffffffffffffffff1610156130be57826040517f7ccfd2ff0000000000000000000000000000000000000000000000000000000081526004016130b591906154d6565b60405180910390fd5b60025f8673ffffffffffffffffffffffffffffffffffffffff1673ffffffffffffffffffffffffffffffffffffffff1681526020019081526020015f205f8573ffffffffffffffffffffffffffffffffffffffff1673ffffffffffffffffffffffffffffffffffffffff1681526020019081526020015f20548273ffffffffffffffffffffffffffffffffffffffff166131589190615f81565b8373ffffffffffffffffffffffffffffffffffffffff1611156131a7576040517f06bc047a00000000000000000000000000000000000000000000000000000000815260040160405180910390fd5b5f8473ffffffffffffffffffffffffffffffffffffffff166370a08231876040518263ffffffff1660e01b81526004016131e19190614f4a565b602060405180830381865afa1580156131fc573d5f5f3e3d5ffd5b505050506040513d601f19601f82011682018060405250810190613220919061557c565b90505f8573ffffffffffffffffffffffffffffffffffffffff166370a08231306040518263ffffffff1660e01b815260040161325c9190614f4a565b602060405180830381865afa158015613277573d5f5f3e3d5ffd5b505050506040513d601f19601f8201168201806040525081019061329b919061557c565b90508373ffffffffffffffffffffffffffffffffffffffff168210156132fa5781846040517ff07533670000000000000000000000000000000000000000000000000000000081526004016132f19291906155a7565b60405180910390fd5b61333d87308673ffffffffffffffffffffffffffffffffffffffff168973ffffffffffffffffffffffffffffffffffffffff16613f85909392919063ffffffff16565b5f818773ffffffffffffffffffffffffffffffffffffffff166370a08231306040518263ffffffff1660e01b81526004016133789190614f4a565b602060405180830381865afa158015613393573d5f5f3e3d5ffd5b505050506040513d601f19601f820116820180604052508101906133b7919061557c565b6133c1919061551c565b905060405180608001604052808773ffffffffffffffffffffffffffffffffffffffff1681526020015f151581526020018873ffffffffffffffffffffffffffffffffffffffff1681526020018973ffffffffffffffffffffffffffffffffffffffff168152505f5f8681526020019081526020015f205f820151815f015f6101000a81548173ffffffffffffffffffffffffffffffffffffffff021916908373ffffffffffffffffffffffffffffffffffffffff1602179055506020820151815f0160146101000a81548160ff0219169083151502179055506040820151816001015f6101000a81548173ffffffffffffffffffffffffffffffffffffffff021916908373ffffffffffffffffffffffffffffffffffffffff1602179055506060820151816002015f6101000a81548173ffffffffffffffffffffffffffffffffffffffff021916908373ffffffffffffffffffffffffffffffffffffffff1602179055509050508573ffffffffffffffffffffffffffffffffffffffff1681106136a3578573ffffffffffffffffffffffffffffffffffffffff1660035f8a73ffffffffffffffffffffffffffffffffffffffff1673ffffffffffffffffffffffffffffffffffffffff1681526020019081526020015f205f8973ffffffffffffffffffffffffffffffffffffffff1673ffffffffffffffffffffffffffffffffffffffff1681526020019081526020015f205f82825401925050819055508573ffffffffffffffffffffffffffffffffffffffff1681111561369e578573ffffffffffffffffffffffffffffffffffffffff16810360025f8a73ffffffffffffffffffffffffffffffffffffffff1673ffffffffffffffffffffffffffffffffffffffff1681526020019081526020015f205f8973ffffffffffffffffffffffffffffffffffffffff1673ffffffffffffffffffffffffffffffffffffffff1681526020019081526020015f205f82825401925050819055505b6137d8565b808673ffffffffffffffffffffffffffffffffffffffff166136c5919061551c565b60025f8a73ffffffffffffffffffffffffffffffffffffffff1673ffffffffffffffffffffffffffffffffffffffff1681526020019081526020015f205f8973ffffffffffffffffffffffffffffffffffffffff1673ffffffffffffffffffffffffffffffffffffffff1681526020019081526020015f205f82825461374b919061551c565b925050819055508060035f8a73ffffffffffffffffffffffffffffffffffffffff1673ffffffffffffffffffffffffffffffffffffffff1681526020019081526020015f205f8973ffffffffffffffffffffffffffffffffffffffff1673ffffffffffffffffffffffffffffffffffffffff1681526020019081526020015f205f82825401925050819055505b5050505050505050565b5f7fe3bf10b5739e335154720a95c12f13044f17663dbd6ca01ac402fbc114960ecd845f0160208101906138169190615324565b8560200160208101906138299190615324565b866040013587606001358860800160208101906138469190615bb7565b8960a00160208101906138599190615bb7565b8a60c001358b8060e0019061386e91906155da565b60405161387c929190615fe2565b604051809103902060405160200161389c99989796959493929190616009565b6040516020818303038152906040528051906020012090505f6138be8261403a565b90505f6138ca826140b6565b90505f6138d88287876140e6565b90508660200160208101906138ed9190615324565b73ffffffffffffffffffffffffffffffffffffffff168173ffffffffffffffffffffffffffffffffffffffff161415801561395c575061392c5f612f73565b73ffffffffffffffffffffffffffffffffffffffff168173ffffffffffffffffffffffffffffffffffffffff1614155b15613993576040517f6cbfd82c00000000000000000000000000000000000000000000000000000000815260040160405180910390fd5b50505050505050565b600a61ffff168273ffffffffffffffffffffffffffffffffffffffff1610156139fc57816040517f7ccfd2ff0000000000000000000000000000000000000000000000000000000081526004016139f391906154d6565b60405180910390fd5b5f60025f8673ffffffffffffffffffffffffffffffffffffffff1673ffffffffffffffffffffffffffffffffffffffff1681526020019081526020015f205f8573ffffffffffffffffffffffffffffffffffffffff1673ffffffffffffffffffffffffffffffffffffffff1681526020019081526020015f205490508273ffffffffffffffffffffffffffffffffffffffff16811015613ad55780836040517ff0753367000000000000000000000000000000000000000000000000000000008152600401613acc9291906155a7565b60405180910390fd5b5f5f5f8481526020019081526020015f205f015f9054906101000a900473ffffffffffffffffffffffffffffffffffffffff1673ffffffffffffffffffffffffffffffffffffffff1690505f811115613b6557826040517f9db46e78000000000000000000000000000000000000000000000000000000008152600401613b5c919061554f565b60405180910390fd5b60405180608001604052808573ffffffffffffffffffffffffffffffffffffffff1681526020015f151581526020018673ffffffffffffffffffffffffffffffffffffffff1681526020018773ffffffffffffffffffffffffffffffffffffffff168152505f5f8581526020019081526020015f205f820151815f015f6101000a81548173ffffffffffffffffffffffffffffffffffffffff021916908373ffffffffffffffffffffffffffffffffffffffff1602179055506020820151815f0160146101000a81548160ff0219169083151502179055506040820151816001015f6101000a81548173ffffffffffffffffffffffffffffffffffffffff021916908373ffffffffffffffffffffffffffffffffffffffff1602179055506060820151816002015f6101000a81548173ffffffffffffffffffffffffffffffffffffffff021916908373ffffffffffffffffffffffffffffffffffffffff1602179055509050508373ffffffffffffffffffffffffffffffffffffffff1660025f8873ffffffffffffffffffffffffffffffffffffffff1673ffffffffffffffffffffffffffffffffffffffff1681526020019081526020015f205f8773ffffffffffffffffffffffffffffffffffffffff1673ffffffffffffffffffffffffffffffffffffffff1681526020019081526020015f205f828254613d69919061551c565b925050819055508373ffffffffffffffffffffffffffffffffffffffff1660035f8873ffffffffffffffffffffffffffffffffffffffff1673ffffffffffffffffffffffffffffffffffffffff1681526020019081526020015f205f8773ffffffffffffffffffffffffffffffffffffffff1673ffffffffffffffffffffffffffffffffffffffff1681526020019081526020015f205f82825401925050819055508473ffffffffffffffffffffffffffffffffffffffff168673ffffffffffffffffffffffffffffffffffffffff167fb81416b4858ebe34ae0e4d809cdc45e1301b5c325c0ba34c8bf0474ae89f7bb88686604051613e6a929190616094565b60405180910390a3505050505050565b6060806040518060400160405280600681526020017f4d696472696200000000000000000000000000000000000000000000000000008152509150613ec2600260ff166141f1565b90509091565b5f60405190506020815281816020015280604001808360051b808684378083019050808515613f5c575b600115613f5b578351870180356020820183375f38823584305af4613f19573d5f873e3d86fd5b83820385528460200194503d8252602082013d5f823e67ffffffffffffffe0601f3d8301011692505f3d820152838610613f54575050613f5b565b5050613ef2565b5b806040528485820360401b1794505050505092915050565b8060401c8167ffffffffffffffff16f35b60405181606052826040528360601b602c526f23b872dd000000000000000000000000600c5260205f6064601c5f895af18060015f511416613fda57803d873b151710613fd957637939f4245f526004601cfd5b5b5f60605281604052505050505050565b5f7401000000000000000000000000000000000000000082106140105761400f614213565b5b819050919050565b5f68010000000000000000821061403257614031614213565b5b819050919050565b5f614043614220565b1561405757614050614224565b9050614093565b7f000000000000000000000000000000000000000000000000000000000000000090506140826142ec565b156140925761408f614224565b90505b5b6719010000000000005f5280601a5281603a52604260182090505f603a52919050565b5f816020527b19457468657265756d205369676e6564204d6573736167653a0a33325f52603c6004209050919050565b5f60405160011561416a578260408114614108576041811461412c575061415d565b6020850135601b8160ff1c0160205285356040528060011b60011c6060525061413d565b60408501355f1a6020526040856040375b50845f526020600160805f60015afa5191505f606052806040523d61416a575b638baa579f5f526004601cfd5b509392505050565b5f5f61417c6141e1565b90508281013560f01c915050919050565b81601452806034526fa9059cbb0000000000000000000000005f5260205f604460105f875af18060015f5114166141d757803d853b1517106141d6576390b8ec185f526004601cfd5b5b5f60345250505050565b5f600236033560f01c3603905090565b6060604051604081016040526001815282603001602082015380915050919050565b6335278d125f526004601cfd5b5f90565b5f5f61422e614220565b1561425c575f5f61423d613e7a565b91509150818051906020012093508080519060200120925050506142a3565b7f000000000000000000000000000000000000000000000000000000000000000091507f000000000000000000000000000000000000000000000000000000000000000090505b6040517f8b73c3c69bb8fe3d512ecc4cf759cc79239f7b179b0ffacaa9a75d522b39400f815282602082015281604082015246606082015230608082015260a081209250505090565b5f5f7f000000000000000000000000000000000000000000000000000000000000000090505f7f0000000000000000000000000000000000000000000000000000000000000000905080301482461416159250505090565b6040518061010001604052805f73ffffffffffffffffffffffffffffffffffffffff1681526020015f81526020015f63ffffffff1681526020015f63ffffffff1681526020015f81526020016060815260200160608152602001606081525090565b60405180606001604052806143b96144bd565b81526020015f73ffffffffffffffffffffffffffffffffffffffff1681526020015f81525090565b6040518060e001604052805f81526020015f73ffffffffffffffffffffffffffffffffffffffff1681526020015f73ffffffffffffffffffffffffffffffffffffffff1681526020015f73ffffffffffffffffffffffffffffffffffffffff1681526020015f81526020015f73ffffffffffffffffffffffffffffffffffffffff168152602001606081525090565b60405180608001604052805f81526020015f81526020015f81526020015f81525090565b60405180606001604052805f67ffffffffffffffff1681526020015f8152602001606081525090565b60405180608001604052805f73ffffffffffffffffffffffffffffffffffffffff1681526020015f73ffffffffffffffffffffffffffffffffffffffff1681526020015f65ffffffffffff1681526020015f65ffffffffffff1681525090565b5f604051905090565b5f5ffd5b5f5ffd5b5f73ffffffffffffffffffffffffffffffffffffffff82169050919050565b5f6145578261452e565b9050919050565b6145678161454d565b8114614571575f5ffd5b50565b5f813590506145828161455e565b92915050565b6145918161452e565b811461459b575f5ffd5b50565b5f813590506145ac81614588565b92915050565b5f5f604083850312156145c8576145c7614526565b5b5f6145d585828601614574565b92505060206145e68582860161459e565b9150509250929050565b5f5f6040838503121561460657614605614526565b5b5f61461385828601614574565b925050602061462485828601614574565b9150509250929050565b5f819050919050565b6146408161462e565b82525050565b5f6020820190506146595f830184614637565b92915050565b5f5ffd5b5f61010082840312156146795761467861465f565b5b81905092915050565b5f5ffd5b5f5ffd5b5f5ffd5b5f5f83601f8401126146a3576146a2614682565b5b8235905067ffffffffffffffff8111156146c0576146bf614686565b5b6020830191508360018202830111156146dc576146db61468a565b5b9250929050565b5f5f5f604084860312156146fa576146f9614526565b5b5f84013567ffffffffffffffff8111156147175761471661452a565b5b61472386828701614663565b935050602084013567ffffffffffffffff8111156147445761474361452a565b5b6147508682870161468e565b92509250509250925092565b6147658161454d565b82525050565b6147748161462e565b82525050565b5f63ffffffff82169050919050565b6147928161477a565b82525050565b5f819050919050565b6147aa81614798565b82525050565b5f81519050919050565b5f82825260208201905092915050565b5f819050602082019050919050565b608082015f8201516147ed5f8501826147a1565b506020820151614800602085018261476b565b50604082015161481360408501826147a1565b506060820151614826606085018261476b565b50505050565b5f61483783836147d9565b60808301905092915050565b5f602082019050919050565b5f614859826147b0565b61486381856147ba565b935061486e836147ca565b805f5b8381101561489e578151614885888261482c565b975061489083614843565b925050600181019050614871565b5085935050505092915050565b5f81519050919050565b5f82825260208201905092915050565b5f819050602082019050919050565b5f67ffffffffffffffff82169050919050565b6148f0816148d4565b82525050565b5f81519050919050565b5f82825260208201905092915050565b8281835e5f83830152505050565b5f601f19601f8301169050919050565b5f614938826148f6565b6149428185614900565b9350614952818560208601614910565b61495b8161491e565b840191505092915050565b5f606083015f83015161497b5f8601826148e7565b50602083015161498e60208601826147a1565b50604083015184820360408601526149a6828261492e565b9150508091505092915050565b5f6149be8383614966565b905092915050565b5f602082019050919050565b5f6149dc826148ab565b6149e681856148b5565b9350836020820285016149f8856148c5565b805f5b85811015614a335784840389528151614a1485826149b3565b9450614a1f836149c6565b925060208a019950506001810190506149fb565b50829750879550505050505092915050565b5f61010083015f830151614a5b5f86018261475c565b506020830151614a6e602086018261476b565b506040830151614a816040860182614789565b506060830151614a946060860182614789565b506080830151614aa760808601826147a1565b5060a083015184820360a0860152614abf828261484f565b91505060c083015184820360c0860152614ad9828261484f565b91505060e083015184820360e0860152614af382826149d2565b9150508091505092915050565b5f6020820190508181035f830152614b188184614a45565b905092915050565b5f60608284031215614b3557614b3461465f565b5b81905092915050565b5f60208284031215614b5357614b52614526565b5b5f82013567ffffffffffffffff811115614b7057614b6f61452a565b5b614b7c84828501614b20565b91505092915050565b5f60ff82169050919050565b614b9a81614b85565b82525050565b5f602082019050614bb35f830184614b91565b92915050565b614bc281614798565b8114614bcc575f5ffd5b50565b5f81359050614bdd81614bb9565b92915050565b5f5f5f5f5f60608688031215614bfc57614bfb614526565b5b5f614c0988828901614bcf565b955050602086013567ffffffffffffffff811115614c2a57614c2961452a565b5b614c368882890161468e565b9450945050604086013567ffffffffffffffff811115614c5957614c5861452a565b5b614c658882890161468e565b92509250509295509295909350565b5f5f5f5f5f60608688031215614c8d57614c8c614526565b5b5f86013567ffffffffffffffff811115614caa57614ca961452a565b5b614cb688828901614663565b955050602086013567ffffffffffffffff811115614cd757614cd661452a565b5b614ce38882890161468e565b9450945050604086013567ffffffffffffffff811115614d0657614d0561452a565b5b614d128882890161468e565b92509250509295509295909350565b5f7fff0000000000000000000000000000000000000000000000000000000000000082169050919050565b614d5581614d21565b82525050565b5f81519050919050565b5f82825260208201905092915050565b5f614d7f82614d5b565b614d898185614d65565b9350614d99818560208601614910565b614da28161491e565b840191505092915050565b614db68161454d565b82525050565b614dc581614798565b82525050565b5f81519050919050565b5f82825260208201905092915050565b5f819050602082019050919050565b5f614dff838361476b565b60208301905092915050565b5f602082019050919050565b5f614e2182614dcb565b614e2b8185614dd5565b9350614e3683614de5565b805f5b83811015614e66578151614e4d8882614df4565b9750614e5883614e0b565b925050600181019050614e39565b5085935050505092915050565b5f60e082019050614e865f83018a614d4c565b8181036020830152614e988189614d75565b90508181036040830152614eac8188614d75565b9050614ebb6060830187614637565b614ec86080830186614dad565b614ed560a0830185614dbc565b81810360c0830152614ee78184614e17565b905098975050505050505050565b614efe8161462e565b8114614f08575f5ffd5b50565b5f81359050614f1981614ef5565b92915050565b5f60208284031215614f3457614f33614526565b5b5f614f4184828501614f0b565b91505092915050565b5f602082019050614f5d5f830184614dad565b92915050565b5f5f83601f840112614f7857614f77614682565b5b8235905067ffffffffffffffff811115614f9557614f94614686565b5b602083019150836020820283011115614fb157614fb061468a565b5b9250929050565b5f5f60208385031215614fce57614fcd614526565b5b5f83013567ffffffffffffffff811115614feb57614fea61452a565b5b614ff785828601614f63565b92509250509250929050565b5f81519050919050565b5f82825260208201905092915050565b5f819050602082019050919050565b5f615037838361492e565b905092915050565b5f602082019050919050565b5f61505582615003565b61505f818561500d565b9350836020820285016150718561501d565b805f5b858110156150ac578484038952815161508d858261502c565b94506150988361503f565b925060208a01995050600181019050615074565b50829750879550505050505092915050565b5f6020820190508181035f8301526150d6818461504b565b905092915050565b5f602082840312156150f3576150f2614526565b5b5f61510084828501614bcf565b91505092915050565b5f61ffff82169050919050565b61511f81615109565b82525050565b5f6020820190506151385f830184615116565b92915050565b5f5ffd5b7f4e487b71000000000000000000000000000000000000000000000000000000005f52604160045260245ffd5b6151788261491e565b810181811067ffffffffffffffff8211171561519757615196615142565b5b80604052505050565b5f6151a961451d565b90506151b5828261516f565b919050565b5f5ffd5b600281106151ca575f5ffd5b50565b5f813590506151db816151be565b92915050565b600781106151ed575f5ffd5b50565b5f813590506151fe816151e1565b92915050565b5f610100828403121561521a5761521961513e565b5b6152256101006151a0565b90505f61523484828501614574565b5f830152506020615247848285016151cd565b602083015250604061525b848285016151f0565b604083015250606061526f84828501614574565b606083015250608061528384828501614574565b60808301525060a06152978482850161459e565b60a08301525060c06152ab84828501614f0b565b60c08301525060e06152bf84828501614bcf565b60e08301525092915050565b5f61010082840312156152e1576152e0614526565b5b5f6152ee84828501615204565b91505092915050565b7f4e487b71000000000000000000000000000000000000000000000000000000005f52602160045260245ffd5b5f6020828403121561533957615338614526565b5b5f61534684828501614574565b91505092915050565b6153588161452e565b82525050565b5f65ffffffffffff82169050919050565b6153788161535e565b82525050565b608082015f8201516153925f85018261475c565b5060208201516153a5602085018261534f565b5060408201516153b8604085018261536f565b5060608201516153cb606085018261536f565b50505050565b60c082015f8201516153e55f85018261537e565b5060208201516153f8608085018261475c565b50604082015161540b60a085018261476b565b50505050565b5f82825260208201905092915050565b828183375f83830152505050565b5f61543a8385615411565b9350615447838584615421565b6154508361491e565b840190509392505050565b5f6101008201905061546f5f830187614dad565b61547c60208301866153d1565b81810360e083015261548f81848661542f565b905095945050505050565b7f4e487b71000000000000000000000000000000000000000000000000000000005f52603260045260245ffd5b6154d08161452e565b82525050565b5f6020820190506154e95f8301846154c7565b92915050565b7f4e487b71000000000000000000000000000000000000000000000000000000005f52601160045260245ffd5b5f6155268261462e565b91506155318361462e565b9250828203905081811115615549576155486154ef565b5b92915050565b5f6020820190506155625f830184614dbc565b92915050565b5f8151905061557681614ef5565b92915050565b5f6020828403121561559157615590614526565b5b5f61559e84828501615568565b91505092915050565b5f6040820190506155ba5f830185614637565b6155c760208301846154c7565b9392505050565b5f5ffd5b5f5ffd5b5f5ffd5b5f5f833560016020038436030381126155f6576155f56155ce565b5b80840192508235915067ffffffffffffffff821115615618576156176155d2565b5b602083019250600182023603831315615634576156336155d6565b5b509250929050565b6156458161535e565b811461564f575f5ffd5b50565b5f813590506156608161563c565b92915050565b5f6080828403121561567b5761567a61513e565b5b61568560806151a0565b90505f61569484828501614574565b5f8301525060206156a78482850161459e565b60208301525060406156bb84828501615652565b60408301525060606156cf84828501615652565b60608301525092915050565b5f60c082840312156156f0576156ef61513e565b5b6156fa60606151a0565b90505f61570984828501615666565b5f83015250608061571c84828501614574565b60208301525060a061573084828501614f0b565b60408301525092915050565b5f5ffd5b5f67ffffffffffffffff82111561575a57615759615142565b5b6157638261491e565b9050602081019050919050565b5f61578261577d84615740565b6151a0565b90508281526020810184848401111561579e5761579d61573c565b5b6157a9848285615421565b509392505050565b5f82601f8301126157c5576157c4614682565b5b81356157d5848260208601615770565b91505092915050565b5f60e082840312156157f3576157f261513e565b5b6157fd60e06151a0565b90505f61580c84828501614bcf565b5f83015250602061581f8482850161459e565b60208301525060406158338482850161459e565b604083015250606061584784828501614574565b606083015250608061585b84828501614f0b565b60808301525060a061586f84828501614574565b60a08301525060c082013567ffffffffffffffff811115615893576158926151ba565b5b61589f848285016157b1565b60c08301525092915050565b5f5f5f61010084860312156158c3576158c2614526565b5b5f6158d0868287016151f0565b93505060206158e1868287016156db565b92505060e084013567ffffffffffffffff8111156159025761590161452a565b5b61590e868287016157de565b9150509250925092565b5f82905092915050565b5f82821b905092915050565b5f6159398383615918565b826159448135614798565b925060208210156159845761597f7fffffffffffffffffffffffffffffffffffffffffffffffffffffffffffffffff83602003600802615922565b831692505b505092915050565b5f61599a6020840184614574565b905092915050565b5f6159b06020840184614f0b565b905092915050565b6159c18161477a565b81146159cb575f5ffd5b50565b5f813590506159dc816159b8565b92915050565b5f6159f060208401846159ce565b905092915050565b5f615a066020840184614bcf565b905092915050565b5f5ffd5b5f5ffd5b5f5ffd5b5f5f83356001602003843603038112615a3657615a35615a16565b5b83810192508235915060208301925067ffffffffffffffff821115615a5e57615a5d615a0e565b5b600182023603831315615a7457615a73615a12565b5b509250929050565b5f615a878385614900565b9350615a94838584615421565b615a9d8361491e565b840190509392505050565b5f6101008301615aba5f84018461598c565b615ac65f86018261475c565b50615ad4602084018461598c565b615ae1602086018261475c565b50615aef60408401846159a2565b615afc604086018261476b565b50615b0a60608401846159a2565b615b17606086018261476b565b50615b2560808401846159e2565b615b326080860182614789565b50615b4060a08401846159e2565b615b4d60a0860182614789565b50615b5b60c08401846159f8565b615b6860c08601826147a1565b50615b7660e0840184615a1a565b85830360e0870152615b89838284615a7c565b925050508091505092915050565b5f6020820190508181035f830152615baf8184615aa8565b905092915050565b5f60208284031215615bcc57615bcb614526565b5b5f615bd9848285016159ce565b91505092915050565b5f6040820190508181035f830152615bfa8185615aa8565b9050615c096020830184614637565b9392505050565b5f60608301615c215f8401846159e2565b615c2d5f860182614789565b50615c3b60208401846159f8565b615c4860208601826147a1565b50615c566040840184615a1a565b8583036040870152615c69838284615a7c565b925050508091505092915050565b5f6020820190508181035f830152615c8f8184615c10565b905092915050565b5f6040820190508181035f830152615caf8185615c10565b9050615cbe6020830184614637565b9392505050565b60028110615cd657615cd56152f7565b5b50565b5f819050615ce682615cc5565b919050565b5f615cf582615cd9565b9050919050565b615d0581615ceb565b82525050565b60078110615d1c57615d1b6152f7565b5b50565b5f819050615d2c82615d0b565b919050565b5f615d3b82615d1f565b9050919050565b615d4b81615d31565b82525050565b5f61012082019050615d655f83018c614dbc565b615d72602083018b614dad565b615d7f604083018a615cfc565b615d8c6060830189615d42565b615d996080830188614dad565b615da660a0830187614dad565b615db360c08301866154c7565b615dc060e0830185614637565b615dce610100830184614dbc565b9a9950505050505050505050565b5f615de68261452e565b9150615df18361452e565b9250828202615dff8161452e565b91508282048414831517615e1657615e156154ef565b5b5092915050565b7f4e487b71000000000000000000000000000000000000000000000000000000005f52601260045260245ffd5b5f615e548261452e565b9150615e5f8361452e565b925082615e6f57615e6e615e1d565b5b828204905092915050565b5f81519050615e888161455e565b92915050565b5f60208284031215615ea357615ea2614526565b5b5f615eb084828501615e7a565b91505092915050565b5f608082019050615ecc5f8301876154c7565b615ed960208301866154c7565b615ee66040830185614637565b615ef36060830184614dbc565b95945050505050565b5f819050919050565b5f819050919050565b5f615f28615f23615f1e84615efc565b615f05565b61452e565b9050919050565b615f3881615f0e565b82525050565b5f608082019050615f515f8301876154c7565b615f5e6020830186615f2f565b615f6b6040830185614637565b615f786060830184614dbc565b95945050505050565b5f615f8b8261462e565b9150615f968361462e565b9250828201905080821115615fae57615fad6154ef565b5b92915050565b5f81905092915050565b5f615fc98385615fb4565b9350615fd6838584615421565b82840190509392505050565b5f615fee828486615fbe565b91508190509392505050565b6160038161477a565b82525050565b5f6101208201905061601d5f83018c614dbc565b61602a602083018b614dad565b616037604083018a614dad565b6160446060830189614637565b6160516080830188614637565b61605e60a0830187615ffa565b61606b60c0830186615ffa565b61607860e0830185614dbc565b616086610100830184614dbc565b9a9950505050505050505050565b5f6040820190506160a75f8301856154c7565b6160b46020830184614dbc565b939250505056fea264697066735822122051b2e4f18b6a497a519c354067ed4309c1528eae8803efcffa71878ba22b3f3264736f6c63430008220033",
  "contractName": "MidribV2",
  "devdoc": null,
  "storageLayout": null,
  "userdoc": null
}