{
  "abi": [
    {
      "type": "fallback",
      "stateMutability": "nonpayable"
    },
    {
      "type": "function",
      "name": "MIN_ORDER_SIZE",
      "inputs": [],
      "outputs": [
        {
          "name": "",
          "type": "uint16",
          "internalType": "uint16"
        }
      ],
      "stateMutability": "view"
    },
    {
      "type": "function",
      "name": "WITHDRAW_EPOCH",
      "inputs": [],
      "outputs": [
        {
          "name": "",
          "type": "uint256",
          "internalType": "uint256"
        }
      ],
      "stateMutability": "view"
    },
    {
      "type": "function",
      "name": "consumedFillDigests",
      "inputs": [
        {
          "name": "fillDigest",
          "type": "bytes32",
          "internalType": "bytes32"
        }
      ],
      "outputs": [
        {
          "name": "consumed",
          "type": "bool",
          "internalType": "bool"
        }
      ],
      "stateMutability": "view"
    },
    {
      "type": "function",
      "name": "deposit",
      "inputs": [
        {
          "name": "_token",
          "type": "address",
          "internalType": "address"
        },
        {
          "name": "_amount",
          "type": "uint160",
          "internalType": "uint160"
        }
      ],
      "outputs": [],
      "stateMutability": "nonpayable"
    },
    {
      "type": "function",
      "name": "destinationSettlers",
      "inputs": [
        {
          "name": "chainId",
          "type": "uint256",
          "internalType": "uint256"
        }
      ],
      "outputs": [
        {
          "name": "settler",
          "type": "address",
          "internalType": "address"
        }
      ],
      "stateMutability": "view"
    },
    {
      "type": "function",
      "name": "eip712Domain",
      "inputs": [],
      "outputs": [
        {
          "name": "fields",
          "type": "bytes1",
          "internalType": "bytes1"
        },
        {
          "name": "name",
          "type": "string",
          "internalType": "string"
        },
        {
          "name": "version",
          "type": "string",
          "internalType": "string"
        },
        {
          "name": "chainId",
          "type": "uint256",
          "internalType": "uint256"
        },
        {
          "name": "verifyingContract",
          "type": "address",
          "internalType": "address"
        },
        {
          "name": "salt",
          "type": "bytes32",
          "internalType": "bytes32"
        },
        {
          "name": "extensions",
          "type": "uint256[]",
          "internalType": "uint256[]"
        }
      ],
      "stateMutability": "view"
    },
    {
      "type": "function",
      "name": "factory",
      "inputs": [],
      "outputs": [
        {
          "name": "_factory",
          "type": "address",
          "internalType": "address"
        }
      ],
      "stateMutability": "pure"
    },
    {
      "type": "function",
      "name": "fill",
      "inputs": [
        {
          "name": "_orderId",
          "type": "bytes32",
          "internalType": "bytes32"
        },
        {
          "name": "_originData",
          "type": "bytes",
          "internalType": "bytes"
        },
        {
          "name": "_fillerData",
          "type": "bytes",
          "internalType": "bytes"
        }
      ],
      "outputs": [],
      "stateMutability": "nonpayable"
    },
    {
      "type": "function",
      "name": "lockedTradeBalance",
      "inputs": [
        {
          "name": "holder",
          "type": "address",
          "internalType": "address"
        },
        {
          "name": "token",
          "type": "address",
          "internalType": "address"
        }
      ],
      "outputs": [
        {
          "name": "amount",
          "type": "uint256",
          "internalType": "uint256"
        }
      ],
      "stateMutability": "view"
    },
    {
      "type": "function",
      "name": "multicall",
      "inputs": [
        {
          "name": "data",
          "type": "bytes[]",
          "internalType": "bytes[]"
        }
      ],
      "outputs": [
        {
          "name": "",
          "type": "bytes[]",
          "internalType": "bytes[]"
        }
      ],
      "stateMutability": "payable"
    },
    {
      "type": "function",
      "name": "open",
      "inputs": [
        {
          "name": "_order",
          "type": "tuple",
          "internalType": "struct OnchainCrossChainOrder",
          "components": [
            {
              "name": "fillDeadline",
              "type": "uint32",
              "internalType": "uint32"
            },
            {
              "name": "orderDataType",
              "type": "bytes32",
              "internalType": "bytes32"
            },
            {
              "name": "orderData",
              "type": "bytes",
              "internalType": "bytes"
            }
          ]
        }
      ],
      "outputs": [],
      "stateMutability": "nonpayable"
    },
    {
      "type": "function",
      "name": "openFor",
      "inputs": [
        {
          "name": "_order",
          "type": "tuple",
          "internalType": "struct GaslessCrossChainOrder",
          "components": [
            {
              "name": "originSettler",
              "type": "address",
              "internalType": "address"
            },
            {
              "name": "user",
              "type": "address",
              "internalType": "address"
            },
            {
              "name": "nonce",
              "type": "uint256",
              "internalType": "uint256"
            },
            {
              "name": "originChainId",
              "type": "uint256",
              "internalType": "uint256"
            },
            {
              "name": "openDeadline",
              "type": "uint32",
              "internalType": "uint32"
            },
            {
              "name": "fillDeadline",
              "type": "uint32",
              "internalType": "uint32"
            },
            {
              "name": "orderDataType",
              "type": "bytes32",
              "internalType": "bytes32"
            },
            {
              "name": "orderData",
              "type": "bytes",
              "internalType": "bytes"
            }
          ]
        },
        {
          "name": "_signature",
          "type": "bytes",
          "internalType": "bytes"
        },
        {
          "name": "_originFillerData",
          "type": "bytes",
          "internalType": "bytes"
        }
      ],
      "outputs": [],
      "stateMutability": "nonpayable"
    },
    {
      "type": "function",
      "name": "owner",
      "inputs": [],
      "outputs": [
        {
          "name": "_factory",
          "type": "address",
          "internalType": "address"
        }
      ],
      "stateMutability": "pure"
    },
    {
      "type": "function",
      "name": "resolve",
      "inputs": [
        {
          "name": "_order",
          "type": "tuple",
          "internalType": "struct OnchainCrossChainOrder",
          "components": [
            {
              "name": "fillDeadline",
              "type": "uint32",
              "internalType": "uint32"
            },
            {
              "name": "orderDataType",
              "type": "bytes32",
              "internalType": "bytes32"
            },
            {
              "name": "orderData",
              "type": "bytes",
              "internalType": "bytes"
            }
          ]
        }
      ],
      "outputs": [
        {
          "name": "_resolvedOrder",
          "type": "tuple",
          "internalType": "struct ResolvedCrossChainOrder",
          "components": [
            {
              "name": "user",
              "type": "address",
              "internalType": "address"
            },
            {
              "name": "originChainId",
              "type": "uint256",
              "internalType": "uint256"
            },
            {
              "name": "openDeadline",
              "type": "uint32",
              "internalType": "uint32"
            },
            {
              "name": "fillDeadline",
              "type": "uint32",
              "internalType": "uint32"
            },
            {
              "name": "orderId",
              "type": "bytes32",
              "internalType": "bytes32"
            },
            {
              "name": "maxSpent",
              "type": "tuple[]",
              "internalType": "struct Output[]",
              "components": [
                {
                  "name": "token",
                  "type": "bytes32",
                  "internalType": "bytes32"
                },
                {
                  "name": "amount",
                  "type": "uint256",
                  "internalType": "uint256"
                },
                {
                  "name": "recipient",
                  "type": "bytes32",
                  "internalType": "bytes32"
                },
                {
                  "name": "chainId",
                  "type": "uint256",
                  "internalType": "uint256"
                }
              ]
            },
            {
              "name": "minReceived",
              "type": "tuple[]",
              "internalType": "struct Output[]",
              "components": [
                {
                  "name": "token",
                  "type": "bytes32",
                  "internalType": "bytes32"
                },
                {
                  "name": "amount",
                  "type": "uint256",
                  "internalType": "uint256"
                },
                {
                  "name": "recipient",
                  "type": "bytes32",
                  "internalType": "bytes32"
                },
                {
                  "name": "chainId",
                  "type": "uint256",
                  "internalType": "uint256"
                }
              ]
            },
            {
              "name": "fillInstructions",
              "type": "tuple[]",
              "internalType": "struct FillInstruction[]",
              "components": [
                {
                  "name": "destinationChainId",
                  "type": "uint64",
                  "internalType": "uint64"
                },
                {
                  "name": "destinationSettler",
                  "type": "bytes32",
                  "internalType": "bytes32"
                },
                {
                  "name": "originData",
                  "type": "bytes",
                  "internalType": "bytes"
                }
              ]
            }
          ]
        }
      ],
      "stateMutability": "view"
    },
    {
      "type": "function",
      "name": "resolveFor",
      "inputs": [
        {
          "name": "_order",
          "type": "tuple",
          "internalType": "struct GaslessCrossChainOrder",
          "components": [
            {
              "name": "originSettler",
              "type": "address",
              "internalType": "address"
            },
            {
              "name": "user",
              "type": "address",
              "internalType": "address"
            },
            {
              "name": "nonce",
              "type": "uint256",
              "internalType": "uint256"
            },
            {
              "name": "originChainId",
              "type": "uint256",
              "internalType": "uint256"
            },
            {
              "name": "openDeadline",
              "type": "uint32",
              "internalType": "uint32"
            },
            {
              "name": "fillDeadline",
              "type": "uint32",
              "internalType": "uint32"
            },
            {
              "name": "orderDataType",
              "type": "bytes32",
              "internalType": "bytes32"
            },
            {
              "name": "orderData",
              "type": "bytes",
              "internalType": "bytes"
            }
          ]
        },
        {
          "name": "_originFillerData",
          "type": "bytes",
          "internalType": "bytes"
        }
      ],
      "outputs": [
        {
          "name": "_resolvedOrder",
          "type": "tuple",
          "internalType": "struct ResolvedCrossChainOrder",
          "components": [
            {
              "name": "user",
              "type": "address",
              "internalType": "address"
            },
            {
              "name": "originChainId",
              "type": "uint256",
              "internalType": "uint256"
            },
            {
              "name": "openDeadline",
              "type": "uint32",
              "internalType": "uint32"
            },
            {
              "name": "fillDeadline",
              "type": "uint32",
              "internalType": "uint32"
            },
            {
              "name": "orderId",
              "type": "bytes32",
              "internalType": "bytes32"
            },
            {
              "name": "maxSpent",
              "type": "tuple[]",
              "internalType": "struct Output[]",
              "components": [
                {
                  "name": "token",
                  "type": "bytes32",
                  "internalType": "bytes32"
                },
                {
                  "name": "amount",
                  "type": "uint256",
                  "internalType": "uint256"
                },
                {
                  "name": "recipient",
                  "type": "bytes32",
                  "internalType": "bytes32"
                },
                {
                  "name": "chainId",
                  "type": "uint256",
                  "internalType": "uint256"
                }
              ]
            },
            {
              "name": "minReceived",
              "type": "tuple[]",
              "internalType": "struct Output[]",
              "components": [
                {
                  "name": "token",
                  "type": "bytes32",
                  "internalType": "bytes32"
                },
                {
                  "name": "amount",
                  "type": "uint256",
                  "internalType": "uint256"
                },
                {
                  "name": "recipient",
                  "type": "bytes32",
                  "internalType": "bytes32"
                },
                {
                  "name": "chainId",
                  "type": "uint256",
                  "internalType": "uint256"
                }
              ]
            },
            {
              "name": "fillInstructions",
              "type": "tuple[]",
              "internalType": "struct FillInstruction[]",
              "components": [
                {
                  "name": "destinationChainId",
                  "type": "uint64",
                  "internalType": "uint64"
                },
                {
                  "name": "destinationSettler",
                  "type": "bytes32",
                  "internalType": "bytes32"
                },
                {
                  "name": "originData",
                  "type": "bytes",
                  "internalType": "bytes"
                }
              ]
            }
          ]
        }
      ],
      "stateMutability": "view"
    },
    {
      "type": "function",
      "name": "setDestinationSettler",
      "inputs": [
        {
          "name": "_chainId",
          "type": "uint256",
          "internalType": "uint256"
        },
        {
          "name": "_settler",
          "type": "address",
          "internalType": "address"
        }
      ],
      "outputs": [],
      "stateMutability": "nonpayable"
    },
    {
      "type": "function",
      "name": "setWithdrawEpochCap",
      "inputs": [
        {
          "name": "_token",
          "type": "address",
          "internalType": "address"
        },
        {
          "name": "_cap",
          "type": "uint256",
          "internalType": "uint256"
        }
      ],
      "outputs": [],
      "stateMutability": "nonpayable"
    },
    {
      "type": "function",
      "name": "settleBatch",
      "inputs": [
        {
          "name": "_deltas",
          "type": "tuple[]",
          "internalType": "struct MidribV2.SettleDelta[]",
          "components": [
            {
              "name": "user",
              "type": "address",
              "internalType": "address"
            },
            {
              "name": "token",
              "type": "address",
              "internalType": "address"
            },
            {
              "name": "delta",
              "type": "int256",
              "internalType": "int256"
            }
          ]
        },
        {
          "name": "_nonce",
          "type": "uint256",
          "internalType": "uint256"
        },
        {
          "name": "_signature",
          "type": "bytes",
          "internalType": "bytes"
        }
      ],
      "outputs": [],
      "stateMutability": "nonpayable"
    },
    {
      "type": "function",
      "name": "tradeBalance",
      "inputs": [
        {
          "name": "holder",
          "type": "address",
          "internalType": "address"
        },
        {
          "name": "token",
          "type": "address",
          "internalType": "address"
        }
      ],
      "outputs": [
        {
          "name": "amount",
          "type": "uint256",
          "internalType": "uint256"
        }
      ],
      "stateMutability": "view"
    },
    {
      "type": "function",
      "name": "unlockForCanceledOrder",
      "inputs": [
        {
          "name": "_orderId",
          "type": "bytes32",
          "internalType": "bytes32"
        }
      ],
      "outputs": [],
      "stateMutability": "nonpayable"
    },
    {
      "type": "function",
      "name": "usedGaslessNonces",
      "inputs": [
        {
          "name": "user",
          "type": "address",
          "internalType": "address"
        },
        {
          "name": "nonce",
          "type": "uint256",
          "internalType": "uint256"
        }
      ],
      "outputs": [
        {
          "name": "used",
          "type": "bool",
          "internalType": "bool"
        }
      ],
      "stateMutability": "view"
    },
    {
      "type": "function",
      "name": "usedSettleNonces",
      "inputs": [
        {
          "name": "nonce",
          "type": "uint256",
          "internalType": "uint256"
        }
      ],
      "outputs": [
        {
          "name": "used",
          "type": "bool",
          "internalType": "bool"
        }
      ],
      "stateMutability": "view"
    },
    {
      "type": "function",
      "name": "usedWithdrawNonces",
      "inputs": [
        {
          "name": "account",
          "type": "address",
          "internalType": "address"
        },
        {
          "name": "nonce",
          "type": "uint256",
          "internalType": "uint256"
        }
      ],
      "outputs": [
        {
          "name": "used",
          "type": "bool",
          "internalType": "bool"
        }
      ],
      "stateMutability": "view"
    },
    {
      "type": "function",
      "name": "version",
      "inputs": [],
      "outputs": [
        {
          "name": "_version",
          "type": "uint8",
          "internalType": "uint8"
        }
      ],
      "stateMutability": "pure"
    },
    {
      "type": "function",
      "name": "withdraw",
      "inputs": [
        {
          "name": "_v",
          "type": "tuple",
          "internalType": "struct MidribV2.WithdrawalVoucher",
          "components": [
            {
              "name": "account",
              "type": "address",
              "internalType": "address"
            },
            {
              "name": "token",
              "type": "address",
              "internalType": "address"
            },
            {
              "name": "amount",
              "type": "uint256",
              "internalType": "uint256"
            },
            {
              "name": "nonce",
              "type": "uint256",
              "internalType": "uint256"
            },
            {
              "name": "expiry",
              "type": "uint256",
              "internalType": "uint256"
            }
          ]
        },
        {
          "name": "_signature",
          "type": "bytes",
          "internalType": "bytes"
        }
      ],
      "outputs": [],
      "stateMutability": "nonpayable"
    },
    {
      "type": "function",
      "name": "withdrawEpochCap",
      "inputs": [
        {
          "name": "token",
          "type": "address",
          "internalType": "address"
        }
      ],
      "outputs": [
        {
          "name": "cap",
          "type": "uint256",
          "internalType": "uint256"
        }
      ],
      "stateMutability": "view"
    },
    {
      "type": "function",
      "name": "withdrawnInEpoch",
      "inputs": [
        {
          "name": "token",
          "type": "address",
          "internalType": "address"
        },
        {
          "name": "epoch",
          "type": "uint256",
          "internalType": "uint256"
        }
      ],
      "outputs": [
        {
          "name": "amount",
          "type": "uint256",
          "internalType": "uint256"
        }
      ],
      "stateMutability": "view"
    },
    {
      "type": "event",
      "name": "DestinationSettlerSet",
      "inputs": [
        {
          "name": "chainId",
          "type": "uint256",
          "indexed": true,
          "internalType": "uint256"
        },
        {
          "name": "oldSettler",
          "type": "address",
          "indexed": true,
          "internalType": "address"
        },
        {
          "name": "newSettler",
          "type": "address",
          "indexed": true,
          "internalType": "address"
        }
      ],
      "anonymous": false
    },
    {
      "type": "event",
      "name": "LockedForOrder",
      "inputs": [
        {
          "name": "user",
          "type": "address",
          "indexed": true,
          "internalType": "address"
        },
        {
          "name": "tokenContract",
          "type": "address",
          "indexed": true,
          "internalType": "address"
        },
        {
          "name": "amount",
          "type": "uint160",
          "indexed": false,
          "internalType": "uint160"
        },
        {
          "name": "erc7683Id",
          "type": "bytes32",
          "indexed": false,
          "internalType": "bytes32"
        }
      ],
      "anonymous": false
    },
    {
      "type": "event",
      "name": "NetSettled",
      "inputs": [
        {
          "name": "user",
          "type": "address",
          "indexed": true,
          "internalType": "address"
        },
        {
          "name": "tokenContract",
          "type": "address",
          "indexed": true,
          "internalType": "address"
        },
        {
          "name": "delta",
          "type": "int256",
          "indexed": false,
          "internalType": "int256"
        }
      ],
      "anonymous": false
    },
    {
      "type": "event",
      "name": "Open",
      "inputs": [
        {
          "name": "orderId",
          "type": "bytes32",
          "indexed": true,
          "internalType": "bytes32"
        },
        {
          "name": "resolvedOrder",
          "type": "tuple",
          "indexed": false,
          "internalType": "struct ResolvedCrossChainOrder",
          "components": [
            {
              "name": "user",
              "type": "address",
              "internalType": "address"
            },
            {
              "name": "originChainId",
              "type": "uint256",
              "internalType": "uint256"
            },
            {
              "name": "openDeadline",
              "type": "uint32",
              "internalType": "uint32"
            },
            {
              "name": "fillDeadline",
              "type": "uint32",
              "internalType": "uint32"
            },
            {
              "name": "orderId",
              "type": "bytes32",
              "internalType": "bytes32"
            },
            {
              "name": "maxSpent",
              "type": "tuple[]",
              "internalType": "struct Output[]",
              "components": [
                {
                  "name": "token",
                  "type": "bytes32",
                  "internalType": "bytes32"
                },
                {
                  "name": "amount",
                  "type": "uint256",
                  "internalType": "uint256"
                },
                {
                  "name": "recipient",
                  "type": "bytes32",
                  "internalType": "bytes32"
                },
                {
                  "name": "chainId",
                  "type": "uint256",
                  "internalType": "uint256"
                }
              ]
            },
            {
              "name": "minReceived",
              "type": "tuple[]",
              "internalType": "struct Output[]",
              "components": [
                {
                  "name": "token",
                  "type": "bytes32",
                  "internalType": "bytes32"
                },
                {
                  "name": "amount",
                  "type": "uint256",
                  "internalType": "uint256"
                },
                {
                  "name": "recipient",
                  "type": "bytes32",
                  "internalType": "bytes32"
                },
                {
                  "name": "chainId",
                  "type": "uint256",
                  "internalType": "uint256"
                }
              ]
            },
            {
              "name": "fillInstructions",
              "type": "tuple[]",
              "internalType": "struct FillInstruction[]",
              "components": [
                {
                  "name": "destinationChainId",
                  "type": "uint64",
                  "internalType": "uint64"
                },
                {
                  "name": "destinationSettler",
                  "type": "bytes32",
                  "internalType": "bytes32"
                },
                {
                  "name": "originData",
                  "type": "bytes",
                  "internalType": "bytes"
                }
              ]
            }
          ]
        }
      ],
      "anonymous": false
    },
    {
      "type": "event",
      "name": "OrderCanceled",
      "inputs": [
        {
          "name": "erc7683Id",
          "type": "bytes32",
          "indexed": false,
          "internalType": "bytes32"
        }
      ],
      "anonymous": false
    },
    {
      "type": "event",
      "name": "TokenDeposited",
      "inputs": [
        {
          "name": "user",
          "type": "address",
          "indexed": true,
          "internalType": "address"
        },
        {
          "name": "tokenContract",
          "type": "address",
          "indexed": true,
          "internalType": "address"
        },
        {
          "name": "amount",
          "type": "uint160",
          "indexed": false,
          "internalType": "uint160"
        }
      ],
      "anonymous": false
    },
    {
      "type": "event",
      "name": "TokenWithdrawn",
      "inputs": [
        {
          "name": "user",
          "type": "address",
          "indexed": true,
          "internalType": "address"
        },
        {
          "name": "tokenContract",
          "type": "address",
          "indexed": true,
          "internalType": "address"
        },
        {
          "name": "amount",
          "type": "uint160",
          "indexed": false,
          "internalType": "uint160"
        }
      ],
      "anonymous": false
    },
    {
      "type": "event",
      "name": "TradeSettled",
      "inputs": [
        {
          "name": "maker",
          "type": "address",
          "indexed": true,
          "internalType": "address"
        },
        {
          "name": "taker",
          "type": "address",
          "indexed": true,
          "internalType": "address"
        },
        {
          "name": "amount",
          "type": "uint160",
          "indexed": false,
          "internalType": "uint160"
        },
        {
          "name": "fees",
          "type": "uint160",
          "indexed": false,
          "internalType": "uint160"
        },
        {
          "name": "repaymentChainId",
          "type": "uint256",
          "indexed": false,
          "internalType": "uint256"
        },
        {
          "name": "erc7683Id",
          "type": "bytes32",
          "indexed": false,
          "internalType": "bytes32"
        }
      ],
      "anonymous": false
    },
    {
      "type": "event",
      "name": "UnlockedForCanceledOrder",
      "inputs": [
        {
          "name": "erc7683Id",
          "type": "bytes32",
          "indexed": false,
          "internalType": "bytes32"
        }
      ],
      "anonymous": false
    },
    {
      "type": "event",
      "name": "Withdrawn",
      "inputs": [
        {
          "name": "account",
          "type": "address",
          "indexed": true,
          "internalType": "address"
        },
        {
          "name": "tokenContract",
          "type": "address",
          "indexed": true,
          "internalType": "address"
        },
        {
          "name": "amount",
          "type": "uint256",
          "indexed": false,
          "internalType": "uint256"
        },
        {
          "name": "nonce",
          "type": "uint256",
          "indexed": false,
          "internalType": "uint256"
        }
      ],
      "anonymous": false
    },
    {
      "type": "error",
      "name": "BLOCK_NOT_CONFIRMED",
      "inputs": []
    },
    {
      "type": "error",
      "name": "FILL_ALREADY_CONSUMED",
      "inputs": []
    },
    {
      "type": "error",
      "name": "GASLESS_NONCE_ALREADY_USED",
      "inputs": []
    },
    {
      "type": "error",
      "name": "INSUFFICIENT_AVAILABLE_BALANCE",
      "inputs": []
    },
    {
      "type": "error",
      "name": "INSUFFICIENT_BALANCE",
      "inputs": [
        {
          "name": "available",
          "type": "uint256",
          "internalType": "uint256"
        },
        {
          "name": "required",
          "type": "uint160",
          "internalType": "uint160"
        }
      ]
    },
    {
      "type": "error",
      "name": "INVALID_INTENT",
      "inputs": []
    },
    {
      "type": "error",
      "name": "INVALID_SIGNER",
      "inputs": []
    },
    {
      "type": "error",
      "name": "MINIMUM_ORDER_AMOUNT",
      "inputs": [
        {
          "name": "amount",
          "type": "uint160",
          "internalType": "uint160"
        }
      ]
    },
    {
      "type": "error",
      "name": "OPEN_DEADLINE_EXPIRED",
      "inputs": []
    },
    {
      "type": "error",
      "name": "ORDER_ALREADY_CANCELED",
      "inputs": []
    },
    {
      "type": "error",
      "name": "ORDER_ALREADY_EXISTS",
      "inputs": [
        {
          "name": "erc7683Id",
          "type": "bytes32",
          "internalType": "bytes32"
        }
      ]
    },
    {
      "type": "error",
      "name": "ORDER_DOES_NOT_EXIST",
      "inputs": []
    },
    {
      "type": "error",
      "name": "ORDER_ID_MISMATCH",
      "inputs": []
    },
    {
      "type": "error",
      "name": "ORDER_LARGER_THAN_LOCKED_BALANCE",
      "inputs": []
    },
    {
      "type": "error",
      "name": "ORDER_NOT_CANCELED",
      "inputs": []
    },
    {
      "type": "error",
      "name": "Reentrancy",
      "inputs": []
    },
    {
      "type": "error",
      "name": "SETTLE_NONCE_ALREADY_USED",
      "inputs": []
    },
    {
      "type": "error",
      "name": "SETTLE_NOT_CONSERVED",
      "inputs": []
    },
    {
      "type": "error",
      "name": "UNAUTHORIZED_CALLER",
      "inputs": []
    },
    {
      "type": "error",
      "name": "WITHDRAW_NONCE_ALREADY_USED",
      "inputs": []
    },
    {
      "type": "error",
      "name": "WITHDRAW_RATE_LIMITED",
      "inputs": [
        {
          "name": "cap",
          "type": "uint256",
          "internalType": "uint256"
        },
        {
          "name": "attempted",
          "type": "uint256",
          "internalType": "uint256"
        }
      ]
    },
    {
      "type": "error",
      "name": "WITHDRAW_VOUCHER_EXPIRED",
      "inputs": []
    },
    {
      "type": "error",
      "name": "ZERO_AMOUNT",
      "inputs": []
    }
  ],
  "assembly": null,
  "bytecode": {
    "object": "0x61012060405234801561001157600080fd5b50306080524660a05260608061002561008e565b815160209283012081519183019190912060c082905260e0819052604080517f8b73c3c69bb8fe3d512ecc4cf759cc79239f7b179b0ffacaa9a75d522b39400f8152938401929092529082015246606082015230608082015260a0902061010052506100dc9050565b60408051808201909152600681526526b4b23934b160d11b602082015260606100b760026100bd565b90509091565b6060604051604081016040526001815282603001602082015392915050565b60805160a05160c05160e051610100516154e46101206000396000614207015260006142c10152600061429b0152600061424b0152600061422801526154e46000f3fe6080604052600436106101ac5760003560e01c806376ec433e116100ec5780638da5cb5b1161008a578063b9afd4b911610064578063b9afd4b914610598578063c45a0155146105b8578063d3f82d8e146105dd578063e917a9621461060557600080fd5b80638da5cb5b1461051b578063a82754611461053d578063ac9650d81461057857600080fd5b8063844fac8e116100c6578063844fac8e1461044a57806384b0196e1461046a578063892d16be146104925780638d7b2227146104cd57600080fd5b806376ec433e146103d25780637e8d29d6146103f257806382e2c43f1461042a57600080fd5b8063426aabc21161015957806354fd4d501161013357806354fd4d501461034857806362fe8ee114610364578063717653a01461037a578063742960c11461039a57600080fd5b8063426aabc2146102cb5780634565fe4a146102f85780634e5c6e4e1461032857600080fd5b806322bcd51a1161018a57806322bcd51a1461025e5780632d2cfb661461028b57806341b477dd146102ab57600080fd5b806303fde255146101b157806318e2fde9146101d357806319d5f0c314610218575b600080fd5b3480156101bd57600080fd5b506101d16101cc366004614419565b610625565b005b3480156101df57600080fd5b506102036101ee366004614452565b60056020526000908152604090205460ff1681565b60405190151581526020015b60405180910390f35b34801561022457600080fd5b50610250610233366004614419565b600260209081526000928352604080842090915290825290205481565b60405190815260200161020f565b34801561026a57600080fd5b5061027e6102793660046144cd565b61066b565b60405161020f919061466a565b34801561029757600080fd5b506101d16102a6366004614724565b6106e0565b3480156102b757600080fd5b5061027e6102c6366004614750565b610744565b3480156102d757600080fd5b506102506102e6366004614792565b60096020526000908152604090205481565b34801561030457600080fd5b50610203610313366004614452565b60076020526000908152604090205460ff1681565b34801561033457600080fd5b506101d16103433660046147af565b6107b5565b34801561035457600080fd5b506040516002815260200161020f565b34801561037057600080fd5b50610250610e1081565b34801561038657600080fd5b506101d16103953660046147f1565b610b06565b3480156103a657600080fd5b506102506103b5366004614724565b600a60209081526000928352604080842090915290825290205481565b3480156103de57600080fd5b506101d16103ed366004614816565b610bc4565b3480156103fe57600080fd5b5061025061040d366004614419565b600360209081526000928352604080842090915290825290205481565b34801561043657600080fd5b506101d16104453660046148c7565b610fb3565b34801561045657600080fd5b506101d1610465366004614929565b611243565b34801561047657600080fd5b5061047f6115b6565b60405161020f9796959493929190614981565b34801561049e57600080fd5b506102036104ad366004614724565b600860209081526000928352604080842090915290825290205460ff1681565b3480156104d957600080fd5b506105036104e8366004614452565b6004602052600090815260409020546001600160a01b031681565b6040516001600160a01b03909116815260200161020f565b34801561052757600080fd5b503660011981013560f01c90033560601c610503565b34801561054957600080fd5b50610203610558366004614724565b600660209081526000928352604080842090915290825290205460ff1681565b61058b610586366004614a35565b6115f9565b60405161020f9190614aac565b3480156105a457600080fd5b506101d16105b3366004614452565b61161e565b3480156105c457600080fd5b503660011981013560f01c90036014013560601c610503565b3480156105e957600080fd5b506105f2600a81565b60405161ffff909116815260200161020f565b34801561061157600080fd5b506101d1610620366004614750565b611919565b3068929eee149b4bd2126854036106445763ab143c066000526004601cfd5b3068929eee149b4bd212685561065b338383611ab0565b3868929eee149b4bd21268555050565b6106cb60405180610100016040528060006001600160a01b0316815260200160008152602001600063ffffffff168152602001600063ffffffff168152602001600080191681526020016060815260200160608152602001606081525090565b6106d6848484611d86565b9695505050505050565b3660011981013560f01c90033560601c3314610728576040517fe15e56c900000000000000000000000000000000000000000000000000000000815260040160405180910390fd5b6001600160a01b03909116600090815260096020526040902055565b6107a460405180610100016040528060006001600160a01b0316815260200160008152602001600063ffffffff168152602001600063ffffffff168152602001600080191681526020016060815260200160608152602001606081525090565b6107ad8261216a565b949350505050565b3068929eee149b4bd2126854036107d45763ab143c066000526004601cfd5b3068929eee149b4bd21268556107eb83838361251f565b8260800135421115610829576040517fcfb1238700000000000000000000000000000000000000000000000000000000815260040160405180910390fd5b6008600061083a6020860186614792565b6001600160a01b03168152602080820192909252604090810160009081206060870135825290925290205460ff161561089f576040517f2152b76d00000000000000000000000000000000000000000000000000000000815260040160405180910390fd5b6001600860006108b26020870187614792565b6001600160a01b0316815260208082019290925260409081016000908120606088013582528352908120805460ff19169315159390931790925560029082906108fd90870187614792565b6001600160a01b03166001600160a01b0316815260200190815260200160002060008560200160208101906109329190614792565b6001600160a01b03166001600160a01b0316815260200190815260200160002054905080846040013511156109b8578061096f8560400135612667565b6040517ff075336700000000000000000000000000000000000000000000000000000000815260048101929092526001600160a01b031660248201526044015b60405180910390fd5b6109d56109cb6040860160208701614792565b8560400135612691565b6109e3604085013582614b5e565b600260006109f46020880188614792565b6001600160a01b03166001600160a01b031681526020019081526020016000206000866020016020810190610a299190614792565b6001600160a01b0316815260208082019290925260400160002091909155610a7b90610a5790860186614792565b60408601803590610a6b9060208901614792565b6001600160a01b03169190612769565b610a8b6040850160208601614792565b6001600160a01b0316610aa16020860186614792565b6001600160a01b03167f91fb9d98b786c57d74c099ccd2beca1739e9f6a81fb49001ca465c4b7591bbe286604001358760600135604051610aec929190918252602082015260400190565b60405180910390a3503868929eee149b4bd2126855505050565b3660011981013560f01c90033560601c3314610b4e576040517fe15e56c900000000000000000000000000000000000000000000000000000000815260040160405180910390fd5b60008281526004602052604080822080547fffffffffffffffffffffffff000000000000000000000000000000000000000081166001600160a01b038681169182179093559251911692839186917f26d6df0348ebeb28206400947b117b5e650404f607b1c272f84b52d45592556691a4505050565b3068929eee149b4bd212685403610be35763ab143c066000526004601cfd5b3068929eee149b4bd2126855610bfc85858585856127c2565b60008381526007602052604090205460ff1615610c45576040517f539110c900000000000000000000000000000000000000000000000000000000815260040160405180910390fd5b6000838152600760205260408120805460ff1916600117905584905b81811015610dc9576000878783818110610c7d57610c7d614b71565b9050606002016020016020810190610c959190614792565b9050600160005b83811015610cf757826001600160a01b03168a8a83818110610cc057610cc0614b71565b9050606002016020016020810190610cd89190614792565b6001600160a01b031603610cef5760009150610cf7565b600101610c9c565b5080610d04575050610dc1565b6000805b85811015610d8457836001600160a01b03168b8b83818110610d2c57610d2c614b71565b9050606002016020016020810190610d449190614792565b6001600160a01b031603610d7c578a8a82818110610d6457610d64614b71565b9050606002016040013582610d799190614ba0565b91505b600101610d08565b508015610dbd576040517f053b624b00000000000000000000000000000000000000000000000000000000815260040160405180910390fd5b5050505b600101610c61565b5060005b81811015610f9e5736878783818110610de857610de8614b71565b60600291909101915060009050600281610e056020850185614792565b6001600160a01b03166001600160a01b031681526020019081526020016000206000836020016020810190610e3a9190614792565b6001600160a01b03166001600160a01b031681526020019081526020016000205490506000826040013582610e6f9190614ba0565b90506000811215610eb6576040517ff075336700000000000000000000000000000000000000000000000000000000815260048101839052600060248201526044016109af565b8060026000610ec86020870187614792565b6001600160a01b03166001600160a01b031681526020019081526020016000206000856020016020810190610efd9190614792565b6001600160a01b03166001600160a01b0316815260200190815260200160002081905550826020016020810190610f349190614792565b6001600160a01b0316610f4a6020850185614792565b6001600160a01b03167fcb92bc64cc5c68703b92c9fcf4b3a37a69be04873e614837f8aeacfa8589e8f58560400135604051610f8891815260200190565b60405180910390a3505050806001019050610dcd565b50503868929eee149b4bd21268555050505050565b3068929eee149b4bd212685403610fd25763ab143c066000526004601cfd5b3068929eee149b4bd21268556000610fec84860186614ca8565b90508060e00151861461102b576040517fe2f98aa000000000000000000000000000000000000000000000000000000000815260040160405180910390fd5b60006110388285856128ea565b60008181526005602052604090205490915060ff1615611084576040517f6fb87abb00000000000000000000000000000000000000000000000000000000815260040160405180910390fd5b60008181526005602052604090819020805460ff1916600117905582015160039060068111156110b6576110b6614d44565b60ff1610156110f1576040517f3cf5125f00000000000000000000000000000000000000000000000000000000815260040160405180910390fd5b60058260400151600681111561110957611109614d44565b60ff1610156111e55760008260200151600181111561112a5761112a614d44565b0361117e5760608201516080830151835160a085015160c086015161117994939291908c60048960400151600681111561116657611166614d44565b14611172576000612a0e565b6001612a0e565b610f9e565b60018260200151600181111561119657611196614d44565b036111795760608201516080830151835160a085015160c086015161117994939291908c6004896040015160068111156111d2576111d2614d44565b146111de576000612fbe565b6001612fbe565b6005826040015160068111156111fd576111fd614d44565b0361121957611179826060015183600001518460a0015161338f565b60068260400151600681111561123157611231614d44565b03610f9e57610f9e8260e001516135b8565b3068929eee149b4bd2126854036112625763ab143c066000526004601cfd5b3068929eee149b4bd212685561127e60a0860160808701614d87565b63ffffffff164211156112bd576040517f2ca6700100000000000000000000000000000000000000000000000000000000815260040160405180910390fd5b60008060006112cd888686611d86565b9194509250905060028360068111156112e8576112e8614d44565b14611453573660011981013560f01c90036028013560601c632b67b57061131560408b0160208c01614792565b848a8a6040518563ffffffff1660e01b81526004016113379493929190614dcd565b600060405180830381600087803b15801561135157600080fd5b505af1158015611365573d6000803e3d6000fd5b5060019250611372915050565b83600681111561138457611384614d44565b03611413576113d261139c60408a0160208b01614792565b8351805160209091015160c085015180516000906113bc576113bc614b71565b6020026020010151602001518560800151613720565b80608001517fa576d0af275d0c6207ef43ceee8c498a5d7a26b8157a32d3fdf361e64371628c82604051611406919061466a565b60405180910390a26115a0565b600083600681111561142757611427614d44565b0361144e5761144e61143f60408a0160208b01614792565b83518051602090910151611ab0565b6115a0565b600283600681111561146757611467614d44565b036115a057611477888888613c4b565b6006600061148b60408b0160208c01614792565b6001600160a01b03168152602080820192909252604090810160009081208b830135825290925290205460ff16156114ef576040517f3344c4b600000000000000000000000000000000000000000000000000000000815260040160405180910390fd5b60016006600061150560408c0160208d01614792565b6001600160a01b03168152602080820192909252604090810160009081208c830180358352908452919020805460ff1916931515939093179092556115639161154f918b01614792565b835180516020909101516080850151613e1c565b80608001517fa576d0af275d0c6207ef43ceee8c498a5d7a26b8157a32d3fdf361e64371628c82604051611597919061466a565b60405180910390a25b5050503868929eee149b4bd21268555050505050565b7f0f0000000000000000000000000000000000000000000000000000000000000060608060008080836115e7614096565b97989097965046955030945091925090565b6060341561160657600080fd5b61161861161384846140dc565b614173565b92915050565b3068929eee149b4bd21268540361163d5763ab143c066000526004601cfd5b3068929eee149b4bd212685560008181526020818152604091829020825160808101845281546001600160a01b038082168084527401000000000000000000000000000000000000000090920460ff161515948301949094526001830154841694820194909452600290910154909116606082015290600a11156116fb5780516040517f7ccfd2ff0000000000000000000000000000000000000000000000000000000081526001600160a01b0390911660048201526024016109af565b805160608201516001600160a01b039081166000908152600360209081526040808320818701518516845290915290205491161115611766576040517fee9f7c3e00000000000000000000000000000000000000000000000000000000815260040160405180910390fd5b80602001516117a1576040517f7c78d56400000000000000000000000000000000000000000000000000000000815260040160405180910390fd5b60008281526001602052604090205443116117e8576040517fba179b3e00000000000000000000000000000000000000000000000000000000815260040160405180910390fd5b805160608201516001600160a01b03908116600090815260036020908152604080832081870151851684529091528120805492909316929161182b908490614b5e565b9091555050805160608201516001600160a01b0390811660009081526002602081815260408084208188015186168552825280842080549590961690940190945585825281845282822080547fffffffffffffffffffffff000000000000000000000000000000000000000000168155600181810180547fffffffffffffffffffffffff00000000000000000000000000000000000000009081169091559190920180549091169055835281812055518381527f9a35c4dbc1cf59bcbe9087b2d49e9f4089b163b71ea35d507e142b207e396d0a910160405180910390a1503868929eee149b4bd212685550565b3068929eee149b4bd2126854036119385763ab143c066000526004601cfd5b3068929eee149b4bd212685560008060006119528461216a565b91945092509050600283600681111561196d5761196d614d44565b14611a2c57600183600681111561198657611986614d44565b036119f9576119b8338360000151600001518460000151602001518460c001516000815181106113bc576113bc614b71565b80608001517fa576d0af275d0c6207ef43ceee8c498a5d7a26b8157a32d3fdf361e64371628c826040516119ec919061466a565b60405180910390a2611a9e565b6000836006811115611a0d57611a0d614d44565b03611a275781518051602090910151611a27913391611ab0565b611a9e565b6002836006811115611a4057611a40614d44565b03611a9e57815180516020909101516080830151611a619233929091613e1c565b80608001517fa576d0af275d0c6207ef43ceee8c498a5d7a26b8157a32d3fdf361e64371628c82604051611a95919061466a565b60405180910390a25b5050503868929eee149b4bd212685550565b806001600160a01b0316600003611af3576040517ff6fa545000000000000000000000000000000000000000000000000000000000815260040160405180910390fd5b600a6001600160a01b0382161015611b42576040517f7ccfd2ff0000000000000000000000000000000000000000000000000000000081526001600160a01b03821660048201526024016109af565b6040516370a0823160e01b81526001600160a01b038481166004830152600091908416906370a0823190602401602060405180830381865afa158015611b8c573d6000803e3d6000fd5b505050506040513d601f19601f82011682018060405250810190611bb09190614e59565b6040516370a0823160e01b81523060048201529091506000906001600160a01b038516906370a0823190602401602060405180830381865afa158015611bfa573d6000803e3d6000fd5b505050506040513d601f19601f82011682018060405250810190611c1e9190614e59565b9050826001600160a01b0316821015611c75576040517ff0753367000000000000000000000000000000000000000000000000000000008152600481018390526001600160a01b03841660248201526044016109af565b611c8f6001600160a01b0385811690879030908716614184565b6040516370a0823160e01b815230600482015260009082906001600160a01b038716906370a0823190602401602060405180830381865afa158015611cd8573d6000803e3d6000fd5b505050506040513d601f19601f82011682018060405250810190611cfc9190614e59565b611d069190614b5e565b6001600160a01b038088166000818152600260209081526040808320948b16808452949091529020805484019055919250907ff252e7564622d27c64805f4295d4aed7999599ad484da4eaa1377fc14df9f1d5611d6284612667565b6040516001600160a01b0390911681526020015b60405180910390a3505050505050565b6040805160e0810182526000606082018181526080830182905260a0830182905260c08301829052825260208201819052918101829052611e1d60405180610100016040528060006001600160a01b0316815260200160008152602001600063ffffffff168152602001600063ffffffff168152602001600080191681526020016060815260200160608152602001606081525090565b6040805160e08101825260008082526020820181905291810182905260608082018390526080820183905260a082019290925260c0810191909152611e6560e0880188614e72565b810190611e72919061501c565b604080516001808252818301909252939750919550925060009190816020015b604080516080810182526000808252602080830182905292820181905260608201528252600019909201910181611e9257905050905060405180608001604052808360000151815260200183602001516001600160a01b0316815260200183606001516001600160a01b031660001b8152602001836080015181525081600081518110611f2157611f21614b71565b6020908102919091010152604080516001808252818301909252600091816020015b604080516080810182526000808252602080830182905292820181905260608201528252600019909201910181611f435790505090506000611f85888a615106565b604080516080810182528851516001600160a01b039081168252878301511660208201529081018290524660608201528351919250908390600090611fcc57611fcc614b71565b6020908102919091010152604080516001808252818301909252600091816020015b60408051606080820183526000808352602083015291810191909152815260200190600190039081611fee579050509050604051806060016040528061203787608001516141eb565b67ffffffffffffffff1681526080870151600090815260046020908152604091829020546001600160a01b0316818401528151919092019161207b918f910161522a565b604051602081830303815290604052815250816000815181106120a0576120a0614b71565b60200260200101819052506040518061010001604052808c60200160208101906120ca9190614792565b6001600160a01b0316815260608d013560208201526040016120f260a08e0160808f01614d87565b63ffffffff16815260200161210d60c08e0160a08f01614d87565b63ffffffff1681526020018c876080015160405160200161212f92919061523d565b604051602081830303815290604052805190602001208152602001858152602001848152602001828152509550505050505093509350939050565b6040805160e0810182526000606082018181526080830182905260a0830182905260c0830182905282526020820181905291810182905261220160405180610100016040528060006001600160a01b0316815260200160008152602001600063ffffffff168152602001600063ffffffff168152602001600080191681526020016060815260200160608152602001606081525090565b6040805160e08101825260008082526020820181905281830181905260608083018290526080830182905260a083019190915260c08201529061224690860186614e72565b810190612253919061501c565b604080516001808252818301909252939750919550925060009190816020015b60408051608081018252600080825260208083018290529282018190526060820152825260001990920191018161227357905050905060405180608001604052808360000151815260200183602001516001600160a01b0316815260200183606001516001600160a01b031660001b815260200183608001518152508160008151811061230257612302614b71565b6020908102919091010152604080516001808252818301909252600091816020015b604080516080810182526000808252602080830182905292820181905260608201528252600019909201910181612324575050604080516080810182528751516001600160a01b039081168252868301518116602083015260a0870151169181019190915246606082015281519192509082906000906123a6576123a6614b71565b6020908102919091010152604080516001808252818301909252600091816020015b604080516060808201835260008083526020830152918101919091528152602001906001900390816123c8579050509050604051806060016040528061241186608001516141eb565b67ffffffffffffffff1681526080860151600090815260046020908152604091829020546001600160a01b03168184015281519190920191612455918c910161529e565b6040516020818303038152906040528152508160008151811061247a5761247a614b71565b6020026020010181905250604051806101000160405280336001600160a01b0316815260200146815260200163ffffffff801681526020018960000160208101906124c59190614d87565b63ffffffff1681526020018986608001516040516020016124e79291906152b1565b604051602081830303815290604052805190602001208152602001848152602001838152602001828152509450505050509193909250565b60007f232a4ef2241135df893cd0d3f880df0ff65115b1f538078c78353f91a830770261254f6020860186614792565b61255f6040870160208801614792565b6040805160208101949094526001600160a01b03928316848201529116606083810191909152908601356080838101919091529086013560a083015285013560c082015260e00160405160208183030381529060405280519060200120905060006125c982614205565b905060006125fc826020527b19457468657265756d205369676e6564204d6573736167653a0a3332600052603c60042090565b9050600061260b82878761431d565b90503660011981013560f01c90033560601c6001600160a01b0382161461265e576040517f6cbfd82c00000000000000000000000000000000000000000000000000000000815260040160405180910390fd5b50505050505050565b600074010000000000000000000000000000000000000000821061268d5761268d6143c4565b5090565b6001600160a01b038216600090815260096020526040812054908190036126b757505050565b60006126c5610e10426152f3565b6001600160a01b0385166000908152600a60209081526040808320848452909152812054919250906126f8908590615307565b90508281111561273e576040517f5e7fe40c00000000000000000000000000000000000000000000000000000000815260048101849052602481018290526044016109af565b6001600160a01b039094166000908152600a6020908152604080832093835292905220929092555050565b81601452806034526fa9059cbb00000000000000000000000060005260206000604460106000875af180600160005114166127b757803d853b1517106127b7576390b8ec186000526004601cfd5b506000603452505050565b60007f0caeb2f59f7faee29bc813688a73008850a2c6447d5a79812cc6f052aea3d7eb86866040516020016127f892919061531a565b60408051601f1981840301815282825280516020918201209083019390935281019190915260608101859052608001604051602081830303815290604052805190602001209050600061284a82614205565b9050600061287d826020527b19457468657265756d205369676e6564204d6573736167653a0a3332600052603c60042090565b9050600061288c82878761431d565b90503660011981013560f01c90033560601c6001600160a01b038216146128df576040517f6cbfd82c00000000000000000000000000000000000000000000000000000000815260040160405180910390fd5b505050505050505050565b6000807f436662be8c9ccdbf835196f5a0bab546929d93f1cdda1663c33321145dd3e78e856000015186602001518760400151886060015189608001518a60a001518b60c001518c60e0015160405160200161294e9998979695949392919061538d565b60405160208183030381529060405280519060200120905061296f81614205565b915060006129a2836020527b19457468657265756d205369676e6564204d6573736167653a0a3332600052603c60042090565b905060006129b182878761431d565b90503660011981013560f01c90033560601c6001600160a01b03821614612a04576040517f6cbfd82c00000000000000000000000000000000000000000000000000000000815260040160405180910390fd5b5050509392505050565b600a6001600160a01b0385161015612a5d576040517f7ccfd2ff0000000000000000000000000000000000000000000000000000000081526001600160a01b03851660048201526024016109af565b6000828152602081905260409020546001600160a01b03908116908516811015612ab3576040517fee9f7c3e00000000000000000000000000000000000000000000000000000000815260040160405180910390fd5b6001600160a01b0388811660009081526003602090815260408083208a851684529091529020549086161115612b15576040517fee9f7c3e00000000000000000000000000000000000000000000000000000000815260040160405180910390fd5b600083815260208190526040812080547fffffffffffffffffffffffff0000000000000000000000000000000000000000168784036001600160a01b03169081179091559003612bb65760008381526020818152604080832080547fffffffffffffffffffffff00ffffffffffffffffffffffffffffffffffffffff1674010000000000000000000000000000000000000000179055600190915290204390555b6001600160a01b0388811660009081526003602090815260408083208a851684529091528120805492881692909190612bf0908490614b5e565b90915550600090506127103660011981013560f090811c909103603c0135901c612c1e9061ffff168861541b565b612c289190615453565b6040516370a0823160e01b81523060048201526001600160a01b0391821692506000918916906370a0823190602401602060405180830381865afa158015612c74573d6000803e3d6000fd5b505050506040513d601f19601f82011682018060405250810190612c989190614e59565b9050612d243660011981013560f01c90036014013560601c6001600160a01b03166316a084496040518163ffffffff1660e01b81526004016020604051808303816000875af1158015612cef573d6000803e3d6000fd5b505050506040513d601f19601f82011682018060405250810190612d139190615481565b6001600160a01b038a169084612769565b6040516370a0823160e01b81523060048201526000906001600160a01b038a16906370a0823190602401602060405180830381865afa158015612d6b573d6000803e3d6000fd5b505050506040513d601f19601f82011682018060405250810190612d8f9190614e59565b612d999083614b5e565b90508415612f0d576040516370a0823160e01b81523060048201526000906001600160a01b038b16906370a0823190602401602060405180830381865afa158015612de8573d6000803e3d6000fd5b505050506040513d601f19601f82011682018060405250810190612e0c9190614e59565b9050612e368b612e25846001600160a01b038d16614b5e565b6001600160a01b038d169190612769565b6040516370a0823160e01b81523060048201526000906001600160a01b038c16906370a0823190602401602060405180830381865afa158015612e7d573d6000803e3d6000fd5b505050506040513d601f19601f82011682018060405250810190612ea19190614e59565b612eab9083614b5e565b90508a6001600160a01b03168c6001600160a01b03167f261f61e2ebf752ba735e34549daf998db76c008224631402de807aafe5dc0986612eeb84612667565b6040516001600160a01b03909116815260200160405180910390a35050612f41565b6001600160a01b038a811660009081526002602090815260408083208d8516845290915290208054918a1683900390910190555b896001600160a01b03168b6001600160a01b03167f175db405132d8c2a71c52e9106464f2596ce376af3ea904079ed95a38e3941d78a612f8085612667565b604080516001600160a01b03938416815292909116602083015281018b9052606081018a905260800160405180910390a35050505050505050505050565b836001600160a01b0316600003613001576040517ff6fa545000000000000000000000000000000000000000000000000000000000815260040160405180910390fd5b6000828152602081905260409020546001600160a01b03908116908516811015613057576040517fee9f7c3e00000000000000000000000000000000000000000000000000000000815260040160405180910390fd5b6001600160a01b0388811660009081526003602090815260408083208a8516845290915290205490861611156130b9576040517fee9f7c3e00000000000000000000000000000000000000000000000000000000815260040160405180910390fd5b600083815260208190526040812080547fffffffffffffffffffffffff0000000000000000000000000000000000000000168784036001600160a01b0316908117909155900361315a5760008381526020818152604080832080547fffffffffffffffffffffff00ffffffffffffffffffffffffffffffffffffffff1674010000000000000000000000000000000000000000179055600190915290204390555b6001600160a01b0388811660009081526003602090815260408083208a851684529091528120805492881692909190613194908490614b5e565b909155505081156132fb576040516370a0823160e01b81523060048201526000906001600160a01b038816906370a0823190602401602060405180830381865afa1580156131e6573d6000803e3d6000fd5b505050506040513d601f19601f8201168201806040525081019061320a9190614e59565b90506132246001600160a01b03888116908a908916612769565b6040516370a0823160e01b81523060048201526000906001600160a01b038916906370a0823190602401602060405180830381865afa15801561326b573d6000803e3d6000fd5b505050506040513d601f19601f8201168201806040525081019061328f9190614e59565b6132999083614b5e565b9050876001600160a01b0316896001600160a01b03167f261f61e2ebf752ba735e34549daf998db76c008224631402de807aafe5dc09866132d984612667565b6040516001600160a01b03909116815260200160405180910390a3505061332c565b6001600160a01b0387811660009081526002602090815260408083208a851684529091529020805491871690910190555b604080516001600160a01b0387811682526000602083015291810186905260608101859052818916918a16907f175db405132d8c2a71c52e9106464f2596ce376af3ea904079ed95a38e3941d79060800160405180910390a35050505050505050565b806001600160a01b03166000036133d2576040517ff6fa545000000000000000000000000000000000000000000000000000000000815260040160405180910390fd5b6001600160a01b038381166000908152600260209081526040808320938616808452939091528082205490516370a0823160e01b81523060048201529092906370a0823190602401602060405180830381865afa158015613437573d6000803e3d6000fd5b505050506040513d601f19601f8201168201806040525081019061345b9190614e59565b9050826001600160a01b03168210156134b2576040517ff0753367000000000000000000000000000000000000000000000000000000008152600481018390526001600160a01b03841660248201526044016109af565b6134ca6001600160a01b038581169087908616612769565b6040516370a0823160e01b81523060048201526000906001600160a01b038616906370a0823190602401602060405180830381865afa158015613511573d6000803e3d6000fd5b505050506040513d601f19601f820116820180604052508101906135359190614e59565b61353f9083614b5e565b6001600160a01b038088166000908152600260209081526040808320938a1683529290529081208054929350839290919061357b908490614b5e565b90915550506001600160a01b038086169087167f261f61e2ebf752ba735e34549daf998db76c008224631402de807aafe5dc0986611d6284612667565b600081815260208181526040808320815160808101835281546001600160a01b038082168084527401000000000000000000000000000000000000000090920460ff1615159583019590955260018301548516938201939093526002909101549092166060830152909103613659576040517fd5516fcd00000000000000000000000000000000000000000000000000000000815260040160405180910390fd5b806020015115613695576040517f099126c500000000000000000000000000000000000000000000000000000000815260040160405180910390fd5b60008281526020818152604080832080547fffffffffffffffffffffff00ffffffffffffffffffffffffffffffffffffffff1674010000000000000000000000000000000000000000179055600182529182902043905590518381527f30ad15c39984aa59d60d4089cbbbaa503c4c9e0fa0e3bdf62a5bab180fcb974d910160405180910390a15050565b6001600160a01b038216158061373d57506001600160a01b038316155b15613774576040517ff6fa545000000000000000000000000000000000000000000000000000000000815260040160405180910390fd5b600a6001600160a01b03831610156137c3576040517f7ccfd2ff0000000000000000000000000000000000000000000000000000000081526001600160a01b03831660048201526024016109af565b600a6001600160a01b0384161015613812576040517f7ccfd2ff0000000000000000000000000000000000000000000000000000000081526001600160a01b03841660048201526024016109af565b6001600160a01b0380861660009081526002602090815260408083208885168452909152902054613844918416615307565b836001600160a01b03161115613886576040517f06bc047a00000000000000000000000000000000000000000000000000000000815260040160405180910390fd5b6040516370a0823160e01b81526001600160a01b038681166004830152600091908616906370a0823190602401602060405180830381865afa1580156138d0573d6000803e3d6000fd5b505050506040513d601f19601f820116820180604052508101906138f49190614e59565b6040516370a0823160e01b81523060048201529091506000906001600160a01b038716906370a0823190602401602060405180830381865afa15801561393e573d6000803e3d6000fd5b505050506040513d601f19601f820116820180604052508101906139629190614e59565b9050836001600160a01b03168210156139b9576040517ff0753367000000000000000000000000000000000000000000000000000000008152600481018390526001600160a01b03851660248201526044016109af565b6139d36001600160a01b0387811690899030908816614184565b6040516370a0823160e01b815230600482015260009082906001600160a01b038916906370a0823190602401602060405180830381865afa158015613a1c573d6000803e3d6000fd5b505050506040513d601f19601f82011682018060405250810190613a409190614e59565b613a4a9190614b5e565b90506040518060800160405280876001600160a01b03168152602001600015158152602001886001600160a01b03168152602001896001600160a01b031681525060008086815260200190815260200160002060008201518160000160006101000a8154816001600160a01b0302191690836001600160a01b0316021790555060208201518160000160146101000a81548160ff02191690831515021790555060408201518160010160006101000a8154816001600160a01b0302191690836001600160a01b0316021790555060608201518160020160006101000a8154816001600160a01b0302191690836001600160a01b03160217905550905050856001600160a01b03168110613bc6576001600160a01b0388811660009081526003602090815260408083208b85168452909152902080549188169182019055811115613bc1576001600160a01b0388811660009081526002602090815260408083208b8516845290915290208054918816830390910190555b613c41565b613bd9816001600160a01b038816614b5e565b6001600160a01b03808a166000908152600260209081526040808320938c1683529290529081208054909190613c10908490614b5e565b90915550506001600160a01b038089166000908152600360209081526040808320938b168352929052208054820190555b5050505050505050565b60007fe3bf10b5739e335154720a95c12f13044f17663dbd6ca01ac402fbc114960ecd613c7b6020860186614792565b613c8b6040870160208801614792565b60408701356060880135613ca560a08a0160808b01614d87565b613cb560c08b0160a08c01614d87565b60c08b0135613cc760e08d018d614e72565b604051613cd592919061549e565b60408051918290038220602083019a909a526001600160a01b0398891690820152969095166060870152608086019390935260a085019190915263ffffffff90811660c08501521660e0830152610100820152610120810191909152610140016040516020818303038152906040528051906020012090506000613d5882614205565b90506000613d8b826020527b19457468657265756d205369676e6564204d6573736167653a0a3332600052603c60042090565b90506000613d9a82878761431d565b9050613dac6040880160208901614792565b6001600160a01b0316816001600160a01b031614158015613de557503660011981013560f01c90033560601c6001600160a01b03821614155b1561265e576040517f6cbfd82c00000000000000000000000000000000000000000000000000000000815260040160405180910390fd5b600a6001600160a01b0383161015613e6b576040517f7ccfd2ff0000000000000000000000000000000000000000000000000000000081526001600160a01b03831660048201526024016109af565b6001600160a01b0380851660009081526002602090815260408083208785168452909152902054908316811015613ee0576040517ff0753367000000000000000000000000000000000000000000000000000000008152600481018290526001600160a01b03841660248201526044016109af565b6000828152602081905260409020546001600160a01b03168015613f33576040517f9db46e78000000000000000000000000000000000000000000000000000000008152600481018490526024016109af565b604080516080810182526001600160a01b03808716808352600060208085018281528b85168688018181528e8716606089018181528d87528686528a872099518a549551151574010000000000000000000000000000000000000000027fffffffffffffffffffffff000000000000000000000000000000000000000000909616908a161794909417895590516001890180549189167fffffffffffffffffffffffff000000000000000000000000000000000000000092831617905592516002988901805491909816931692909217909555825293845284812092815291909252918220805491929091614029908490614b5e565b90915550506001600160a01b0386811660008181526003602090815260408083208a8616808552908352928190208054958a169586019055805194855290840187905290927fb81416b4858ebe34ae0e4d809cdc45e1301b5c325c0ba34c8bf0474ae89f7bb89101611d76565b60408051808201909152600681527f4d69647269620000000000000000000000000000000000000000000000000000602082015260606140d660026143d2565b90509091565b600060405190506020815281816020015280604001808360051b80868437820180851561415b575b835187018035602082018337600038823584305af4614126573d6000873e3d86fd5b5082810384523d815260209384019381013d6000823e60003d8201523d01601f0167ffffffffffffffe0169050818410614104575b806040528485820360401b1794505050505092915050565b8060401c8167ffffffffffffffff16f35b60405181606052826040528360601b602c526f23b872dd000000000000000000000000600c52602060006064601c6000895af180600160005114166141dc57803d873b1517106141dc57637939f4246000526004601cfd5b50600060605260405250505050565b600068010000000000000000821061268d5761268d6143c4565b7f00000000000000000000000000000000000000000000000000000000000000007f000000000000000000000000000000000000000000000000000000000000000030147f00000000000000000000000000000000000000000000000000000000000000004614166142f85750604080517f8b73c3c69bb8fe3d512ecc4cf759cc79239f7b179b0ffacaa9a75d522b39400f81527f000000000000000000000000000000000000000000000000000000000000000060208201527f00000000000000000000000000000000000000000000000000000000000000009181019190915246606082015230608082015260a090205b67190100000000000060005280601a5281603a52604260182090506000603a52919050565b60006040518260408114614339576041811461437957506143ae565b60208581013560ff81901c601b0190915285356040527f7fffffffffffffffffffffffffffffffffffffffffffffffffffffffffffffff1660605261438b565b604085013560001a6020526040856040375b5084600052602060016080600060015afa5191506000606052806040523d6143bc575b638baa579f6000526004601cfd5b509392505050565b6335278d126000526004601cfd5b6060604051604081016040526001815282603001602082015392915050565b6001600160a01b038116811461440657600080fd5b50565b8035614414816143f1565b919050565b6000806040838503121561442c57600080fd5b8235614437816143f1565b91506020830135614447816143f1565b809150509250929050565b60006020828403121561446457600080fd5b5035919050565b6000610100828403121561447e57600080fd5b50919050565b60008083601f84011261449657600080fd5b50813567ffffffffffffffff8111156144ae57600080fd5b6020830191508360208285010111156144c657600080fd5b9250929050565b6000806000604084860312156144e257600080fd5b833567ffffffffffffffff8111156144f957600080fd5b6145058682870161446b565b935050602084013567ffffffffffffffff81111561452257600080fd5b61452e86828701614484565b9497909650939450505050565b600081518084526020840193506020830160005b82811015614593578151805187526020810151602088015260408101516040880152606081015160608801525060808601955060208201915060018101905061454f565b5093949350505050565b6000815180845260005b818110156145c3576020818501810151868301820152016145a7565b506000602082860101526020601f19601f83011685010191505092915050565b600082825180855260208501945060208160051b8301016020850160005b8381101561465e57601f19858403018852815167ffffffffffffffff8151168452602081015160208501526040810151905060606040850152614647606085018261459d565b6020998a0199909450929092019150600101614601565b50909695505050505050565b602081526146846020820183516001600160a01b03169052565b60208201516040820152600060408301516146a7606084018263ffffffff169052565b50606083015163ffffffff8116608084015250608083015160a083015260a083015161010060c08401526146df61012084018261453b565b905060c0840151601f198483030160e08501526146fc828261453b565b91505060e0840151601f198483030161010085015261471b82826145e3565b95945050505050565b6000806040838503121561473757600080fd5b8235614742816143f1565b946020939093013593505050565b60006020828403121561476257600080fd5b813567ffffffffffffffff81111561477957600080fd5b82016060818503121561478b57600080fd5b9392505050565b6000602082840312156147a457600080fd5b813561478b816143f1565b600080600083850360c08112156147c557600080fd5b60a08112156147d357600080fd5b5083925060a084013567ffffffffffffffff81111561452257600080fd5b6000806040838503121561480457600080fd5b823591506020830135614447816143f1565b60008060008060006060868803121561482e57600080fd5b853567ffffffffffffffff81111561484557600080fd5b8601601f8101881361485657600080fd5b803567ffffffffffffffff81111561486d57600080fd5b88602060608302840101111561488257600080fd5b6020918201965094508601359250604086013567ffffffffffffffff8111156148aa57600080fd5b6148b688828901614484565b969995985093965092949392505050565b6000806000806000606086880312156148df57600080fd5b85359450602086013567ffffffffffffffff8111156148fd57600080fd5b61490988828901614484565b909550935050604086013567ffffffffffffffff8111156148aa57600080fd5b60008060008060006060868803121561494157600080fd5b853567ffffffffffffffff81111561495857600080fd5b6149648882890161446b565b955050602086013567ffffffffffffffff8111156148fd57600080fd5b7fff000000000000000000000000000000000000000000000000000000000000008816815260e0602082015260006149bc60e083018961459d565b82810360408401526149ce818961459d565b606084018890526001600160a01b038716608085015260a0840186905283810360c08501528451808252602080870193509091019060005b81811015614a24578351835260209384019390920191600101614a06565b50909b9a5050505050505050505050565b60008060208385031215614a4857600080fd5b823567ffffffffffffffff811115614a5f57600080fd5b8301601f81018513614a7057600080fd5b803567ffffffffffffffff811115614a8757600080fd5b8560208260051b8401011115614a9c57600080fd5b6020919091019590945092505050565b6000602082016020835280845180835260408501915060408160051b86010192506020860160005b82811015614b23577fffffffffffffffffffffffffffffffffffffffffffffffffffffffffffffffc0878603018452614b0e85835161459d565b94506020938401939190910190600101614ad4565b50929695505050505050565b7f4e487b7100000000000000000000000000000000000000000000000000000000600052601160045260246000fd5b8181038181111561161857611618614b2f565b7f4e487b7100000000000000000000000000000000000000000000000000000000600052603260045260246000fd5b8082018281126000831280158216821582161715614bc057614bc0614b2f565b505092915050565b7f4e487b7100000000000000000000000000000000000000000000000000000000600052604160045260246000fd5b604051610100810167ffffffffffffffff81118282101715614c1b57614c1b614bc8565b60405290565b60405160e0810167ffffffffffffffff81118282101715614c1b57614c1b614bc8565b6040516060810167ffffffffffffffff81118282101715614c1b57614c1b614bc8565b6040516080810167ffffffffffffffff81118282101715614c1b57614c1b614bc8565b80356002811061441457600080fd5b80356007811061441457600080fd5b6000610100828403128015614cbc57600080fd5b50614cc5614bf7565b8235614cd0816143f1565b8152614cde60208401614c8a565b6020820152614cef60408401614c99565b6040820152614d0060608401614409565b6060820152614d1160808401614409565b6080820152614d2260a08401614409565b60a082015260c0838101359082015260e0928301359281019290925250919050565b7f4e487b7100000000000000000000000000000000000000000000000000000000600052602160045260246000fd5b803563ffffffff8116811461441457600080fd5b600060208284031215614d9957600080fd5b61478b82614d73565b818352818160208501375060006020828401015260006020601f19601f840116840101905092915050565b6001600160a01b0385168152600084516001600160a01b0381511660208401526001600160a01b03602082015116604084015265ffffffffffff604082015116606084015265ffffffffffff6060820151166080840152506001600160a01b0360208601511660a0830152604085015160c083015261010060e08301526106d661010083018486614da2565b600060208284031215614e6b57600080fd5b5051919050565b60008083357fffffffffffffffffffffffffffffffffffffffffffffffffffffffffffffffe1843603018112614ea757600080fd5b83018035915067ffffffffffffffff821115614ec257600080fd5b6020019150368190038213156144c657600080fd5b803565ffffffffffff8116811461441457600080fd5b600082601f830112614efe57600080fd5b813567ffffffffffffffff811115614f1857614f18614bc8565b604051601f8201601f19908116603f0116810167ffffffffffffffff81118282101715614f4757614f47614bc8565b604052818152838201602001851015614f5f57600080fd5b816020850160208301376000918101602001919091529392505050565b600060e08284031215614f8e57600080fd5b614f96614c21565b823581529050614fa860208301614409565b6020820152614fb960408301614409565b6040820152614fca60608301614409565b606082015260808281013590820152614fe560a08301614409565b60a082015260c082013567ffffffffffffffff81111561500457600080fd5b61501084828501614eed565b60c08301525092915050565b600080600083850361010081121561503357600080fd5b61503c85614c99565b9350601f190160c081121561505057600080fd5b615058614c44565b608082121561506657600080fd5b61506e614c67565b9150602086013561507e816143f1565b8252604086013561508e816143f1565b602083015261509f60608701614ed7565b60408301526150b060808701614ed7565b60608301528181526150c460a08701614409565b602082015260c0860135604082015292505060e084013567ffffffffffffffff8111156150f057600080fd5b6150fc86828701614f7c565b9150509250925092565b8035602083101561161857600019602084900360031b1b1692915050565b60008083357fffffffffffffffffffffffffffffffffffffffffffffffffffffffffffffffe184360301811261515957600080fd5b830160208101925035905067ffffffffffffffff81111561517957600080fd5b8036038213156144c657600080fd5b60008135615195816143f1565b6001600160a01b031683526151ac60208301614409565b6001600160a01b0316602084015260408281013590840152606080830135908401526151da60808301614d73565b63ffffffff1660808401526151f160a08301614d73565b63ffffffff1660a084015260c0828101359084015261521360e0830183615124565b61010060e086015261471b61010086018284614da2565b60208152600061478b6020830184615188565b6040815260006152506040830185615188565b90508260208301529392505050565b63ffffffff61526d82614d73565b1682526020818101359083015260006152896040830183615124565b6060604086015261471b606086018284614da2565b60208152600061478b602083018461525f565b604081526000615250604083018561525f565b7f4e487b7100000000000000000000000000000000000000000000000000000000600052601260045260246000fd5b600082615302576153026152c4565b500490565b8082018082111561161857611618614b2f565b6020808252810182905260008360408301825b85811015615383578235615340816143f1565b6001600160a01b031682526020830135615359816143f1565b6001600160a01b03166020830152604083810135908301526060928301929091019060010161532d565b5095945050505050565b8981526001600160a01b03891660208201526101208101600289106153b4576153b4614d44565b886040830152600788106153ca576153ca614d44565b8760608301526001600160a01b03871660808301526001600160a01b03861660a083015261540360c08301866001600160a01b03169052565b60e08201939093526101000152979650505050505050565b60006001600160a01b0382166001600160a01b0384166001600160a01b038183021692508183048114821517614bc057614bc0614b2f565b60006001600160a01b0383168061546c5761546c6152c4565b806001600160a01b0384160491505092915050565b60006020828403121561549357600080fd5b815161478b816143f1565b818382376000910190815291905056fea26469706673582212202a1f2b9e4a0461adf6de7cf8b7ce66de0108ef36da97e8f3f1a9f3860219a28c64736f6c63430008220033",
    "linkReferences": {}
  },
  "contractName": "MidribV2",
  "devdoc": null,
  "storageLayout": null,
  "userdoc": null
}