{
  "abi": [
    {
      "stateMutability": "nonpayable",
      "type": "fallback"
    },
    {
      "inputs": [],
      "name": "MIN_ORDER_SIZE",
      "outputs": [
        {
          "internalType": "uint16",
          "name": "",
          "type": "uint16"
        }
      ],
      "stateMutability": "view",
      "type": "function"
    },
    {
      "inputs": [
        {
          "internalType": "address",
          "name": "_token",
          "type": "address"
        },
        {
          "internalType": "uint160",
          "name": "_amount",
          "type": "uint160"
        }
      ],
      "name": "deposit",
      "outputs": [],
      "stateMutability": "nonpayable",
      "type": "function"
    },
    {
      "inputs": [
        {
          "internalType": "uint256",
          "name": "chainId",
          "type": "uint256"
        }
      ],
      "name": "destinationSettlers",
      "outputs": [
        {
          "internalType": "address",
          "name": "settler",
          "type": "address"
        }
      ],
      "stateMutability": "view",
      "type": "function"
    },
    {
      "inputs": [],
      "name": "eip712Domain",
      "outputs": [
        {
          "internalType": "bytes1",
          "name": "fields",
          "type": "bytes1"
        },
        {
          "internalType": "string",
          "name": "name",
          "type": "string"
        },
        {
          "internalType": "string",
          "name": "version",
          "type": "string"
        },
        {
          "internalType": "uint256",
          "name": "chainId",
          "type": "uint256"
        },
        {
          "internalType": "address",
          "name": "verifyingContract",
          "type": "address"
        },
        {
          "internalType": "bytes32",
          "name": "salt",
          "type": "bytes32"
        },
        {
          "internalType": "uint256[]",
          "name": "extensions",
          "type": "uint256[]"
        }
      ],
      "stateMutability": "view",
      "type": "function"
    },
    {
      "inputs": [],
      "name": "factory",
      "outputs": [
        {
          "internalType": "address",
          "name": "_factory",
          "type": "address"
        }
      ],
      "stateMutability": "pure",
      "type": "function"
    },
    {
      "inputs": [
        {
          "internalType": "bytes32",
          "name": "_orderId",
          "type": "bytes32"
        },
        {
          "internalType": "bytes",
          "name": "_originData",
          "type": "bytes"
        },
        {
          "internalType": "bytes",
          "name": "_fillerData",
          "type": "bytes"
        }
      ],
      "name": "fill",
      "outputs": [],
      "stateMutability": "nonpayable",
      "type": "function"
    },
    {
      "inputs": [
        {
          "internalType": "address",
          "name": "holder",
          "type": "address"
        },
        {
          "internalType": "address",
          "name": "token",
          "type": "address"
        }
      ],
      "name": "lockedTradeBalance",
      "outputs": [
        {
          "internalType": "uint256",
          "name": "amount",
          "type": "uint256"
        }
      ],
      "stateMutability": "view",
      "type": "function"
    },
    {
      "inputs": [
        {
          "internalType": "bytes[]",
          "name": "data",
          "type": "bytes[]"
        }
      ],
      "name": "multicall",
      "outputs": [
        {
          "internalType": "bytes[]",
          "name": "",
          "type": "bytes[]"
        }
      ],
      "stateMutability": "payable",
      "type": "function"
    },
    {
      "inputs": [
        {
          "components": [
            {
              "internalType": "uint32",
              "name": "fillDeadline",
              "type": "uint32"
            },
            {
              "internalType": "bytes32",
              "name": "orderDataType",
              "type": "bytes32"
            },
            {
              "internalType": "bytes",
              "name": "orderData",
              "type": "bytes"
            }
          ],
          "internalType": "struct OnchainCrossChainOrder",
          "name": "_order",
          "type": "tuple"
        }
      ],
      "name": "open",
      "outputs": [],
      "stateMutability": "nonpayable",
      "type": "function"
    },
    {
      "inputs": [
        {
          "components": [
            {
              "internalType": "address",
              "name": "originSettler",
              "type": "address"
            },
            {
              "internalType": "address",
              "name": "user",
              "type": "address"
            },
            {
              "internalType": "uint256",
              "name": "nonce",
              "type": "uint256"
            },
            {
              "internalType": "uint256",
              "name": "originChainId",
              "type": "uint256"
            },
            {
              "internalType": "uint32",
              "name": "openDeadline",
              "type": "uint32"
            },
            {
              "internalType": "uint32",
              "name": "fillDeadline",
              "type": "uint32"
            },
            {
              "internalType": "bytes32",
              "name": "orderDataType",
              "type": "bytes32"
            },
            {
              "internalType": "bytes",
              "name": "orderData",
              "type": "bytes"
            }
          ],
          "internalType": "struct GaslessCrossChainOrder",
          "name": "_order",
          "type": "tuple"
        },
        {
          "internalType": "bytes",
          "name": "_signature",
          "type": "bytes"
        },
        {
          "internalType": "bytes",
          "name": "_originFillerData",
          "type": "bytes"
        }
      ],
      "name": "openFor",
      "outputs": [],
      "stateMutability": "nonpayable",
      "type": "function"
    },
    {
      "inputs": [],
      "name": "owner",
      "outputs": [
        {
          "internalType": "address",
          "name": "_factory",
          "type": "address"
        }
      ],
      "stateMutability": "pure",
      "type": "function"
    },
    {
      "inputs": [
        {
          "components": [
            {
              "internalType": "uint32",
              "name": "fillDeadline",
              "type": "uint32"
            },
            {
              "internalType": "bytes32",
              "name": "orderDataType",
              "type": "bytes32"
            },
            {
              "internalType": "bytes",
              "name": "orderData",
              "type": "bytes"
            }
          ],
          "internalType": "struct OnchainCrossChainOrder",
          "name": "_order",
          "type": "tuple"
        }
      ],
      "name": "resolve",
      "outputs": [
        {
          "components": [
            {
              "internalType": "address",
              "name": "user",
              "type": "address"
            },
            {
              "internalType": "uint256",
              "name": "originChainId",
              "type": "uint256"
            },
            {
              "internalType": "uint32",
              "name": "openDeadline",
              "type": "uint32"
            },
            {
              "internalType": "uint32",
              "name": "fillDeadline",
              "type": "uint32"
            },
            {
              "internalType": "bytes32",
              "name": "orderId",
              "type": "bytes32"
            },
            {
              "components": [
                {
                  "internalType": "bytes32",
                  "name": "token",
                  "type": "bytes32"
                },
                {
                  "internalType": "uint256",
                  "name": "amount",
                  "type": "uint256"
                },
                {
                  "internalType": "bytes32",
                  "name": "recipient",
                  "type": "bytes32"
                },
                {
                  "internalType": "uint256",
                  "name": "chainId",
                  "type": "uint256"
                }
              ],
              "internalType": "struct Output[]",
              "name": "maxSpent",
              "type": "tuple[]"
            },
            {
              "components": [
                {
                  "internalType": "bytes32",
                  "name": "token",
                  "type": "bytes32"
                },
                {
                  "internalType": "uint256",
                  "name": "amount",
                  "type": "uint256"
                },
                {
                  "internalType": "bytes32",
                  "name": "recipient",
                  "type": "bytes32"
                },
                {
                  "internalType": "uint256",
                  "name": "chainId",
                  "type": "uint256"
                }
              ],
              "internalType": "struct Output[]",
              "name": "minReceived",
              "type": "tuple[]"
            },
            {
              "components": [
                {
                  "internalType": "uint64",
                  "name": "destinationChainId",
                  "type": "uint64"
                },
                {
                  "internalType": "bytes32",
                  "name": "destinationSettler",
                  "type": "bytes32"
                },
                {
                  "internalType": "bytes",
                  "name": "originData",
                  "type": "bytes"
                }
              ],
              "internalType": "struct FillInstruction[]",
              "name": "fillInstructions",
              "type": "tuple[]"
            }
          ],
          "internalType": "struct ResolvedCrossChainOrder",
          "name": "_resolvedOrder",
          "type": "tuple"
        }
      ],
      "stateMutability": "view",
      "type": "function"
    },
    {
      "inputs": [
        {
          "components": [
            {
              "internalType": "address",
              "name": "originSettler",
              "type": "address"
            },
            {
              "internalType": "address",
              "name": "user",
              "type": "address"
            },
            {
              "internalType": "uint256",
              "name": "nonce",
              "type": "uint256"
            },
            {
              "internalType": "uint256",
              "name": "originChainId",
              "type": "uint256"
            },
            {
              "internalType": "uint32",
              "name": "openDeadline",
              "type": "uint32"
            },
            {
              "internalType": "uint32",
              "name": "fillDeadline",
              "type": "uint32"
            },
            {
              "internalType": "bytes32",
              "name": "orderDataType",
              "type": "bytes32"
            },
            {
              "internalType": "bytes",
              "name": "orderData",
              "type": "bytes"
            }
          ],
          "internalType": "struct GaslessCrossChainOrder",
          "name": "_order",
          "type": "tuple"
        },
        {
          "internalType": "bytes",
          "name": "_originFillerData",
          "type": "bytes"
        }
      ],
      "name": "resolveFor",
      "outputs": [
        {
          "components": [
            {
              "internalType": "address",
              "name": "user",
              "type": "address"
            },
            {
              "internalType": "uint256",
              "name": "originChainId",
              "type": "uint256"
            },
            {
              "internalType": "uint32",
              "name": "openDeadline",
              "type": "uint32"
            },
            {
              "internalType": "uint32",
              "name": "fillDeadline",
              "type": "uint32"
            },
            {
              "internalType": "bytes32",
              "name": "orderId",
              "type": "bytes32"
            },
            {
              "components": [
                {
                  "internalType": "bytes32",
                  "name": "token",
                  "type": "bytes32"
                },
                {
                  "internalType": "uint256",
                  "name": "amount",
                  "type": "uint256"
                },
                {
                  "internalType": "bytes32",
                  "name": "recipient",
                  "type": "bytes32"
                },
                {
                  "internalType": "uint256",
                  "name": "chainId",
                  "type": "uint256"
                }
              ],
              "internalType": "struct Output[]",
              "name": "maxSpent",
              "type": "tuple[]"
            },
            {
              "components": [
                {
                  "internalType": "bytes32",
                  "name": "token",
                  "type": "bytes32"
                },
                {
                  "internalType": "uint256",
                  "name": "amount",
                  "type": "uint256"
                },
                {
                  "internalType": "bytes32",
                  "name": "recipient",
                  "type": "bytes32"
                },
                {
                  "internalType": "uint256",
                  "name": "chainId",
                  "type": "uint256"
                }
              ],
              "internalType": "struct Output[]",
              "name": "minReceived",
              "type": "tuple[]"
            },
            {
              "components": [
                {
                  "internalType": "uint64",
                  "name": "destinationChainId",
                  "type": "uint64"
                },
                {
                  "internalType": "bytes32",
                  "name": "destinationSettler",
                  "type": "bytes32"
                },
                {
                  "internalType": "bytes",
                  "name": "originData",
                  "type": "bytes"
                }
              ],
              "internalType": "struct FillInstruction[]",
              "name": "fillInstructions",
              "type": "tuple[]"
            }
          ],
          "internalType": "struct ResolvedCrossChainOrder",
          "name": "_resolvedOrder",
          "type": "tuple"
        }
      ],
      "stateMutability": "view",
      "type": "function"
    },
    {
      "inputs": [
        {
          "internalType": "address",
          "name": "holder",
          "type": "address"
        },
        {
          "internalType": "address",
          "name": "token",
          "type": "address"
        }
      ],
      "name": "tradeBalance",
      "outputs": [
        {
          "internalType": "uint256",
          "name": "amount",
          "type": "uint256"
        }
      ],
      "stateMutability": "view",
      "type": "function"
    },
    {
      "inputs": [
        {
          "internalType": "bytes32",
          "name": "_orderId",
          "type": "bytes32"
        }
      ],
      "name": "unlockForCanceledOrder",
      "outputs": [],
      "stateMutability": "nonpayable",
      "type": "function"
    },
    {
      "inputs": [],
      "name": "version",
      "outputs": [
        {
          "internalType": "uint8",
          "name": "_version",
          "type": "uint8"
        }
      ],
      "stateMutability": "pure",
      "type": "function"
    },
    {
      "inputs": [
        {
          "internalType": "address",
          "name": "_tokenContract",
          "type": "address"
        },
        {
          "internalType": "uint160",
          "name": "_amount",
          "type": "uint160"
        }
      ],
      "name": "withdraw",
      "outputs": [],
      "stateMutability": "nonpayable",
      "type": "function"
    },
    {
      "anonymous": false,
      "inputs": [
        {
          "indexed": true,
          "internalType": "address",
          "name": "user",
          "type": "address"
        },
        {
          "indexed": true,
          "internalType": "address",
          "name": "tokenContract",
          "type": "address"
        },
        {
          "indexed": false,
          "internalType": "uint160",
          "name": "amount",
          "type": "uint160"
        },
        {
          "indexed": false,
          "internalType": "bytes32",
          "name": "erc7683Id",
          "type": "bytes32"
        }
      ],
      "name": "LockedForOrder",
      "type": "event"
    },
    {
      "anonymous": false,
      "inputs": [
        {
          "indexed": true,
          "internalType": "bytes32",
          "name": "orderId",
          "type": "bytes32"
        },
        {
          "components": [
            {
              "internalType": "address",
              "name": "user",
              "type": "address"
            },
            {
              "internalType": "uint256",
              "name": "originChainId",
              "type": "uint256"
            },
            {
              "internalType": "uint32",
              "name": "openDeadline",
              "type": "uint32"
            },
            {
              "internalType": "uint32",
              "name": "fillDeadline",
              "type": "uint32"
            },
            {
              "internalType": "bytes32",
              "name": "orderId",
              "type": "bytes32"
            },
            {
              "components": [
                {
                  "internalType": "bytes32",
                  "name": "token",
                  "type": "bytes32"
                },
                {
                  "internalType": "uint256",
                  "name": "amount",
                  "type": "uint256"
                },
                {
                  "internalType": "bytes32",
                  "name": "recipient",
                  "type": "bytes32"
                },
                {
                  "internalType": "uint256",
                  "name": "chainId",
                  "type": "uint256"
                }
              ],
              "internalType": "struct Output[]",
              "name": "maxSpent",
              "type": "tuple[]"
            },
            {
              "components": [
                {
                  "internalType": "bytes32",
                  "name": "token",
                  "type": "bytes32"
                },
                {
                  "internalType": "uint256",
                  "name": "amount",
                  "type": "uint256"
                },
                {
                  "internalType": "bytes32",
                  "name": "recipient",
                  "type": "bytes32"
                },
                {
                  "internalType": "uint256",
                  "name": "chainId",
                  "type": "uint256"
                }
              ],
              "internalType": "struct Output[]",
              "name": "minReceived",
              "type": "tuple[]"
            },
            {
              "components": [
                {
                  "internalType": "uint64",
                  "name": "destinationChainId",
                  "type": "uint64"
                },
                {
                  "internalType": "bytes32",
                  "name": "destinationSettler",
                  "type": "bytes32"
                },
                {
                  "internalType": "bytes",
                  "name": "originData",
                  "type": "bytes"
                }
              ],
              "internalType": "struct FillInstruction[]",
              "name": "fillInstructions",
              "type": "tuple[]"
            }
          ],
          "indexed": false,
          "internalType": "struct ResolvedCrossChainOrder",
          "name": "resolvedOrder",
          "type": "tuple"
        }
      ],
      "name": "Open",
      "type": "event"
    },
    {
      "anonymous": false,
      "inputs": [
        {
          "indexed": false,
          "internalType": "bytes32",
          "name": "erc7683Id",
          "type": "bytes32"
        }
      ],
      "name": "OrderCanceled",
      "type": "event"
    },
    {
      "anonymous": false,
      "inputs": [
        {
          "indexed": true,
          "internalType": "address",
          "name": "user",
          "type": "address"
        },
        {
          "indexed": true,
          "internalType": "address",
          "name": "tokenContract",
          "type": "address"
        },
        {
          "indexed": false,
          "internalType": "uint160",
          "name": "amount",
          "type": "uint160"
        }
      ],
      "name": "TokenDeposited",
      "type": "event"
    },
    {
      "anonymous": false,
      "inputs": [
        {
          "indexed": true,
          "internalType": "address",
          "name": "user",
          "type": "address"
        },
        {
          "indexed": true,
          "internalType": "address",
          "name": "tokenContract",
          "type": "address"
        },
        {
          "indexed": false,
          "internalType": "uint160",
          "name": "amount",
          "type": "uint160"
        }
      ],
      "name": "TokenWithdrawn",
      "type": "event"
    },
    {
      "anonymous": false,
      "inputs": [
        {
          "indexed": true,
          "internalType": "address",
          "name": "maker",
          "type": "address"
        },
        {
          "indexed": true,
          "internalType": "address",
          "name": "taker",
          "type": "address"
        },
        {
          "indexed": false,
          "internalType": "uint160",
          "name": "amount",
          "type": "uint160"
        },
        {
          "indexed": false,
          "internalType": "uint160",
          "name": "fees",
          "type": "uint160"
        },
        {
          "indexed": false,
          "internalType": "uint256",
          "name": "repaymentChainId",
          "type": "uint256"
        },
        {
          "indexed": false,
          "internalType": "bytes32",
          "name": "erc7683Id",
          "type": "bytes32"
        }
      ],
      "name": "TradeSettled",
      "type": "event"
    },
    {
      "anonymous": false,
      "inputs": [
        {
          "indexed": false,
          "internalType": "bytes32",
          "name": "erc7683Id",
          "type": "bytes32"
        }
      ],
      "name": "UnlockedForCanceledOrder",
      "type": "event"
    },
    {
      "inputs": [],
      "name": "BLOCK_NOT_CONFIRMED",
      "type": "error"
    },
    {
      "inputs": [],
      "name": "INSUFFICIENT_AVAILABLE_BALANCE",
      "type": "error"
    },
    {
      "inputs": [
        {
          "internalType": "uint256",
          "name": "available",
          "type": "uint256"
        },
        {
          "internalType": "uint160",
          "name": "required",
          "type": "uint160"
        }
      ],
      "name": "INSUFFICIENT_BALANCE",
      "type": "error"
    },
    {
      "inputs": [],
      "name": "INVALID_INTENT",
      "type": "error"
    },
    {
      "inputs": [],
      "name": "INVALID_SIGNER",
      "type": "error"
    },
    {
      "inputs": [
        {
          "internalType": "uint160",
          "name": "amount",
          "type": "uint160"
        }
      ],
      "name": "MINIMUM_ORDER_AMOUNT",
      "type": "error"
    },
    {
      "inputs": [],
      "name": "ORDER_ALREADY_CANCELED",
      "type": "error"
    },
    {
      "inputs": [
        {
          "internalType": "bytes32",
          "name": "erc7683Id",
          "type": "bytes32"
        }
      ],
      "name": "ORDER_ALREADY_EXISTS",
      "type": "error"
    },
    {
      "inputs": [],
      "name": "ORDER_DOES_NOT_EXIST",
      "type": "error"
    },
    {
      "inputs": [],
      "name": "ORDER_LARGER_THAN_LOCKED_BALANCE",
      "type": "error"
    },
    {
      "inputs": [],
      "name": "ORDER_NOT_CANCELED",
      "type": "error"
    },
    {
      "inputs": [],
      "name": "Reentrancy",
      "type": "error"
    },
    {
      "inputs": [],
      "name": "ZERO_AMOUNT",
      "type": "error"
    }
  ],
  "assembly": null,
  "bytecode": "0x610120604052348015610010575f5ffd5b503073ffffffffffffffffffffffffffffffffffffffff16608081815250504660a0818152505060608061004861012b60201b60201c565b6100635761005a61012f60201b60201c565b80925081935050505b5f61007261012b60201b60201c565b610083578280519060200120610087565b5f5f1b5b90505f61009861012b60201b60201c565b6100a95782805190602001206100ad565b5f5f1b5b90508160c081815250508060e081815250505f6100ce61012b60201b60201c565b610118576040517f8b73c3c69bb8fe3d512ecc4cf759cc79239f7b179b0ffacaa9a75d522b39400f815283602082015282604082015246606082015230608082015260a081209150505b80610100818152505050505050506101a5565b5f90565b6060806040518060400160405280600681526020017f4d69647269620000000000000000000000000000000000000000000000000000815250915061017d600260ff1661018360201b60201c565b90509091565b6060604051604081016040526001815282603001602082015380915050919050565b60805160a05160c05160e051610100516161376101e25f395f61408901525f6142b101525f61428e01525f61432001525f61434401526161375ff3fe608060405260043610610101575f3560e01c806384b0196e11610094578063ac9650d811610063578063ac9650d814610356578063b9afd4b914610386578063c45a0155146103ae578063d3f82d8e146103d8578063e917a9621461040257610102565b806384b0196e146102985780638b1db0f3146102c85780638d7b2227146102f05780638da5cb5b1461032c57610102565b806354fd4d50116100d057806354fd4d50146101e25780637e8d29d61461020c57806382e2c43f14610248578063844fac8e1461027057610102565b806303fde2551461010657806319d5f0c31461012e57806322bcd51a1461016a57806341b477dd146101a657610102565b5b5f5ffd5b348015610111575f5ffd5b5061012c600480360381019061012791906145f8565b61042a565b005b348015610139575f5ffd5b50610154600480360381019061014f9190614636565b61046f565b604051610161919061468c565b60405180910390f35b348015610175575f5ffd5b50610190600480360381019061018b9190614729565b61048f565b60405161019d9190614b46565b60405180910390f35b3480156101b1575f5ffd5b506101cc60048036038101906101c79190614b84565b6104b2565b6040516101d99190614b46565b60405180910390f35b3480156101ed575f5ffd5b506101f66104d1565b6040516102039190614be6565b60405180910390f35b348015610217575f5ffd5b50610232600480360381019061022d9190614636565b6104d9565b60405161023f919061468c565b60405180910390f35b348015610253575f5ffd5b5061026e60048036038101906102699190614c29565b6104f9565b005b34801561027b575f5ffd5b5061029660048036038101906102919190614cba565b610772565b005b3480156102a3575f5ffd5b506102ac610a38565b6040516102bf9796959493929190614eb9565b60405180910390f35b3480156102d3575f5ffd5b506102ee60048036038101906102e991906145f8565b610a83565b005b3480156102fb575f5ffd5b5061031660048036038101906103119190614f65565b610ac8565b6040516103239190614f90565b60405180910390f35b348015610337575f5ffd5b50610340610af8565b60405161034d9190614f90565b60405180910390f35b610370600480360381019061036b9190614ffe565b610b07565b60405161037d9190615104565b60405180910390f35b348015610391575f5ffd5b506103ac60048036038101906103a79190615124565b610b2c565b005b3480156103b9575f5ffd5b506103c2611091565b6040516103cf9190614f90565b60405180910390f35b3480156103e3575f5ffd5b506103ec6110a1565b6040516103f9919061516b565b60405180910390f35b34801561040d575f5ffd5b5061042860048036038101906104239190614b84565b6110a6565b005b3068929eee149b4bd2126854036104485763ab143c065f526004601cfd5b3068929eee149b4bd212685561045f33838361129e565b3868929eee149b4bd21268555050565b6002602052815f5260405f20602052805f5260405f205f91509150505481565b610497614374565b6104a2848484611663565b9091509050809150509392505050565b6104ba614374565b6104c382611a24565b909150905080915050919050565b5f6002905090565b6003602052815f5260405f20602052805f5260405f205f91509150505481565b3068929eee149b4bd2126854036105175763ab143c065f526004601cfd5b3068929eee149b4bd21268555f84848101906105339190615311565b9050610540818484611dc5565b6003816040015160068111156105595761055861533d565b5b60ff161015610594576040517f3cf5125f00000000000000000000000000000000000000000000000000000000815260040160405180910390fd5b6005816040015160068111156105ad576105ac61533d565b5b60ff1610156106d4575f60018111156105c9576105c861533d565b5b816020015160018111156105e0576105df61533d565b5b036106445761063f81606001518260800151835f01518460a001518560c001518b600460068111156106155761061461533d565b5b8860400151600681111561062c5761062b61533d565b5b14610637575f61063a565b60015b611eda565b6106cf565b6001808111156106575761065661533d565b5b8160200151600181111561066e5761066d61533d565b5b036106ce576106cd81606001518260800151835f01518460a001518560c001518b600460068111156106a3576106a261533d565b5b886040015160068111156106ba576106b961533d565b5b146106c5575f6106c8565b60015b61256f565b5b5b61075e565b600560068111156106e8576106e761533d565b5b816040015160068111156106ff576106fe61533d565b5b0361071f5761071a8160600151825f01518360a001516129f6565b61075d565b6006808111156107325761073161533d565b5b816040015160068111156107495761074861533d565b5b0361075c5761075b8160e00151612d63565b5b5b5b503868929eee149b4bd21268555050505050565b3068929eee149b4bd2126854036107905763ab143c065f526004601cfd5b3068929eee149b4bd21268555f5f5f6107aa888686611663565b925092509250600260068111156107c4576107c361533d565b5b8360068111156107d7576107d661533d565b5b1461097e576107e66028612fa3565b73ffffffffffffffffffffffffffffffffffffffff16632b67b570896020016020810190610814919061536a565b848a8a6040518563ffffffff1660e01b815260040161083694939291906154a1565b5f604051808303815f87803b15801561084d575f5ffd5b505af115801561085f573d5f5f3e3d5ffd5b50505050600160068111156108775761087661533d565b5b83600681111561088a5761088961533d565b5b03610922576108e18860200160208101906108a5919061536a565b835f01515f0151845f0151602001518460c001515f815181106108cb576108ca6154e0565b5b6020026020010151602001518560800151612fbe565b80608001517fa576d0af275d0c6207ef43ceee8c498a5d7a26b8157a32d3fdf361e64371628c826040516109159190614b46565b60405180910390a2610979565b5f60068111156109355761093461533d565b5b8360068111156109485761094761533d565b5b0361097857610977886020016020810190610963919061536a565b835f01515f0151845f01516020015161129e565b5b5b610a22565b600260068111156109925761099161533d565b5b8360068111156109a5576109a461533d565b5b03610a21576109b5888888613812565b6109e48860200160208101906109cb919061536a565b835f01515f0151845f01516020015184608001516139cc565b80608001517fa576d0af275d0c6207ef43ceee8c498a5d7a26b8157a32d3fdf361e64371628c82604051610a189190614b46565b60405180910390a25b5b5050503868929eee149b4bd21268555050505050565b5f6060805f5f5f60607f0f000000000000000000000000000000000000000000000000000000000000009650610a6c613eaa565b809650819750505046935030925090919293949596565b3068929eee149b4bd212685403610aa15763ab143c065f526004601cfd5b3068929eee149b4bd2126855610ab83383836129f6565b3868929eee149b4bd21268555050565b6004602052805f5260405f205f915054906101000a900473ffffffffffffffffffffffffffffffffffffffff1681565b5f610b025f612fa3565b905090565b60605f3414610b14575f5ffd5b610b26610b218484613ef8565b613fa4565b92915050565b3068929eee149b4bd212685403610b4a5763ab143c065f526004601cfd5b3068929eee149b4bd21268555f5f5f8381526020019081526020015f206040518060800160405290815f82015f9054906101000a900473ffffffffffffffffffffffffffffffffffffffff1673ffffffffffffffffffffffffffffffffffffffff1673ffffffffffffffffffffffffffffffffffffffff1681526020015f820160149054906101000a900460ff16151515158152602001600182015f9054906101000a900473ffffffffffffffffffffffffffffffffffffffff1673ffffffffffffffffffffffffffffffffffffffff1673ffffffffffffffffffffffffffffffffffffffff168152602001600282015f9054906101000a900473ffffffffffffffffffffffffffffffffffffffff1673ffffffffffffffffffffffffffffffffffffffff1673ffffffffffffffffffffffffffffffffffffffff16815250509050600a61ffff16815f015173ffffffffffffffffffffffffffffffffffffffff161015610cf257805f01516040517f7ccfd2ff000000000000000000000000000000000000000000000000000000008152600401610ce9919061551c565b60405180910390fd5b805f015173ffffffffffffffffffffffffffffffffffffffff1660035f836060015173ffffffffffffffffffffffffffffffffffffffff1673ffffffffffffffffffffffffffffffffffffffff1681526020019081526020015f205f836040015173ffffffffffffffffffffffffffffffffffffffff1673ffffffffffffffffffffffffffffffffffffffff1681526020019081526020015f20541015610dc5576040517fee9f7c3e00000000000000000000000000000000000000000000000000000000815260040160405180910390fd5b8060200151610e00576040517f7c78d56400000000000000000000000000000000000000000000000000000000815260040160405180910390fd5b60015f8381526020019081526020015f20544311610e4a576040517fba179b3e00000000000000000000000000000000000000000000000000000000815260040160405180910390fd5b805f015173ffffffffffffffffffffffffffffffffffffffff1660035f836060015173ffffffffffffffffffffffffffffffffffffffff1673ffffffffffffffffffffffffffffffffffffffff1681526020019081526020015f205f836040015173ffffffffffffffffffffffffffffffffffffffff1673ffffffffffffffffffffffffffffffffffffffff1681526020019081526020015f205f828254610ef29190615562565b92505081905550805f015173ffffffffffffffffffffffffffffffffffffffff1660025f836060015173ffffffffffffffffffffffffffffffffffffffff1673ffffffffffffffffffffffffffffffffffffffff1681526020019081526020015f205f836040015173ffffffffffffffffffffffffffffffffffffffff1673ffffffffffffffffffffffffffffffffffffffff1681526020019081526020015f205f82825401925050819055505f5f8381526020019081526020015f205f5f82015f6101000a81549073ffffffffffffffffffffffffffffffffffffffff02191690555f820160146101000a81549060ff0219169055600182015f6101000a81549073ffffffffffffffffffffffffffffffffffffffff0219169055600282015f6101000a81549073ffffffffffffffffffffffffffffffffffffffff0219169055505060015f8381526020019081526020015f205f90557f9a35c4dbc1cf59bcbe9087b2d49e9f4089b163b71ea35d507e142b207e396d0a826040516110799190615595565b60405180910390a1503868929eee149b4bd212685550565b5f61109c6014612fa3565b905090565b600a81565b3068929eee149b4bd2126854036110c45763ab143c065f526004601cfd5b3068929eee149b4bd21268555f5f5f6110dc84611a24565b925092509250600260068111156110f6576110f561533d565b5b8360068111156111095761110861533d565b5b1461120557600160068111156111225761112161533d565b5b8360068111156111355761113461533d565b5b036111bb5761117a33835f01515f0151845f0151602001518460c001515f81518110611164576111636154e0565b5b6020026020010151602001518560800151612fbe565b80608001517fa576d0af275d0c6207ef43ceee8c498a5d7a26b8157a32d3fdf361e64371628c826040516111ae9190614b46565b60405180910390a2611200565b5f60068111156111ce576111cd61533d565b5b8360068111156111e1576111e061533d565b5b036111ff576111fe33835f01515f0151845f01516020015161129e565b5b5b61128c565b600260068111156112195761121861533d565b5b83600681111561122c5761122b61533d565b5b0361128b5761124e33835f01515f0151845f01516020015184608001516139cc565b80608001517fa576d0af275d0c6207ef43ceee8c498a5d7a26b8157a32d3fdf361e64371628c826040516112829190614b46565b60405180910390a25b5b5050503868929eee149b4bd212685550565b5f8173ffffffffffffffffffffffffffffffffffffffff16036112ed576040517ff6fa545000000000000000000000000000000000000000000000000000000000815260040160405180910390fd5b600a61ffff168173ffffffffffffffffffffffffffffffffffffffff16101561134d57806040517f7ccfd2ff000000000000000000000000000000000000000000000000000000008152600401611344919061551c565b60405180910390fd5b5f8273ffffffffffffffffffffffffffffffffffffffff166370a08231856040518263ffffffff1660e01b81526004016113879190614f90565b602060405180830381865afa1580156113a2573d5f5f3e3d5ffd5b505050506040513d601f19601f820116820180604052508101906113c691906155c2565b90505f8373ffffffffffffffffffffffffffffffffffffffff166370a08231306040518263ffffffff1660e01b81526004016114029190614f90565b602060405180830381865afa15801561141d573d5f5f3e3d5ffd5b505050506040513d601f19601f8201168201806040525081019061144191906155c2565b90508273ffffffffffffffffffffffffffffffffffffffff168210156114a05781836040517ff07533670000000000000000000000000000000000000000000000000000000081526004016114979291906155ed565b60405180910390fd5b6114e385308573ffffffffffffffffffffffffffffffffffffffff168773ffffffffffffffffffffffffffffffffffffffff16613fb5909392919063ffffffff16565b5f818573ffffffffffffffffffffffffffffffffffffffff166370a08231306040518263ffffffff1660e01b815260040161151e9190614f90565b602060405180830381865afa158015611539573d5f5f3e3d5ffd5b505050506040513d601f19601f8201168201806040525081019061155d91906155c2565b6115679190615562565b90508060025f8873ffffffffffffffffffffffffffffffffffffffff1673ffffffffffffffffffffffffffffffffffffffff1681526020019081526020015f205f8773ffffffffffffffffffffffffffffffffffffffff1673ffffffffffffffffffffffffffffffffffffffff1681526020019081526020015f205f82825401925050819055508473ffffffffffffffffffffffffffffffffffffffff168673ffffffffffffffffffffffffffffffffffffffff167ff252e7564622d27c64805f4295d4aed7999599ad484da4eaa1377fc14df9f1d56116468461401a565b604051611653919061551c565b60405180910390a3505050505050565b5f61166c6143d6565b611674614374565b61167c614411565b868060e0019061168c9190615620565b81019061169991906158f1565b8093508195508296505050505f600167ffffffffffffffff8111156116c1576116c0615188565b5b6040519080825280602002602001820160405280156116fa57816020015b6116e76144b6565b8152602001906001900390816116df5790505b5090506040518060800160405280835f015173ffffffffffffffffffffffffffffffffffffffff165f1b8152602001836020015173ffffffffffffffffffffffffffffffffffffffff168152602001836060015173ffffffffffffffffffffffffffffffffffffffff165f1b81526020018360800151815250815f81518110611786576117856154e0565b5b60200260200101819052505f600167ffffffffffffffff8111156117ad576117ac615188565b5b6040519080825280602002602001820160405280156117e657816020015b6117d36144b6565b8152602001906001900390816117cb5790505b5090505f8888906117f79190615974565b90506040518060800160405280875f01515f015173ffffffffffffffffffffffffffffffffffffffff165f1b8152602001856040015173ffffffffffffffffffffffffffffffffffffffff16815260200182815260200146815250825f81518110611865576118646154e0565b5b60200260200101819052505f600167ffffffffffffffff81111561188c5761188b615188565b5b6040519080825280602002602001820160405280156118c557816020015b6118b26144da565b8152602001906001900390816118aa5790505b50905060405180606001604052806118e08760800151614048565b67ffffffffffffffff168152602001866080015173ffffffffffffffffffffffffffffffffffffffff165f1b81526020018c6040516020016119229190615bdd565b604051602081830303815290604052815250815f81518110611947576119466154e0565b5b60200260200101819052506040518061010001604052808c6020016020810190611971919061536a565b73ffffffffffffffffffffffffffffffffffffffff1681526020018c6060013581526020018c60800160208101906119a99190615bfd565b63ffffffff1681526020018c60a00160208101906119c79190615bfd565b63ffffffff1681526020018c87608001516040516020016119e9929190615c28565b604051602081830303815290604052805190602001208152602001858152602001848152602001828152509550505050505093509350939050565b5f611a2d6143d6565b611a35614374565b611a3d614411565b848060400190611a4d9190615620565b810190611a5a91906158f1565b8093508195508296505050505f600167ffffffffffffffff811115611a8257611a81615188565b5b604051908082528060200260200182016040528015611abb57816020015b611aa86144b6565b815260200190600190039081611aa05790505b5090506040518060800160405280835f015173ffffffffffffffffffffffffffffffffffffffff165f1b8152602001836020015173ffffffffffffffffffffffffffffffffffffffff168152602001836060015173ffffffffffffffffffffffffffffffffffffffff165f1b81526020018360800151815250815f81518110611b4757611b466154e0565b5b60200260200101819052505f600167ffffffffffffffff811115611b6e57611b6d615188565b5b604051908082528060200260200182016040528015611ba757816020015b611b946144b6565b815260200190600190039081611b8c5790505b5090506040518060800160405280865f01515f015173ffffffffffffffffffffffffffffffffffffffff165f1b8152602001846040015173ffffffffffffffffffffffffffffffffffffffff1681526020018460a0015173ffffffffffffffffffffffffffffffffffffffff165f1b815260200146815250815f81518110611c3257611c316154e0565b5b60200260200101819052505f600167ffffffffffffffff811115611c5957611c58615188565b5b604051908082528060200260200182016040528015611c9257816020015b611c7f6144da565b815260200190600190039081611c775790505b5090506040518060600160405280611cad8660800151614048565b67ffffffffffffffff168152602001856080015173ffffffffffffffffffffffffffffffffffffffff165f1b815260200189604051602001611cef9190615cbd565b604051602081830303815290604052815250815f81518110611d1457611d136154e0565b5b60200260200101819052506040518061010001604052803373ffffffffffffffffffffffffffffffffffffffff16815260200146815260200163ffffffff80168152602001895f016020810190611d6b9190615bfd565b63ffffffff168152602001898660800151604051602001611d8d929190615cdd565b604051602081830303815290604052805190602001208152602001848152602001838152602001828152509450505050509193909250565b5f7f436662be8c9ccdbf835196f5a0bab546929d93f1cdda1663c33321145dd3e78e845f015185602001518660400151876060015188608001518960a001518a60c001518b60e00151604051602001611e2699989796959493929190615d97565b6040516020818303038152906040528051906020012090505f611e488261406a565b90505f611e54826140e6565b90505f611e62828787614116565b9050611e6d5f612fa3565b73ffffffffffffffffffffffffffffffffffffffff168173ffffffffffffffffffffffffffffffffffffffff1614611ed1576040517f6cbfd82c00000000000000000000000000000000000000000000000000000000815260040160405180910390fd5b50505050505050565b600a61ffff168473ffffffffffffffffffffffffffffffffffffffff161015611f3a57836040517f7ccfd2ff000000000000000000000000000000000000000000000000000000008152600401611f31919061551c565b60405180910390fd5b8373ffffffffffffffffffffffffffffffffffffffff1660035f8973ffffffffffffffffffffffffffffffffffffffff1673ffffffffffffffffffffffffffffffffffffffff1681526020019081526020015f205f8773ffffffffffffffffffffffffffffffffffffffff1673ffffffffffffffffffffffffffffffffffffffff1681526020019081526020015f20541015612002576040517fee9f7c3e00000000000000000000000000000000000000000000000000000000815260040160405180910390fd5b8373ffffffffffffffffffffffffffffffffffffffff1660035f8973ffffffffffffffffffffffffffffffffffffffff1673ffffffffffffffffffffffffffffffffffffffff1681526020019081526020015f205f8773ffffffffffffffffffffffffffffffffffffffff1673ffffffffffffffffffffffffffffffffffffffff1681526020019081526020015f205f82825461209f9190615562565b925050819055505f61271061ffff166120b8603c6141a2565b61ffff16866120c79190615e22565b6120d19190615e90565b73ffffffffffffffffffffffffffffffffffffffff1690505f8673ffffffffffffffffffffffffffffffffffffffff166370a08231306040518263ffffffff1660e01b81526004016121239190614f90565b602060405180830381865afa15801561213e573d5f5f3e3d5ffd5b505050506040513d601f19601f8201168201806040525081019061216291906155c2565b90506122056121716014612fa3565b73ffffffffffffffffffffffffffffffffffffffff166316a084496040518163ffffffff1660e01b81526004016020604051808303815f875af11580156121ba573d5f5f3e3d5ffd5b505050506040513d601f19601f820116820180604052508101906121de9190615ed4565b838973ffffffffffffffffffffffffffffffffffffffff166141bd9092919063ffffffff16565b5f8773ffffffffffffffffffffffffffffffffffffffff166370a08231306040518263ffffffff1660e01b815260040161223f9190614f90565b602060405180830381865afa15801561225a573d5f5f3e3d5ffd5b505050506040513d601f19601f8201168201806040525081019061227e91906155c2565b826122899190615562565b90508315612452575f8873ffffffffffffffffffffffffffffffffffffffff166370a08231306040518263ffffffff1660e01b81526004016122cb9190614f90565b602060405180830381865afa1580156122e6573d5f5f3e3d5ffd5b505050506040513d601f19601f8201168201806040525081019061230a91906155c2565b90506123588a838a73ffffffffffffffffffffffffffffffffffffffff166123329190615562565b8b73ffffffffffffffffffffffffffffffffffffffff166141bd9092919063ffffffff16565b5f8973ffffffffffffffffffffffffffffffffffffffff166370a08231306040518263ffffffff1660e01b81526004016123929190614f90565b602060405180830381865afa1580156123ad573d5f5f3e3d5ffd5b505050506040513d601f19601f820116820180604052508101906123d191906155c2565b826123dc9190615562565b90508973ffffffffffffffffffffffffffffffffffffffff168b73ffffffffffffffffffffffffffffffffffffffff167f261f61e2ebf752ba735e34549daf998db76c008224631402de807aafe5dc09866124368461401a565b604051612443919061551c565b60405180910390a350506124f0565b808773ffffffffffffffffffffffffffffffffffffffff160360025f8b73ffffffffffffffffffffffffffffffffffffffff1673ffffffffffffffffffffffffffffffffffffffff1681526020019081526020015f205f8a73ffffffffffffffffffffffffffffffffffffffff1673ffffffffffffffffffffffffffffffffffffffff1681526020019081526020015f205f82825401925050819055505b8873ffffffffffffffffffffffffffffffffffffffff168a73ffffffffffffffffffffffffffffffffffffffff167f175db405132d8c2a71c52e9106464f2596ce376af3ea904079ed95a38e3941d7896125498561401a565b8a8a60405161255b9493929190615eff565b60405180910390a350505050505050505050565b5f8473ffffffffffffffffffffffffffffffffffffffff16036125be576040517ff6fa545000000000000000000000000000000000000000000000000000000000815260040160405180910390fd5b8373ffffffffffffffffffffffffffffffffffffffff1660025f8973ffffffffffffffffffffffffffffffffffffffff1673ffffffffffffffffffffffffffffffffffffffff1681526020019081526020015f205f8773ffffffffffffffffffffffffffffffffffffffff1673ffffffffffffffffffffffffffffffffffffffff1681526020019081526020015f20541015612686576040517f06bc047a00000000000000000000000000000000000000000000000000000000815260040160405180910390fd5b8373ffffffffffffffffffffffffffffffffffffffff1660025f8973ffffffffffffffffffffffffffffffffffffffff1673ffffffffffffffffffffffffffffffffffffffff1681526020019081526020015f205f8773ffffffffffffffffffffffffffffffffffffffff1673ffffffffffffffffffffffffffffffffffffffff1681526020019081526020015f205f8282546127239190615562565b9250508190555080156128e6575f8573ffffffffffffffffffffffffffffffffffffffff166370a08231306040518263ffffffff1660e01b815260040161276a9190614f90565b602060405180830381865afa158015612785573d5f5f3e3d5ffd5b505050506040513d601f19601f820116820180604052508101906127a991906155c2565b90506127ec878673ffffffffffffffffffffffffffffffffffffffff168873ffffffffffffffffffffffffffffffffffffffff166141bd9092919063ffffffff16565b5f8673ffffffffffffffffffffffffffffffffffffffff166370a08231306040518263ffffffff1660e01b81526004016128269190614f90565b602060405180830381865afa158015612841573d5f5f3e3d5ffd5b505050506040513d601f19601f8201168201806040525081019061286591906155c2565b826128709190615562565b90508673ffffffffffffffffffffffffffffffffffffffff168873ffffffffffffffffffffffffffffffffffffffff167f261f61e2ebf752ba735e34549daf998db76c008224631402de807aafe5dc09866128ca8461401a565b6040516128d7919061551c565b60405180910390a35050612982565b8373ffffffffffffffffffffffffffffffffffffffff1660025f8873ffffffffffffffffffffffffffffffffffffffff1673ffffffffffffffffffffffffffffffffffffffff1681526020019081526020015f205f8773ffffffffffffffffffffffffffffffffffffffff1673ffffffffffffffffffffffffffffffffffffffff1681526020019081526020015f205f82825401925050819055505b8573ffffffffffffffffffffffffffffffffffffffff168773ffffffffffffffffffffffffffffffffffffffff167f175db405132d8c2a71c52e9106464f2596ce376af3ea904079ed95a38e3941d7865f87876040516129e59493929190615f84565b60405180910390a350505050505050565b5f8173ffffffffffffffffffffffffffffffffffffffff1603612a45576040517ff6fa545000000000000000000000000000000000000000000000000000000000815260040160405180910390fd5b5f60025f8573ffffffffffffffffffffffffffffffffffffffff1673ffffffffffffffffffffffffffffffffffffffff1681526020019081526020015f205f8473ffffffffffffffffffffffffffffffffffffffff1673ffffffffffffffffffffffffffffffffffffffff1681526020019081526020015f205490505f8373ffffffffffffffffffffffffffffffffffffffff166370a08231306040518263ffffffff1660e01b8152600401612afb9190614f90565b602060405180830381865afa158015612b16573d5f5f3e3d5ffd5b505050506040513d601f19601f82011682018060405250810190612b3a91906155c2565b90508273ffffffffffffffffffffffffffffffffffffffff16821015612b995781836040517ff0753367000000000000000000000000000000000000000000000000000000008152600401612b909291906155ed565b60405180910390fd5b612bda858473ffffffffffffffffffffffffffffffffffffffff168673ffffffffffffffffffffffffffffffffffffffff166141bd9092919063ffffffff16565b5f8473ffffffffffffffffffffffffffffffffffffffff166370a08231306040518263ffffffff1660e01b8152600401612c149190614f90565b602060405180830381865afa158015612c2f573d5f5f3e3d5ffd5b505050506040513d601f19601f82011682018060405250810190612c5391906155c2565b82612c5e9190615562565b90508060025f8873ffffffffffffffffffffffffffffffffffffffff1673ffffffffffffffffffffffffffffffffffffffff1681526020019081526020015f205f8773ffffffffffffffffffffffffffffffffffffffff1673ffffffffffffffffffffffffffffffffffffffff1681526020019081526020015f205f828254612ce79190615562565b925050819055508473ffffffffffffffffffffffffffffffffffffffff168673ffffffffffffffffffffffffffffffffffffffff167f261f61e2ebf752ba735e34549daf998db76c008224631402de807aafe5dc0986612d468461401a565b604051612d53919061551c565b60405180910390a3505050505050565b5f5f5f8381526020019081526020015f206040518060800160405290815f82015f9054906101000a900473ffffffffffffffffffffffffffffffffffffffff1673ffffffffffffffffffffffffffffffffffffffff1673ffffffffffffffffffffffffffffffffffffffff1681526020015f820160149054906101000a900460ff16151515158152602001600182015f9054906101000a900473ffffffffffffffffffffffffffffffffffffffff1673ffffffffffffffffffffffffffffffffffffffff1673ffffffffffffffffffffffffffffffffffffffff168152602001600282015f9054906101000a900473ffffffffffffffffffffffffffffffffffffffff1673ffffffffffffffffffffffffffffffffffffffff1673ffffffffffffffffffffffffffffffffffffffff168152505090505f815f015173ffffffffffffffffffffffffffffffffffffffff1603612eeb576040517fd5516fcd00000000000000000000000000000000000000000000000000000000815260040160405180910390fd5b806020015115612f27576040517f099126c500000000000000000000000000000000000000000000000000000000815260040160405180910390fd5b60015f5f8481526020019081526020015f205f0160146101000a81548160ff0219169083151502179055504360015f8481526020019081526020015f20819055507f30ad15c39984aa59d60d4089cbbbaa503c4c9e0fa0e3bdf62a5bab180fcb974d82604051612f979190615595565b60405180910390a15050565b5f5f612fad614211565b90508281013560601c915050919050565b5f8273ffffffffffffffffffffffffffffffffffffffff161480612ff757505f8373ffffffffffffffffffffffffffffffffffffffff16145b1561302e576040517ff6fa545000000000000000000000000000000000000000000000000000000000815260040160405180910390fd5b600a61ffff168273ffffffffffffffffffffffffffffffffffffffff16101561308e57816040517f7ccfd2ff000000000000000000000000000000000000000000000000000000008152600401613085919061551c565b60405180910390fd5b600a61ffff168373ffffffffffffffffffffffffffffffffffffffff1610156130ee57826040517f7ccfd2ff0000000000000000000000000000000000000000000000000000000081526004016130e5919061551c565b60405180910390fd5b60025f8673ffffffffffffffffffffffffffffffffffffffff1673ffffffffffffffffffffffffffffffffffffffff1681526020019081526020015f205f8573ffffffffffffffffffffffffffffffffffffffff1673ffffffffffffffffffffffffffffffffffffffff1681526020019081526020015f20548273ffffffffffffffffffffffffffffffffffffffff166131889190615fc7565b8373ffffffffffffffffffffffffffffffffffffffff1611156131d7576040517f06bc047a00000000000000000000000000000000000000000000000000000000815260040160405180910390fd5b5f8473ffffffffffffffffffffffffffffffffffffffff166370a08231876040518263ffffffff1660e01b81526004016132119190614f90565b602060405180830381865afa15801561322c573d5f5f3e3d5ffd5b505050506040513d601f19601f8201168201806040525081019061325091906155c2565b90505f8573ffffffffffffffffffffffffffffffffffffffff166370a08231306040518263ffffffff1660e01b815260040161328c9190614f90565b602060405180830381865afa1580156132a7573d5f5f3e3d5ffd5b505050506040513d601f19601f820116820180604052508101906132cb91906155c2565b90508373ffffffffffffffffffffffffffffffffffffffff1682101561332a5781846040517ff07533670000000000000000000000000000000000000000000000000000000081526004016133219291906155ed565b60405180910390fd5b61336d87308673ffffffffffffffffffffffffffffffffffffffff168973ffffffffffffffffffffffffffffffffffffffff16613fb5909392919063ffffffff16565b5f818773ffffffffffffffffffffffffffffffffffffffff166370a08231306040518263ffffffff1660e01b81526004016133a89190614f90565b602060405180830381865afa1580156133c3573d5f5f3e3d5ffd5b505050506040513d601f19601f820116820180604052508101906133e791906155c2565b6133f19190615562565b905060405180608001604052808773ffffffffffffffffffffffffffffffffffffffff1681526020015f151581526020018873ffffffffffffffffffffffffffffffffffffffff1681526020018973ffffffffffffffffffffffffffffffffffffffff168152505f5f8681526020019081526020015f205f820151815f015f6101000a81548173ffffffffffffffffffffffffffffffffffffffff021916908373ffffffffffffffffffffffffffffffffffffffff1602179055506020820151815f0160146101000a81548160ff0219169083151502179055506040820151816001015f6101000a81548173ffffffffffffffffffffffffffffffffffffffff021916908373ffffffffffffffffffffffffffffffffffffffff1602179055506060820151816002015f6101000a81548173ffffffffffffffffffffffffffffffffffffffff021916908373ffffffffffffffffffffffffffffffffffffffff1602179055509050508573ffffffffffffffffffffffffffffffffffffffff1681106136d3578573ffffffffffffffffffffffffffffffffffffffff1660035f8a73ffffffffffffffffffffffffffffffffffffffff1673ffffffffffffffffffffffffffffffffffffffff1681526020019081526020015f205f8973ffffffffffffffffffffffffffffffffffffffff1673ffffffffffffffffffffffffffffffffffffffff1681526020019081526020015f205f82825401925050819055508573ffffffffffffffffffffffffffffffffffffffff168111156136ce578573ffffffffffffffffffffffffffffffffffffffff16810360025f8a73ffffffffffffffffffffffffffffffffffffffff1673ffffffffffffffffffffffffffffffffffffffff1681526020019081526020015f205f8973ffffffffffffffffffffffffffffffffffffffff1673ffffffffffffffffffffffffffffffffffffffff1681526020019081526020015f205f82825401925050819055505b613808565b808673ffffffffffffffffffffffffffffffffffffffff166136f59190615562565b60025f8a73ffffffffffffffffffffffffffffffffffffffff1673ffffffffffffffffffffffffffffffffffffffff1681526020019081526020015f205f8973ffffffffffffffffffffffffffffffffffffffff1673ffffffffffffffffffffffffffffffffffffffff1681526020019081526020015f205f82825461377b9190615562565b925050819055508060035f8a73ffffffffffffffffffffffffffffffffffffffff1673ffffffffffffffffffffffffffffffffffffffff1681526020019081526020015f205f8973ffffffffffffffffffffffffffffffffffffffff1673ffffffffffffffffffffffffffffffffffffffff1681526020019081526020015f205f82825401925050819055505b5050505050505050565b5f7fe3bf10b5739e335154720a95c12f13044f17663dbd6ca01ac402fbc114960ecd845f016020810190613846919061536a565b856020016020810190613859919061536a565b866040013587606001358860800160208101906138769190615bfd565b8960a00160208101906138899190615bfd565b8a60c001358b8060e0019061389e9190615620565b6040516138ac929190616028565b60405180910390206040516020016138cc9998979695949392919061604f565b6040516020818303038152906040528051906020012090505f6138ee8261406a565b90505f6138fa826140e6565b90505f613908828787614116565b905086602001602081019061391d919061536a565b73ffffffffffffffffffffffffffffffffffffffff168173ffffffffffffffffffffffffffffffffffffffff161415801561398c575061395c5f612fa3565b73ffffffffffffffffffffffffffffffffffffffff168173ffffffffffffffffffffffffffffffffffffffff1614155b156139c3576040517f6cbfd82c00000000000000000000000000000000000000000000000000000000815260040160405180910390fd5b50505050505050565b600a61ffff168273ffffffffffffffffffffffffffffffffffffffff161015613a2c57816040517f7ccfd2ff000000000000000000000000000000000000000000000000000000008152600401613a23919061551c565b60405180910390fd5b5f60025f8673ffffffffffffffffffffffffffffffffffffffff1673ffffffffffffffffffffffffffffffffffffffff1681526020019081526020015f205f8573ffffffffffffffffffffffffffffffffffffffff1673ffffffffffffffffffffffffffffffffffffffff1681526020019081526020015f205490508273ffffffffffffffffffffffffffffffffffffffff16811015613b055780836040517ff0753367000000000000000000000000000000000000000000000000000000008152600401613afc9291906155ed565b60405180910390fd5b5f5f5f8481526020019081526020015f205f015f9054906101000a900473ffffffffffffffffffffffffffffffffffffffff1673ffffffffffffffffffffffffffffffffffffffff1690505f811115613b9557826040517f9db46e78000000000000000000000000000000000000000000000000000000008152600401613b8c9190615595565b60405180910390fd5b60405180608001604052808573ffffffffffffffffffffffffffffffffffffffff1681526020015f151581526020018673ffffffffffffffffffffffffffffffffffffffff1681526020018773ffffffffffffffffffffffffffffffffffffffff168152505f5f8581526020019081526020015f205f820151815f015f6101000a81548173ffffffffffffffffffffffffffffffffffffffff021916908373ffffffffffffffffffffffffffffffffffffffff1602179055506020820151815f0160146101000a81548160ff0219169083151502179055506040820151816001015f6101000a81548173ffffffffffffffffffffffffffffffffffffffff021916908373ffffffffffffffffffffffffffffffffffffffff1602179055506060820151816002015f6101000a81548173ffffffffffffffffffffffffffffffffffffffff021916908373ffffffffffffffffffffffffffffffffffffffff1602179055509050508373ffffffffffffffffffffffffffffffffffffffff1660025f8873ffffffffffffffffffffffffffffffffffffffff1673ffffffffffffffffffffffffffffffffffffffff1681526020019081526020015f205f8773ffffffffffffffffffffffffffffffffffffffff1673ffffffffffffffffffffffffffffffffffffffff1681526020019081526020015f205f828254613d999190615562565b925050819055508373ffffffffffffffffffffffffffffffffffffffff1660035f8873ffffffffffffffffffffffffffffffffffffffff1673ffffffffffffffffffffffffffffffffffffffff1681526020019081526020015f205f8773ffffffffffffffffffffffffffffffffffffffff1673ffffffffffffffffffffffffffffffffffffffff1681526020019081526020015f205f82825401925050819055508473ffffffffffffffffffffffffffffffffffffffff168673ffffffffffffffffffffffffffffffffffffffff167fb81416b4858ebe34ae0e4d809cdc45e1301b5c325c0ba34c8bf0474ae89f7bb88686604051613e9a9291906160da565b60405180910390a3505050505050565b6060806040518060400160405280600681526020017f4d696472696200000000000000000000000000000000000000000000000000008152509150613ef2600260ff16614221565b90509091565b5f60405190506020815281816020015280604001808360051b808684378083019050808515613f8c575b600115613f8b578351870180356020820183375f38823584305af4613f49573d5f873e3d86fd5b83820385528460200194503d8252602082013d5f823e67ffffffffffffffe0601f3d8301011692505f3d820152838610613f84575050613f8b565b5050613f22565b5b806040528485820360401b1794505050505092915050565b8060401c8167ffffffffffffffff16f35b60405181606052826040528360601b602c526f23b872dd000000000000000000000000600c5260205f6064601c5f895af18060015f51141661400a57803d873b15171061400957637939f4245f526004601cfd5b5b5f60605281604052505050505050565b5f7401000000000000000000000000000000000000000082106140405761403f614243565b5b819050919050565b5f68010000000000000000821061406257614061614243565b5b819050919050565b5f614073614250565b1561408757614080614254565b90506140c3565b7f000000000000000000000000000000000000000000000000000000000000000090506140b261431c565b156140c2576140bf614254565b90505b5b6719010000000000005f5280601a5281603a52604260182090505f603a52919050565b5f816020527b19457468657265756d205369676e6564204d6573736167653a0a33325f52603c6004209050919050565b5f60405160011561419a578260408114614138576041811461415c575061418d565b6020850135601b8160ff1c0160205285356040528060011b60011c6060525061416d565b60408501355f1a6020526040856040375b50845f526020600160805f60015afa5191505f606052806040523d61419a575b638baa579f5f526004601cfd5b509392505050565b5f5f6141ac614211565b90508281013560f01c915050919050565b81601452806034526fa9059cbb0000000000000000000000005f5260205f604460105f875af18060015f51141661420757803d853b151710614206576390b8ec185f526004601cfd5b5b5f60345250505050565b5f600236033560f01c3603905090565b6060604051604081016040526001815282603001602082015380915050919050565b6335278d125f526004601cfd5b5f90565b5f5f61425e614250565b1561428c575f5f61426d613eaa565b91509150818051906020012093508080519060200120925050506142d3565b7f000000000000000000000000000000000000000000000000000000000000000091507f000000000000000000000000000000000000000000000000000000000000000090505b6040517f8b73c3c69bb8fe3d512ecc4cf759cc79239f7b179b0ffacaa9a75d522b39400f815282602082015281604082015246606082015230608082015260a081209250505090565b5f5f7f000000000000000000000000000000000000000000000000000000000000000090505f7f0000000000000000000000000000000000000000000000000000000000000000905080301482461416159250505090565b6040518061010001604052805f73ffffffffffffffffffffffffffffffffffffffff1681526020015f81526020015f63ffffffff1681526020015f63ffffffff1681526020015f81526020016060815260200160608152602001606081525090565b60405180606001604052806143e9614503565b81526020015f73ffffffffffffffffffffffffffffffffffffffff1681526020015f81525090565b6040518060e001604052805f73ffffffffffffffffffffffffffffffffffffffff1681526020015f73ffffffffffffffffffffffffffffffffffffffff1681526020015f73ffffffffffffffffffffffffffffffffffffffff1681526020015f73ffffffffffffffffffffffffffffffffffffffff1681526020015f81526020015f73ffffffffffffffffffffffffffffffffffffffff168152602001606081525090565b60405180608001604052805f81526020015f81526020015f81526020015f81525090565b60405180606001604052805f67ffffffffffffffff1681526020015f8152602001606081525090565b60405180608001604052805f73ffffffffffffffffffffffffffffffffffffffff1681526020015f73ffffffffffffffffffffffffffffffffffffffff1681526020015f65ffffffffffff1681526020015f65ffffffffffff1681525090565b5f604051905090565b5f5ffd5b5f5ffd5b5f73ffffffffffffffffffffffffffffffffffffffff82169050919050565b5f61459d82614574565b9050919050565b6145ad81614593565b81146145b7575f5ffd5b50565b5f813590506145c8816145a4565b92915050565b6145d781614574565b81146145e1575f5ffd5b50565b5f813590506145f2816145ce565b92915050565b5f5f6040838503121561460e5761460d61456c565b5b5f61461b858286016145ba565b925050602061462c858286016145e4565b9150509250929050565b5f5f6040838503121561464c5761464b61456c565b5b5f614659858286016145ba565b925050602061466a858286016145ba565b9150509250929050565b5f819050919050565b61468681614674565b82525050565b5f60208201905061469f5f83018461467d565b92915050565b5f5ffd5b5f61010082840312156146bf576146be6146a5565b5b81905092915050565b5f5ffd5b5f5ffd5b5f5ffd5b5f5f83601f8401126146e9576146e86146c8565b5b8235905067ffffffffffffffff811115614706576147056146cc565b5b602083019150836001820283011115614722576147216146d0565b5b9250929050565b5f5f5f604084860312156147405761473f61456c565b5b5f84013567ffffffffffffffff81111561475d5761475c614570565b5b614769868287016146a9565b935050602084013567ffffffffffffffff81111561478a57614789614570565b5b614796868287016146d4565b92509250509250925092565b6147ab81614593565b82525050565b6147ba81614674565b82525050565b5f63ffffffff82169050919050565b6147d8816147c0565b82525050565b5f819050919050565b6147f0816147de565b82525050565b5f81519050919050565b5f82825260208201905092915050565b5f819050602082019050919050565b608082015f8201516148335f8501826147e7565b50602082015161484660208501826147b1565b50604082015161485960408501826147e7565b50606082015161486c60608501826147b1565b50505050565b5f61487d838361481f565b60808301905092915050565b5f602082019050919050565b5f61489f826147f6565b6148a98185614800565b93506148b483614810565b805f5b838110156148e45781516148cb8882614872565b97506148d683614889565b9250506001810190506148b7565b5085935050505092915050565b5f81519050919050565b5f82825260208201905092915050565b5f819050602082019050919050565b5f67ffffffffffffffff82169050919050565b6149368161491a565b82525050565b5f81519050919050565b5f82825260208201905092915050565b8281835e5f83830152505050565b5f601f19601f8301169050919050565b5f61497e8261493c565b6149888185614946565b9350614998818560208601614956565b6149a181614964565b840191505092915050565b5f606083015f8301516149c15f86018261492d565b5060208301516149d460208601826147e7565b50604083015184820360408601526149ec8282614974565b9150508091505092915050565b5f614a0483836149ac565b905092915050565b5f602082019050919050565b5f614a22826148f1565b614a2c81856148fb565b935083602082028501614a3e8561490b565b805f5b85811015614a795784840389528151614a5a85826149f9565b9450614a6583614a0c565b925060208a01995050600181019050614a41565b50829750879550505050505092915050565b5f61010083015f830151614aa15f8601826147a2565b506020830151614ab460208601826147b1565b506040830151614ac760408601826147cf565b506060830151614ada60608601826147cf565b506080830151614aed60808601826147e7565b5060a083015184820360a0860152614b058282614895565b91505060c083015184820360c0860152614b1f8282614895565b91505060e083015184820360e0860152614b398282614a18565b9150508091505092915050565b5f6020820190508181035f830152614b5e8184614a8b565b905092915050565b5f60608284031215614b7b57614b7a6146a5565b5b81905092915050565b5f60208284031215614b9957614b9861456c565b5b5f82013567ffffffffffffffff811115614bb657614bb5614570565b5b614bc284828501614b66565b91505092915050565b5f60ff82169050919050565b614be081614bcb565b82525050565b5f602082019050614bf95f830184614bd7565b92915050565b614c08816147de565b8114614c12575f5ffd5b50565b5f81359050614c2381614bff565b92915050565b5f5f5f5f5f60608688031215614c4257614c4161456c565b5b5f614c4f88828901614c15565b955050602086013567ffffffffffffffff811115614c7057614c6f614570565b5b614c7c888289016146d4565b9450945050604086013567ffffffffffffffff811115614c9f57614c9e614570565b5b614cab888289016146d4565b92509250509295509295909350565b5f5f5f5f5f60608688031215614cd357614cd261456c565b5b5f86013567ffffffffffffffff811115614cf057614cef614570565b5b614cfc888289016146a9565b955050602086013567ffffffffffffffff811115614d1d57614d1c614570565b5b614d29888289016146d4565b9450945050604086013567ffffffffffffffff811115614d4c57614d4b614570565b5b614d58888289016146d4565b92509250509295509295909350565b5f7fff0000000000000000000000000000000000000000000000000000000000000082169050919050565b614d9b81614d67565b82525050565b5f81519050919050565b5f82825260208201905092915050565b5f614dc582614da1565b614dcf8185614dab565b9350614ddf818560208601614956565b614de881614964565b840191505092915050565b614dfc81614593565b82525050565b614e0b816147de565b82525050565b5f81519050919050565b5f82825260208201905092915050565b5f819050602082019050919050565b5f614e4583836147b1565b60208301905092915050565b5f602082019050919050565b5f614e6782614e11565b614e718185614e1b565b9350614e7c83614e2b565b805f5b83811015614eac578151614e938882614e3a565b9750614e9e83614e51565b925050600181019050614e7f565b5085935050505092915050565b5f60e082019050614ecc5f83018a614d92565b8181036020830152614ede8189614dbb565b90508181036040830152614ef28188614dbb565b9050614f01606083018761467d565b614f0e6080830186614df3565b614f1b60a0830185614e02565b81810360c0830152614f2d8184614e5d565b905098975050505050505050565b614f4481614674565b8114614f4e575f5ffd5b50565b5f81359050614f5f81614f3b565b92915050565b5f60208284031215614f7a57614f7961456c565b5b5f614f8784828501614f51565b91505092915050565b5f602082019050614fa35f830184614df3565b92915050565b5f5f83601f840112614fbe57614fbd6146c8565b5b8235905067ffffffffffffffff811115614fdb57614fda6146cc565b5b602083019150836020820283011115614ff757614ff66146d0565b5b9250929050565b5f5f602083850312156150145761501361456c565b5b5f83013567ffffffffffffffff81111561503157615030614570565b5b61503d85828601614fa9565b92509250509250929050565b5f81519050919050565b5f82825260208201905092915050565b5f819050602082019050919050565b5f61507d8383614974565b905092915050565b5f602082019050919050565b5f61509b82615049565b6150a58185615053565b9350836020820285016150b785615063565b805f5b858110156150f257848403895281516150d38582615072565b94506150de83615085565b925060208a019950506001810190506150ba565b50829750879550505050505092915050565b5f6020820190508181035f83015261511c8184615091565b905092915050565b5f602082840312156151395761513861456c565b5b5f61514684828501614c15565b91505092915050565b5f61ffff82169050919050565b6151658161514f565b82525050565b5f60208201905061517e5f83018461515c565b92915050565b5f5ffd5b7f4e487b71000000000000000000000000000000000000000000000000000000005f52604160045260245ffd5b6151be82614964565b810181811067ffffffffffffffff821117156151dd576151dc615188565b5b80604052505050565b5f6151ef614563565b90506151fb82826151b5565b919050565b5f5ffd5b60028110615210575f5ffd5b50565b5f8135905061522181615204565b92915050565b60078110615233575f5ffd5b50565b5f8135905061524481615227565b92915050565b5f61010082840312156152605761525f615184565b5b61526b6101006151e6565b90505f61527a848285016145ba565b5f83015250602061528d84828501615213565b60208301525060406152a184828501615236565b60408301525060606152b5848285016145ba565b60608301525060806152c9848285016145ba565b60808301525060a06152dd848285016145e4565b60a08301525060c06152f184828501614f51565b60c08301525060e061530584828501614c15565b60e08301525092915050565b5f61010082840312156153275761532661456c565b5b5f6153348482850161524a565b91505092915050565b7f4e487b71000000000000000000000000000000000000000000000000000000005f52602160045260245ffd5b5f6020828403121561537f5761537e61456c565b5b5f61538c848285016145ba565b91505092915050565b61539e81614574565b82525050565b5f65ffffffffffff82169050919050565b6153be816153a4565b82525050565b608082015f8201516153d85f8501826147a2565b5060208201516153eb6020850182615395565b5060408201516153fe60408501826153b5565b50606082015161541160608501826153b5565b50505050565b60c082015f82015161542b5f8501826153c4565b50602082015161543e60808501826147a2565b50604082015161545160a08501826147b1565b50505050565b5f82825260208201905092915050565b828183375f83830152505050565b5f6154808385615457565b935061548d838584615467565b61549683614964565b840190509392505050565b5f610100820190506154b55f830187614df3565b6154c26020830186615417565b81810360e08301526154d5818486615475565b905095945050505050565b7f4e487b71000000000000000000000000000000000000000000000000000000005f52603260045260245ffd5b61551681614574565b82525050565b5f60208201905061552f5f83018461550d565b92915050565b7f4e487b71000000000000000000000000000000000000000000000000000000005f52601160045260245ffd5b5f61556c82614674565b915061557783614674565b925082820390508181111561558f5761558e615535565b5b92915050565b5f6020820190506155a85f830184614e02565b92915050565b5f815190506155bc81614f3b565b92915050565b5f602082840312156155d7576155d661456c565b5b5f6155e4848285016155ae565b91505092915050565b5f6040820190506156005f83018561467d565b61560d602083018461550d565b9392505050565b5f5ffd5b5f5ffd5b5f5ffd5b5f5f8335600160200384360303811261563c5761563b615614565b5b80840192508235915067ffffffffffffffff82111561565e5761565d615618565b5b60208301925060018202360383131561567a5761567961561c565b5b509250929050565b61568b816153a4565b8114615695575f5ffd5b50565b5f813590506156a681615682565b92915050565b5f608082840312156156c1576156c0615184565b5b6156cb60806151e6565b90505f6156da848285016145ba565b5f8301525060206156ed848285016145e4565b602083015250604061570184828501615698565b604083015250606061571584828501615698565b60608301525092915050565b5f60c0828403121561573657615735615184565b5b61574060606151e6565b90505f61574f848285016156ac565b5f830152506080615762848285016145ba565b60208301525060a061577684828501614f51565b60408301525092915050565b5f5ffd5b5f67ffffffffffffffff8211156157a05761579f615188565b5b6157a982614964565b9050602081019050919050565b5f6157c86157c384615786565b6151e6565b9050828152602081018484840111156157e4576157e3615782565b5b6157ef848285615467565b509392505050565b5f82601f83011261580b5761580a6146c8565b5b813561581b8482602086016157b6565b91505092915050565b5f60e0828403121561583957615838615184565b5b61584360e06151e6565b90505f615852848285016145ba565b5f830152506020615865848285016145e4565b6020830152506040615879848285016145e4565b604083015250606061588d848285016145ba565b60608301525060806158a184828501614f51565b60808301525060a06158b5848285016145ba565b60a08301525060c082013567ffffffffffffffff8111156158d9576158d8615200565b5b6158e5848285016157f7565b60c08301525092915050565b5f5f5f61010084860312156159095761590861456c565b5b5f61591686828701615236565b935050602061592786828701615721565b92505060e084013567ffffffffffffffff81111561594857615947614570565b5b61595486828701615824565b9150509250925092565b5f82905092915050565b5f82821b905092915050565b5f61597f838361595e565b8261598a81356147de565b925060208210156159ca576159c57fffffffffffffffffffffffffffffffffffffffffffffffffffffffffffffffff83602003600802615968565b831692505b505092915050565b5f6159e060208401846145ba565b905092915050565b5f6159f66020840184614f51565b905092915050565b615a07816147c0565b8114615a11575f5ffd5b50565b5f81359050615a22816159fe565b92915050565b5f615a366020840184615a14565b905092915050565b5f615a4c6020840184614c15565b905092915050565b5f5ffd5b5f5ffd5b5f5ffd5b5f5f83356001602003843603038112615a7c57615a7b615a5c565b5b83810192508235915060208301925067ffffffffffffffff821115615aa457615aa3615a54565b5b600182023603831315615aba57615ab9615a58565b5b509250929050565b5f615acd8385614946565b9350615ada838584615467565b615ae383614964565b840190509392505050565b5f6101008301615b005f8401846159d2565b615b0c5f8601826147a2565b50615b1a60208401846159d2565b615b2760208601826147a2565b50615b3560408401846159e8565b615b4260408601826147b1565b50615b5060608401846159e8565b615b5d60608601826147b1565b50615b6b6080840184615a28565b615b7860808601826147cf565b50615b8660a0840184615a28565b615b9360a08601826147cf565b50615ba160c0840184615a3e565b615bae60c08601826147e7565b50615bbc60e0840184615a60565b85830360e0870152615bcf838284615ac2565b925050508091505092915050565b5f6020820190508181035f830152615bf58184615aee565b905092915050565b5f60208284031215615c1257615c1161456c565b5b5f615c1f84828501615a14565b91505092915050565b5f6040820190508181035f830152615c408185615aee565b9050615c4f602083018461467d565b9392505050565b5f60608301615c675f840184615a28565b615c735f8601826147cf565b50615c816020840184615a3e565b615c8e60208601826147e7565b50615c9c6040840184615a60565b8583036040870152615caf838284615ac2565b925050508091505092915050565b5f6020820190508181035f830152615cd58184615c56565b905092915050565b5f6040820190508181035f830152615cf58185615c56565b9050615d04602083018461467d565b9392505050565b60028110615d1c57615d1b61533d565b5b50565b5f819050615d2c82615d0b565b919050565b5f615d3b82615d1f565b9050919050565b615d4b81615d31565b82525050565b60078110615d6257615d6161533d565b5b50565b5f819050615d7282615d51565b919050565b5f615d8182615d65565b9050919050565b615d9181615d77565b82525050565b5f61012082019050615dab5f83018c614e02565b615db8602083018b614df3565b615dc5604083018a615d42565b615dd26060830189615d88565b615ddf6080830188614df3565b615dec60a0830187614df3565b615df960c083018661550d565b615e0660e083018561467d565b615e14610100830184614e02565b9a9950505050505050505050565b5f615e2c82614574565b9150615e3783614574565b9250828202615e4581614574565b91508282048414831517615e5c57615e5b615535565b5b5092915050565b7f4e487b71000000000000000000000000000000000000000000000000000000005f52601260045260245ffd5b5f615e9a82614574565b9150615ea583614574565b925082615eb557615eb4615e63565b5b828204905092915050565b5f81519050615ece816145a4565b92915050565b5f60208284031215615ee957615ee861456c565b5b5f615ef684828501615ec0565b91505092915050565b5f608082019050615f125f83018761550d565b615f1f602083018661550d565b615f2c604083018561467d565b615f396060830184614e02565b95945050505050565b5f819050919050565b5f819050919050565b5f615f6e615f69615f6484615f42565b615f4b565b614574565b9050919050565b615f7e81615f54565b82525050565b5f608082019050615f975f83018761550d565b615fa46020830186615f75565b615fb1604083018561467d565b615fbe6060830184614e02565b95945050505050565b5f615fd182614674565b9150615fdc83614674565b9250828201905080821115615ff457615ff3615535565b5b92915050565b5f81905092915050565b5f61600f8385615ffa565b935061601c838584615467565b82840190509392505050565b5f616034828486616004565b91508190509392505050565b616049816147c0565b82525050565b5f610120820190506160635f83018c614e02565b616070602083018b614df3565b61607d604083018a614df3565b61608a606083018961467d565b616097608083018861467d565b6160a460a0830187616040565b6160b160c0830186616040565b6160be60e0830185614e02565b6160cc610100830184614e02565b9a9950505050505050505050565b5f6040820190506160ed5f83018561550d565b6160fa6020830184614e02565b939250505056fea264697066735822122048f68caecfa3cd48867416839515d0adb343777423e0d31f169022861ce1eb9e64736f6c634300081f0033",
  "contractName": "MidribV2",
  "devdoc": null,
  "storageLayout": null,
  "userdoc": null
}