{"abi":[{"type":"fallback","stateMutability":"nonpayable"},{"type":"function","name":"MIN_ORDER_SIZE","inputs":[],"outputs":[{"name":"","type":"uint16","internalType":"uint16"}],"stateMutability":"view"},{"type":"function","name":"NATIVE","inputs":[],"outputs":[{"name":"","type":"address","internalType":"address"}],"stateMutability":"view"},{"type":"function","name":"WITHDRAW_EPOCH","inputs":[],"outputs":[{"name":"","type":"uint256","internalType":"uint256"}],"stateMutability":"view"},{"type":"function","name":"deposit","inputs":[{"name":"_token","type":"address","internalType":"address"},{"name":"_amount","type":"uint160","internalType":"uint160"}],"outputs":[],"stateMutability":"nonpayable"},{"type":"function","name":"depositFor","inputs":[{"name":"_account","type":"address","internalType":"address"},{"name":"_token","type":"address","internalType":"address"},{"name":"_amount","type":"uint160","internalType":"uint160"}],"outputs":[],"stateMutability":"nonpayable"},{"type":"function","name":"depositNative","inputs":[],"outputs":[],"stateMutability":"payable"},{"type":"function","name":"depositNativeFor","inputs":[{"name":"_account","type":"address","internalType":"address"}],"outputs":[],"stateMutability":"payable"},{"type":"function","name":"eip712Domain","inputs":[],"outputs":[{"name":"fields","type":"bytes1","internalType":"bytes1"},{"name":"name","type":"string","internalType":"string"},{"name":"version","type":"string","internalType":"string"},{"name":"chainId","type":"uint256","internalType":"uint256"},{"name":"verifyingContract","type":"address","internalType":"address"},{"name":"salt","type":"bytes32","internalType":"bytes32"},{"name":"extensions","type":"uint256[]","internalType":"uint256[]"}],"stateMutability":"view"},{"type":"function","name":"factory","inputs":[],"outputs":[{"name":"_factory","type":"address","internalType":"address"}],"stateMutability":"pure"},{"type":"function","name":"maintenanceAccrued","inputs":[{"name":"token","type":"address","internalType":"address"}],"outputs":[{"name":"amount","type":"uint256","internalType":"uint256"}],"stateMutability":"view"},{"type":"function","name":"maintenanceAddress","inputs":[],"outputs":[{"name":"","type":"address","internalType":"address"}],"stateMutability":"pure"},{"type":"function","name":"maintenanceBps","inputs":[],"outputs":[{"name":"","type":"uint16","internalType":"uint16"}],"stateMutability":"pure"},{"type":"function","name":"multicall","inputs":[{"name":"data","type":"bytes[]","internalType":"bytes[]"}],"outputs":[{"name":"","type":"bytes[]","internalType":"bytes[]"}],"stateMutability":"payable"},{"type":"function","name":"operatorAccrued","inputs":[{"name":"token","type":"address","internalType":"address"}],"outputs":[{"name":"amount","type":"uint256","internalType":"uint256"}],"stateMutability":"view"},{"type":"function","name":"operatorAddress","inputs":[],"outputs":[{"name":"","type":"address","internalType":"address"}],"stateMutability":"view"},{"type":"function","name":"operatorAdmin","inputs":[],"outputs":[{"name":"","type":"address","internalType":"address"}],"stateMutability":"view"},{"type":"function","name":"operatorBps","inputs":[],"outputs":[{"name":"","type":"uint16","internalType":"uint16"}],"stateMutability":"view"},{"type":"function","name":"owner","inputs":[],"outputs":[{"name":"_owner","type":"address","internalType":"address"}],"stateMutability":"pure"},{"type":"function","name":"setOperatorAdmin","inputs":[{"name":"_newAdmin","type":"address","internalType":"address"}],"outputs":[],"stateMutability":"nonpayable"},{"type":"function","name":"setOperatorFee","inputs":[{"name":"_recipient","type":"address","internalType":"address"},{"name":"_bps","type":"uint16","internalType":"uint16"}],"outputs":[],"stateMutability":"nonpayable"},{"type":"function","name":"setWithdrawEpochCap","inputs":[{"name":"_token","type":"address","internalType":"address"},{"name":"_cap","type":"uint256","internalType":"uint256"}],"outputs":[],"stateMutability":"nonpayable"},{"type":"function","name":"settleBatch","inputs":[{"name":"_deltas","type":"tuple[]","internalType":"struct MidribV3.SettleDelta[]","components":[{"name":"user","type":"address","internalType":"address"},{"name":"token","type":"address","internalType":"address"},{"name":"delta","type":"int256","internalType":"int256"}]},{"name":"_volumes","type":"tuple[]","internalType":"struct MidribV3.TokenVolume[]","components":[{"name":"token","type":"address","internalType":"address"},{"name":"grossVolume","type":"uint256","internalType":"uint256"}]},{"name":"_nonce","type":"uint256","internalType":"uint256"},{"name":"_signature","type":"bytes","internalType":"bytes"}],"outputs":[],"stateMutability":"nonpayable"},{"type":"function","name":"settleFees","inputs":[{"name":"_token","type":"address","internalType":"address"}],"outputs":[],"stateMutability":"nonpayable"},{"type":"function","name":"tradeBalance","inputs":[{"name":"holder","type":"address","internalType":"address"},{"name":"token","type":"address","internalType":"address"}],"outputs":[{"name":"amount","type":"uint256","internalType":"uint256"}],"stateMutability":"view"},{"type":"function","name":"usedSettleNonces","inputs":[{"name":"nonce","type":"uint256","internalType":"uint256"}],"outputs":[{"name":"used","type":"bool","internalType":"bool"}],"stateMutability":"view"},{"type":"function","name":"usedWithdrawNonces","inputs":[{"name":"account","type":"address","internalType":"address"},{"name":"nonce","type":"uint256","internalType":"uint256"}],"outputs":[{"name":"used","type":"bool","internalType":"bool"}],"stateMutability":"view"},{"type":"function","name":"version","inputs":[],"outputs":[{"name":"_version","type":"uint8","internalType":"uint8"}],"stateMutability":"pure"},{"type":"function","name":"withdraw","inputs":[{"name":"_v","type":"tuple","internalType":"struct MidribV3.WithdrawalVoucher","components":[{"name":"account","type":"address","internalType":"address"},{"name":"token","type":"address","internalType":"address"},{"name":"amount","type":"uint256","internalType":"uint256"},{"name":"nonce","type":"uint256","internalType":"uint256"},{"name":"expiry","type":"uint256","internalType":"uint256"}]},{"name":"_signature","type":"bytes","internalType":"bytes"}],"outputs":[],"stateMutability":"nonpayable"},{"type":"function","name":"withdrawEpochCap","inputs":[{"name":"token","type":"address","internalType":"address"}],"outputs":[{"name":"cap","type":"uint256","internalType":"uint256"}],"stateMutability":"view"},{"type":"function","name":"withdrawnInEpoch","inputs":[{"name":"token","type":"address","internalType":"address"},{"name":"epoch","type":"uint256","internalType":"uint256"}],"outputs":[{"name":"amount","type":"uint256","internalType":"uint256"}],"stateMutability":"view"},{"type":"event","name":"FeesSettled","inputs":[{"name":"token","type":"address","indexed":true,"internalType":"address"},{"name":"maintenanceRecipient","type":"address","indexed":true,"internalType":"address"},{"name":"maintenanceAmount","type":"uint256","indexed":false,"internalType":"uint256"},{"name":"operatorRecipient","type":"address","indexed":true,"internalType":"address"},{"name":"operatorAmount","type":"uint256","indexed":false,"internalType":"uint256"}],"anonymous":false},{"type":"event","name":"NetSettled","inputs":[{"name":"user","type":"address","indexed":true,"internalType":"address"},{"name":"tokenContract","type":"address","indexed":true,"internalType":"address"},{"name":"delta","type":"int256","indexed":false,"internalType":"int256"}],"anonymous":false},{"type":"event","name":"OperatorAdminSet","inputs":[{"name":"oldAdmin","type":"address","indexed":true,"internalType":"address"},{"name":"newAdmin","type":"address","indexed":true,"internalType":"address"}],"anonymous":false},{"type":"event","name":"OperatorFeeSet","inputs":[{"name":"recipient","type":"address","indexed":true,"internalType":"address"},{"name":"bps","type":"uint16","indexed":false,"internalType":"uint16"}],"anonymous":false},{"type":"event","name":"TokenDeposited","inputs":[{"name":"user","type":"address","indexed":true,"internalType":"address"},{"name":"tokenContract","type":"address","indexed":true,"internalType":"address"},{"name":"amount","type":"uint160","indexed":false,"internalType":"uint160"}],"anonymous":false},{"type":"event","name":"Withdrawn","inputs":[{"name":"account","type":"address","indexed":true,"internalType":"address"},{"name":"tokenContract","type":"address","indexed":true,"internalType":"address"},{"name":"amount","type":"uint256","indexed":false,"internalType":"uint256"},{"name":"nonce","type":"uint256","indexed":false,"internalType":"uint256"}],"anonymous":false},{"type":"error","name":"FEE_TOO_HIGH","inputs":[{"name":"totalBps","type":"uint256","internalType":"uint256"}]},{"type":"error","name":"INSUFFICIENT_BALANCE","inputs":[{"name":"available","type":"uint256","internalType":"uint256"},{"name":"required","type":"uint160","internalType":"uint160"}]},{"type":"error","name":"INVALID_SIGNER","inputs":[]},{"type":"error","name":"MINIMUM_ORDER_AMOUNT","inputs":[{"name":"amount","type":"uint160","internalType":"uint160"}]},{"type":"error","name":"Reentrancy","inputs":[]},{"type":"error","name":"SETTLE_NONCE_ALREADY_USED","inputs":[]},{"type":"error","name":"SETTLE_NOT_CONSERVED","inputs":[]},{"type":"error","name":"UNAUTHORIZED_CALLER","inputs":[]},{"type":"error","name":"WITHDRAW_NONCE_ALREADY_USED","inputs":[]},{"type":"error","name":"WITHDRAW_RATE_LIMITED","inputs":[{"name":"cap","type":"uint256","internalType":"uint256"},{"name":"attempted","type":"uint256","internalType":"uint256"}]},{"type":"error","name":"WITHDRAW_VOUCHER_EXPIRED","inputs":[]},{"type":"error","name":"ZERO_ADDRESS_OPERATOR","inputs":[]},{"type":"error","name":"ZERO_ADDRESS_OPERATOR_ADMIN","inputs":[]},{"type":"error","name":"ZERO_AMOUNT","inputs":[]}],"bytecode":{"object":"0x61012060405234801561001157600080fd5b50306080524660a05260608061002561008e565b815160209283012081519183019190912060c082905260e0819052604080517f8b73c3c69bb8fe3d512ecc4cf759cc79239f7b179b0ffacaa9a75d522b39400f8152938401929092529082015246606082015230608082015260a0902061010052506100dc9050565b60408051808201909152600681526526b4b23934b160d11b602082015260606100b760036100bd565b90509091565b6060604051604081016040526001815282603001602082015392915050565b60805160a05160c05160e05161010051612b6e610120600039600061223d015260006122f7015260006122d1015260006122810152600061225e0152612b6e6000f3fe6080604052600436106101cd5760003560e01c8063742960c1116100f7578063a4e0c18111610095578063c45a015511610064578063c45a0155146105f1578063d3f82d8e14610616578063db6b52461461062b578063e0a273bc1461063357600080fd5b8063a4e0c18114610569578063a78842ee1461057e578063ac9650d81461059e578063c4109253146105be57600080fd5b8063892d16be116100d1578063892d16be146104d15780638da5cb5b1461050c57806391a775b71461052e578063a0cf0aea1461054157600080fd5b8063742960c1146104445780637e122f531461047c57806384b0196e146104a957600080fd5b80634565fe4a1161016f57806362b629f91161013e57806362b629f9146103bc57806362fe8ee1146103e95780636de07157146103ff578063719d5f831461041f57600080fd5b80634565fe4a146103205780634e3250cf146103605780634e5c6e4e1461038057806354fd4d50146103a057600080fd5b806326ac1b1c116101ab57806326ac1b1c146102745780632d2cfb66146102945780632e673446146102b4578063426aabc2146102f357600080fd5b806303fde255146101d2578063127effb2146101f457806319d5f0c314610231575b600080fd5b3480156101de57600080fd5b506101f26101ed366004612431565b610653565b005b34801561020057600080fd5b50600554610214906001600160a01b031681565b6040516001600160a01b0390911681526020015b60405180910390f35b34801561023d57600080fd5b5061026661024c366004612431565b600060208181529281526040808220909352908152205481565b604051908152602001610228565b34801561028057600080fd5b506101f261028f36600461246a565b610699565b3480156102a057600080fd5b506101f26102af36600461249f565b610849565b3480156102c057600080fd5b506102e060003660011981013560f090811c909103603c0135901c905090565b60405161ffff9091168152602001610228565b3480156102ff57600080fd5b5061026661030e3660046124cb565b60036020526000908152604090205481565b34801561032c57600080fd5b5061035061033b3660046124e8565b60016020526000908152604090205460ff1681565b6040519015158152602001610228565b34801561036c57600080fd5b506101f261037b366004612501565b6108ad565b34801561038c57600080fd5b506101f261039b366004612595565b610b22565b3480156103ac57600080fd5b5060405160038152602001610228565b3480156103c857600080fd5b506102666103d73660046124cb565b60076020526000908152604090205481565b3480156103f557600080fd5b50610266610e1081565b34801561040b57600080fd5b506101f261041a3660046124cb565b610ef8565b34801561042b57600080fd5b503660011981013560f01c90036028013560601c610214565b34801561045057600080fd5b5061026661045f36600461249f565b600460209081526000928352604080842090915290825290205481565b34801561048857600080fd5b506102666104973660046124cb565b60086020526000908152604090205481565b3480156104b557600080fd5b506104be610fef565b6040516102289796959493929190612654565b3480156104dd57600080fd5b506103506104ec36600461249f565b600260209081526000928352604080842090915290825290205460ff1681565b34801561051857600080fd5b503660011981013560f01c90033560601c610214565b6101f261053c3660046124cb565b611032565b34801561054d57600080fd5b5061021473eeeeeeeeeeeeeeeeeeeeeeeeeeeeeeeeeeeeeeee81565b34801561057557600080fd5b50610214611075565b34801561058a57600080fd5b506101f26105993660046124cb565b6110a9565b6105b16105ac366004612708565b61123c565b604051610228919061277f565b3480156105ca57600080fd5b506005546102e09074010000000000000000000000000000000000000000900461ffff1681565b3480156105fd57600080fd5b503660011981013560f01c90036014013560601c610214565b34801561062257600080fd5b506102e0600a81565b6101f2611261565b34801561063f57600080fd5b506101f261064e366004612847565b6112a3565b3068929eee149b4bd2126854036106725763ab143c066000526004601cfd5b3068929eee149b4bd21268556106893383836117d4565b3868929eee149b4bd21268555050565b6106a1611075565b6001600160a01b0316336001600160a01b0316146106eb576040517fe15e56c900000000000000000000000000000000000000000000000000000000815260040160405180910390fd5b60008161ffff1611801561070657506001600160a01b038216155b1561073d576040517fe51bf64600000000000000000000000000000000000000000000000000000000815260040160405180910390fd5b60008161ffff1661076360003660011981013560f090811c909103603c0135901c905090565b61ffff166107719190612958565b90506127108111156107b7576040517f5c9bdcc6000000000000000000000000000000000000000000000000000000008152600481018290526024015b60405180910390fd5b600580546001600160a01b0385167fffffffffffffffffffff0000000000000000000000000000000000000000000090911681177401000000000000000000000000000000000000000061ffff861690810291909117909255604051918252907fd5650eed710468f7e377b318748df27ca6d4546f13b80aa9d6eec8c9abf23faa9060200160405180910390a2505050565b3660011981013560f01c90033560601c3314610891576040517fe15e56c900000000000000000000000000000000000000000000000000000000815260040160405180910390fd5b6001600160a01b03909116600090815260036020526040902055565b3068929eee149b4bd2126854036108cc5763ab143c066000526004601cfd5b3068929eee149b4bd2126855806001600160a01b031660000361091b576040517ff6fa545000000000000000000000000000000000000000000000000000000000815260040160405180910390fd5b600a6001600160a01b038216101561096a576040517f7ccfd2ff0000000000000000000000000000000000000000000000000000000081526001600160a01b03821660048201526024016107ae565b6040517f70a082310000000000000000000000000000000000000000000000000000000081523060048201526000906001600160a01b038416906370a0823190602401602060405180830381865afa1580156109ca573d6000803e3d6000fd5b505050506040513d601f19601f820116820180604052508101906109ee919061296b565b9050610a0a6001600160a01b0384811690339030908616611af2565b6040517f70a0823100000000000000000000000000000000000000000000000000000000815230600482015260009082906001600160a01b038616906370a0823190602401602060405180830381865afa158015610a6c573d6000803e3d6000fd5b505050506040513d601f19601f82011682018060405250810190610a90919061296b565b610a9a9190612984565b6001600160a01b03808716600081815260208181526040808320948a16808452949091529020805484019055919250907ff252e7564622d27c64805f4295d4aed7999599ad484da4eaa1377fc14df9f1d5610af484611b59565b6040516001600160a01b03909116815260200160405180910390a350503868929eee149b4bd2126855505050565b3068929eee149b4bd212685403610b415763ab143c066000526004601cfd5b3068929eee149b4bd2126855610b58838383611b83565b8260800135421115610b96576040517fcfb1238700000000000000000000000000000000000000000000000000000000815260040160405180910390fd5b60026000610ba760208601866124cb565b6001600160a01b03168152602080820192909252604090810160009081206060870135825290925290205460ff1615610c0c576040517f2152b76d00000000000000000000000000000000000000000000000000000000815260040160405180910390fd5b600160026000610c1f60208701876124cb565b6001600160a01b031681526020808201929092526040908101600090812060608801358252835290812080547fffffffffffffffffffffffffffffffffffffffffffffffffffffffffffffff00169315159390931790925581908190610c87908701876124cb565b6001600160a01b03166001600160a01b031681526020019081526020016000206000856020016020810190610cbc91906124cb565b6001600160a01b03166001600160a01b031681526020019081526020016000205490508084604001351115610d3d5780610cf98560400135611b59565b6040517ff075336700000000000000000000000000000000000000000000000000000000815260048101929092526001600160a01b031660248201526044016107ae565b610d5a610d5060408601602087016124cb565b8560400135611ccb565b610d68604085013582612984565b600080610d7860208801886124cb565b6001600160a01b03166001600160a01b031681526020019081526020016000206000866020016020810190610dad91906124cb565b6001600160a01b03166001600160a01b031681526020019081526020016000208190555073eeeeeeeeeeeeeeeeeeeeeeeeeeeeeeeeeeeeeeee6001600160a01b0316846020016020810190610e0291906124cb565b6001600160a01b031603610e3957610e346040850135610e2560208701876124cb565b6001600160a01b031690611da3565b610e6d565b610e6d610e4960208601866124cb565b60408601803590610e5d90602089016124cb565b6001600160a01b03169190611dc3565b610e7d60408501602086016124cb565b6001600160a01b0316610e9360208601866124cb565b6001600160a01b03167f91fb9d98b786c57d74c099ccd2beca1739e9f6a81fb49001ca465c4b7591bbe286604001358760600135604051610ede929190918252602082015260400190565b60405180910390a3503868929eee149b4bd2126855505050565b6000610f02611075565b9050336001600160a01b03821614610f46576040517fe15e56c900000000000000000000000000000000000000000000000000000000815260040160405180910390fd5b6001600160a01b038216610f86576040517fccd2609c00000000000000000000000000000000000000000000000000000000815260040160405180910390fd5b600680547fffffffffffffffffffffffff0000000000000000000000000000000000000000166001600160a01b0384811691821790925560405190918316907f6238bd8cf686042e0573e875b5120babc506c96bf63da70f5b8fdec308feb4c290600090a35050565b7f0f000000000000000000000000000000000000000000000000000000000000006060806000808083611020611e1c565b97989097965046955030945091925090565b3068929eee149b4bd2126854036110515763ab143c066000526004601cfd5b3068929eee149b4bd212685561106681611e62565b3868929eee149b4bd212685550565b6006546000906001600160a01b0316806110a1573660011981013560f01c9003603e013560601c6110a3565b805b91505090565b3068929eee149b4bd2126854036110c85763ab143c066000526004601cfd5b3068929eee149b4bd21268556001600160a01b038116600090815260076020526040902054801561113a576001600160a01b03821660008181526007602090815260408083208390553660011981013560f01c90036028013560601c8352828252808320938352929052208054820190555b6001600160a01b03808316600090815260086020526040902054600554909116811580159061117157506001600160a01b03811615155b156111b3576001600160a01b038085166000818152600860209081526040808320839055938516825281815283822092825291909152208054830190556111b8565b600091505b6001600160a01b0381163660011981013560f01c90036028013560601c6001600160a01b0316856001600160a01b03167f5c10360cd7c1ee27bdd881695aca458471acf57fec9bdd94efc9e11a3b5a8e268686604051611222929190918252602082015260400190565b60405180910390a45050503868929eee149b4bd212685550565b6060341561124957600080fd5b61125b6112568484611f6d565b612004565b92915050565b3068929eee149b4bd2126854036112805763ab143c066000526004601cfd5b3068929eee149b4bd212685561129533611e62565b3868929eee149b4bd2126855565b3068929eee149b4bd2126854036112c25763ab143c066000526004601cfd5b3068929eee149b4bd21268556112dd87878787878787612015565b60008381526001602052604090205460ff1615611326576040517f539110c900000000000000000000000000000000000000000000000000000000815260040160405180910390fd5b6000838152600160208190526040822080547fffffffffffffffffffffffffffffffffffffffffffffffffffffffffffffff00169091179055869061138060003660011981013560f090811c909103603c0135901c905090565b60055490915074010000000000000000000000000000000000000000900461ffff1660005b838110156115e05760008b8b838181106113c1576113c1612997565b90506060020160200160208101906113d991906124cb565b9050600160005b8381101561143b57826001600160a01b03168e8e8381811061140457611404612997565b905060600201602001602081019061141c91906124cb565b6001600160a01b031603611433576000915061143b565b6001016113e0565b50806114485750506115d8565b6000805b878110156114c857836001600160a01b03168f8f8381811061147057611470612997565b905060600201602001602081019061148891906124cb565b6001600160a01b0316036114c0578e8e828181106114a8576114a8612997565b90506060020160400135826114bd91906129c6565b91505b60010161144c565b5060006114d68d8d8661218e565b905060006127106114eb61ffff8a16846129ee565b6114f59190612a05565b9050600061271061150a61ffff8a16856129ee565b6115149190612a05565b90506115286115238284612958565b612213565b61153190612a40565b8414611569576040517f053b624b00000000000000000000000000000000000000000000000000000000815260040160405180910390fd5b811561159d576001600160a01b03861660009081526007602052604081208054849290611597908490612958565b90915550505b80156115d1576001600160a01b038616600090815260086020526040812080548392906115cb908490612958565b90915550505b5050505050505b6001016113a5565b5060005b838110156117bb57368b8b838181106115ff576115ff612997565b60600291909101915060009050808061161b60208501856124cb565b6001600160a01b03166001600160a01b03168152602001908152602001600020600083602001602081019061165091906124cb565b6001600160a01b03166001600160a01b031681526020019081526020016000205490506000826040013561168383612213565b61168d91906129c6565b905060008112156116d4576040517ff075336700000000000000000000000000000000000000000000000000000000815260048101839052600060248201526044016107ae565b806000806116e560208701876124cb565b6001600160a01b03166001600160a01b03168152602001908152602001600020600085602001602081019061171a91906124cb565b6001600160a01b03166001600160a01b031681526020019081526020016000208190555082602001602081019061175191906124cb565b6001600160a01b031661176760208501856124cb565b6001600160a01b03167fcb92bc64cc5c68703b92c9fcf4b3a37a69be04873e614837f8aeacfa8589e8f585604001356040516117a591815260200190565b60405180910390a35050508060010190506115e4565b505050503868929eee149b4bd212685550505050505050565b806001600160a01b0316600003611817576040517ff6fa545000000000000000000000000000000000000000000000000000000000815260040160405180910390fd5b600a6001600160a01b0382161015611866576040517f7ccfd2ff0000000000000000000000000000000000000000000000000000000081526001600160a01b03821660048201526024016107ae565b6040517f70a082310000000000000000000000000000000000000000000000000000000081526001600160a01b038481166004830152600091908416906370a0823190602401602060405180830381865afa1580156118c9573d6000803e3d6000fd5b505050506040513d601f19601f820116820180604052508101906118ed919061296b565b6040517f70a082310000000000000000000000000000000000000000000000000000000081523060048201529091506000906001600160a01b038516906370a0823190602401602060405180830381865afa158015611950573d6000803e3d6000fd5b505050506040513d601f19601f82011682018060405250810190611974919061296b565b9050826001600160a01b03168210156119cb576040517ff0753367000000000000000000000000000000000000000000000000000000008152600481018390526001600160a01b03841660248201526044016107ae565b6119e56001600160a01b0385811690879030908716611af2565b6040517f70a0823100000000000000000000000000000000000000000000000000000000815230600482015260009082906001600160a01b038716906370a0823190602401602060405180830381865afa158015611a47573d6000803e3d6000fd5b505050506040513d601f19601f82011682018060405250810190611a6b919061296b565b611a759190612984565b6001600160a01b03808816600081815260208181526040808320948b16808452949091529020805484019055919250907ff252e7564622d27c64805f4295d4aed7999599ad484da4eaa1377fc14df9f1d5611acf84611b59565b6040516001600160a01b03909116815260200160405180910390a3505050505050565b60405181606052826040528360601b602c526f23b872dd000000000000000000000000600c52602060006064601c6000895af18060016000511416611b4a57803d873b151710611b4a57637939f4246000526004601cfd5b50600060605260405250505050565b6000740100000000000000000000000000000000000000008210611b7f57611b7f61222d565b5090565b60007f232a4ef2241135df893cd0d3f880df0ff65115b1f538078c78353f91a8307702611bb360208601866124cb565b611bc360408701602088016124cb565b6040805160208101949094526001600160a01b03928316848201529116606083810191909152908601356080838101919091529086013560a083015285013560c082015260e0016040516020818303038152906040528051906020012090506000611c2d8261223b565b90506000611c60826020527b19457468657265756d205369676e6564204d6573736167653a0a3332600052603c60042090565b90506000611c6f828787612353565b90503660011981013560f01c90033560601c6001600160a01b03821614611cc2576040517f6cbfd82c00000000000000000000000000000000000000000000000000000000815260040160405180910390fd5b50505050505050565b6001600160a01b03821660009081526003602052604081205490819003611cf157505050565b6000611cff610e1042612a05565b6001600160a01b038516600090815260046020908152604080832084845290915281205491925090611d32908590612958565b905082811115611d78576040517f5e7fe40c00000000000000000000000000000000000000000000000000000000815260048101849052602481018290526044016107ae565b6001600160a01b03909416600090815260046020908152604080832093835292905220929092555050565b60003860003884865af1611dbf5763b12d13eb6000526004601cfd5b5050565b81601452806034526fa9059cbb00000000000000000000000060005260206000604460106000875af18060016000511416611e1157803d853b151710611e11576390b8ec186000526004601cfd5b506000603452505050565b60408051808201909152600681527f4d6964726962000000000000000000000000000000000000000000000000000060208201526060611e5c60036123fa565b90509091565b34600003611e9c576040517ff6fa545000000000000000000000000000000000000000000000000000000000815260040160405180910390fd5b600a341015611ee2576040517f7ccfd2ff0000000000000000000000000000000000000000000000000000000081526001600160a01b03341660048201526024016107ae565b6001600160a01b03811660008181526020818152604080832073eeeeeeeeeeeeeeeeeeeeeeeeeeeeeeeeeeeeeeee80855292529091208054349081019091559091907ff252e7564622d27c64805f4295d4aed7999599ad484da4eaa1377fc14df9f1d590611f4f90611b59565b6040516001600160a01b03909116815260200160405180910390a350565b600060405190506020815281816020015280604001808360051b808684378201808515611fec575b835187018035602082018337600038823584305af4611fb7573d6000873e3d86fd5b5082810384523d815260209384019381013d6000823e60003d8201523d01601f0167ffffffffffffffe0169050818410611f95575b806040528485820360401b1794505050505092915050565b8060401c8167ffffffffffffffff16f35b60007ff6472b53c7bf87555bdd86e4ea01a600b45c6783d98b337d089a5cb0e2af8e8d888860405160200161204b929190612a78565b604051602081830303815290604052805190602001208787604051602001612074929190612aeb565b604080517fffffffffffffffffffffffffffffffffffffffffffffffffffffffffffffffe081840301815282825280516020918201209083019490945281019190915260608101919091526080810185905260a00160405160208183030381529060405280519060200120905060006120ec8261223b565b9050600061211f826020527b19457468657265756d205369676e6564204d6573736167653a0a3332600052603c60042090565b9050600061212e828787612353565b90503660011981013560f01c90033560601c6001600160a01b03821614612181576040517f6cbfd82c00000000000000000000000000000000000000000000000000000000815260040160405180910390fd5b5050505050505050505050565b6000805b8381101561220657826001600160a01b03168585838181106121b6576121b6612997565b6121cc92602060409092020190810191506124cb565b6001600160a01b0316036121fe578484828181106121ec576121ec612997565b9050604002016020013591505061220c565b600101612192565b50600090505b9392505050565b6000808212612220575090565b61222861222d565b919050565b6335278d126000526004601cfd5b7f00000000000000000000000000000000000000000000000000000000000000007f000000000000000000000000000000000000000000000000000000000000000030147f000000000000000000000000000000000000000000000000000000000000000046141661232e5750604080517f8b73c3c69bb8fe3d512ecc4cf759cc79239f7b179b0ffacaa9a75d522b39400f81527f000000000000000000000000000000000000000000000000000000000000000060208201527f00000000000000000000000000000000000000000000000000000000000000009181019190915246606082015230608082015260a090205b67190100000000000060005280601a5281603a52604260182090506000603a52919050565b6000604051826040811461236f57604181146123af57506123e4565b60208581013560ff81901c601b0190915285356040527f7fffffffffffffffffffffffffffffffffffffffffffffffffffffffffffffff166060526123c1565b604085013560001a6020526040856040375b5084600052602060016080600060015afa5191506000606052806040523d6123f2575b638baa579f6000526004601cfd5b509392505050565b6060604051604081016040526001815282603001602082015392915050565b6001600160a01b038116811461242e57600080fd5b50565b6000806040838503121561244457600080fd5b823561244f81612419565b9150602083013561245f81612419565b809150509250929050565b6000806040838503121561247d57600080fd5b823561248881612419565b9150602083013561ffff8116811461245f57600080fd5b600080604083850312156124b257600080fd5b82356124bd81612419565b946020939093013593505050565b6000602082840312156124dd57600080fd5b813561220c81612419565b6000602082840312156124fa57600080fd5b5035919050565b60008060006060848603121561251657600080fd5b833561252181612419565b9250602084013561253181612419565b9150604084013561254181612419565b809150509250925092565b60008083601f84011261255e57600080fd5b50813567ffffffffffffffff81111561257657600080fd5b60208301915083602082850101111561258e57600080fd5b9250929050565b600080600083850360c08112156125ab57600080fd5b60a08112156125b957600080fd5b5083925060a084013567ffffffffffffffff8111156125d757600080fd5b6125e38682870161254c565b9497909650939450505050565b6000815180845260005b81811015612616576020818501810151868301820152016125fa565b5060006020828601015260207fffffffffffffffffffffffffffffffffffffffffffffffffffffffffffffffe0601f83011685010191505092915050565b7fff000000000000000000000000000000000000000000000000000000000000008816815260e06020820152600061268f60e08301896125f0565b82810360408401526126a181896125f0565b606084018890526001600160a01b038716608085015260a0840186905283810360c08501528451808252602080870193509091019060005b818110156126f75783518352602093840193909201916001016126d9565b50909b9a5050505050505050505050565b6000806020838503121561271b57600080fd5b823567ffffffffffffffff81111561273257600080fd5b8301601f8101851361274357600080fd5b803567ffffffffffffffff81111561275a57600080fd5b8560208260051b840101111561276f57600080fd5b6020919091019590945092505050565b6000602082016020835280845180835260408501915060408160051b86010192506020860160005b828110156127f6577fffffffffffffffffffffffffffffffffffffffffffffffffffffffffffffffc08786030184526127e18583516125f0565b945060209384019391909101906001016127a7565b50929695505050505050565b60008083601f84011261281457600080fd5b50813567ffffffffffffffff81111561282c57600080fd5b6020830191508360208260061b850101111561258e57600080fd5b60008060008060008060006080888a03121561286257600080fd5b873567ffffffffffffffff81111561287957600080fd5b8801601f81018a1361288a57600080fd5b803567ffffffffffffffff8111156128a157600080fd5b8a60206060830284010111156128b657600080fd5b60209182019850965088013567ffffffffffffffff8111156128d757600080fd5b6128e38a828b01612802565b90965094505060408801359250606088013567ffffffffffffffff81111561290a57600080fd5b6129168a828b0161254c565b989b979a50959850939692959293505050565b7f4e487b7100000000000000000000000000000000000000000000000000000000600052601160045260246000fd5b8082018082111561125b5761125b612929565b60006020828403121561297d57600080fd5b5051919050565b8181038181111561125b5761125b612929565b7f4e487b7100000000000000000000000000000000000000000000000000000000600052603260045260246000fd5b80820182811260008312801582168215821617156129e6576129e6612929565b505092915050565b808202811582820484141761125b5761125b612929565b600082612a3b577f4e487b7100000000000000000000000000000000000000000000000000000000600052601260045260246000fd5b500490565b60007f80000000000000000000000000000000000000000000000000000000000000008203612a7157612a71612929565b5060000390565b6020808252810182905260008360408301825b85811015612ae1578235612a9e81612419565b6001600160a01b031682526020830135612ab781612419565b6001600160a01b031660208301526040838101359083015260609283019290910190600101612a8b565b5095945050505050565b6020808252810182905260008360408301825b85811015612ae1578235612b1181612419565b6001600160a01b031682526020838101359083015260409283019290910190600101612afe56fea2646970667358221220b968ab5ac020320d1550b93537bf7759e2d689dfc78e76daa92505480a48b07c64736f6c63430008220033","linkReferences":{}},"methodIdentifiers":{"MIN_ORDER_SIZE()":"d3f82d8e","NATIVE()":"a0cf0aea","WITHDRAW_EPOCH()":"62fe8ee1","deposit(address,uint160)":"03fde255","depositFor(address,address,uint160)":"4e3250cf","depositNative()":"db6b5246","depositNativeFor(address)":"91a775b7","eip712Domain()":"84b0196e","factory()":"c45a0155","maintenanceAccrued(address)":"62b629f9","maintenanceAddress()":"719d5f83","maintenanceBps()":"2e673446","multicall(bytes[])":"ac9650d8","operatorAccrued(address)":"7e122f53","operatorAddress()":"127effb2","operatorAdmin()":"a4e0c181","operatorBps()":"c4109253","owner()":"8da5cb5b","setOperatorAdmin(address)":"6de07157","setOperatorFee(address,uint16)":"26ac1b1c","setWithdrawEpochCap(address,uint256)":"2d2cfb66","settleBatch((address,address,int256)[],(address,uint256)[],uint256,bytes)":"e0a273bc","settleFees(address)":"a78842ee","tradeBalance(address,address)":"19d5f0c3","usedSettleNonces(uint256)":"4565fe4a","usedWithdrawNonces(address,uint256)":"892d16be","version()":"54fd4d50","withdraw((address,address,uint256,uint256,uint256),bytes)":"4e5c6e4e","withdrawEpochCap(address)":"426aabc2","withdrawnInEpoch(address,uint256)":"742960c1"},"id":31}