{
  "abi": [
    {
      "inputs": [],
      "name": "aspensVault",
      "outputs": [
        {
          "internalType": "address",
          "name": "",
          "type": "address"
        }
      ],
      "stateMutability": "view",
      "type": "function"
    },
    {
      "inputs": [],
      "name": "cancelOwnershipHandover",
      "outputs": [],
      "stateMutability": "payable",
      "type": "function"
    },
    {
      "inputs": [
        {
          "internalType": "address",
          "name": "pendingOwner",
          "type": "address"
        }
      ],
      "name": "completeOwnershipHandover",
      "outputs": [],
      "stateMutability": "payable",
      "type": "function"
    },
    {
      "inputs": [
        {
          "internalType": "address",
          "name": "_tradingInstanceSigner",
          "type": "address"
        },
        {
          "internalType": "uint16",
          "name": "_fees",
          "type": "uint16"
        }
      ],
      "name": "createInstance",
      "outputs": [
        {
          "internalType": "address",
          "name": "_newTradingInstance",
          "type": "address"
        }
      ],
      "stateMutability": "nonpayable",
      "type": "function"
    },
    {
      "inputs": [],
      "name": "currentVersionBytecode",
      "outputs": [
        {
          "internalType": "bytes",
          "name": "_currentByteCode",
          "type": "bytes"
        }
      ],
      "stateMutability": "view",
      "type": "function"
    },
    {
      "inputs": [
        {
          "internalType": "address",
          "name": "tradingInstance",
          "type": "address"
        }
      ],
      "name": "deployedTradingInstances",
      "outputs": [
        {
          "internalType": "address",
          "name": "signer",
          "type": "address"
        }
      ],
      "stateMutability": "view",
      "type": "function"
    },
    {
      "inputs": [],
      "name": "getBytecodeSize",
      "outputs": [
        {
          "internalType": "uint256",
          "name": "_byteCodeSize",
          "type": "uint256"
        }
      ],
      "stateMutability": "view",
      "type": "function"
    },
    {
      "inputs": [],
      "name": "getCurrentVersionBytecode",
      "outputs": [
        {
          "internalType": "bytes",
          "name": "_currentByteCode",
          "type": "bytes"
        }
      ],
      "stateMutability": "view",
      "type": "function"
    },
    {
      "inputs": [],
      "name": "getCurrentVersionHash",
      "outputs": [
        {
          "internalType": "bytes32",
          "name": "_currentHash",
          "type": "bytes32"
        }
      ],
      "stateMutability": "view",
      "type": "function"
    },
    {
      "inputs": [
        {
          "internalType": "address",
          "name": "_instanceAddress",
          "type": "address"
        }
      ],
      "name": "getTradingInstanceSigner",
      "outputs": [
        {
          "internalType": "address",
          "name": "_signer",
          "type": "address"
        }
      ],
      "stateMutability": "view",
      "type": "function"
    },
    {
      "inputs": [
        {
          "internalType": "address",
          "name": "_owner",
          "type": "address"
        },
        {
          "internalType": "address",
          "name": "_aspensVault",
          "type": "address"
        },
        {
          "internalType": "address",
          "name": "_permit2",
          "type": "address"
        }
      ],
      "name": "initialize",
      "outputs": [],
      "stateMutability": "nonpayable",
      "type": "function"
    },
    {
      "inputs": [],
      "name": "owner",
      "outputs": [
        {
          "internalType": "address",
          "name": "result",
          "type": "address"
        }
      ],
      "stateMutability": "view",
      "type": "function"
    },
    {
      "inputs": [
        {
          "internalType": "address",
          "name": "pendingOwner",
          "type": "address"
        }
      ],
      "name": "ownershipHandoverExpiresAt",
      "outputs": [
        {
          "internalType": "uint256",
          "name": "result",
          "type": "uint256"
        }
      ],
      "stateMutability": "view",
      "type": "function"
    },
    {
      "inputs": [],
      "name": "renounceOwnership",
      "outputs": [],
      "stateMutability": "payable",
      "type": "function"
    },
    {
      "inputs": [],
      "name": "requestOwnershipHandover",
      "outputs": [],
      "stateMutability": "payable",
      "type": "function"
    },
    {
      "inputs": [],
      "name": "rescueEth",
      "outputs": [],
      "stateMutability": "nonpayable",
      "type": "function"
    },
    {
      "inputs": [
        {
          "internalType": "address",
          "name": "newOwner",
          "type": "address"
        }
      ],
      "name": "transferOwnership",
      "outputs": [],
      "stateMutability": "payable",
      "type": "function"
    },
    {
      "inputs": [
        {
          "internalType": "address",
          "name": "_newImpl",
          "type": "address"
        }
      ],
      "name": "updateImpl",
      "outputs": [],
      "stateMutability": "nonpayable",
      "type": "function"
    },
    {
      "anonymous": false,
      "inputs": [
        {
          "indexed": true,
          "internalType": "address",
          "name": "oldImpl",
          "type": "address"
        },
        {
          "indexed": true,
          "internalType": "address",
          "name": "newImpl",
          "type": "address"
        }
      ],
      "name": "ImplUpdated",
      "type": "event"
    },
    {
      "anonymous": false,
      "inputs": [
        {
          "indexed": true,
          "internalType": "address",
          "name": "pendingOwner",
          "type": "address"
        }
      ],
      "name": "OwnershipHandoverCanceled",
      "type": "event"
    },
    {
      "anonymous": false,
      "inputs": [
        {
          "indexed": true,
          "internalType": "address",
          "name": "pendingOwner",
          "type": "address"
        }
      ],
      "name": "OwnershipHandoverRequested",
      "type": "event"
    },
    {
      "anonymous": false,
      "inputs": [
        {
          "indexed": true,
          "internalType": "address",
          "name": "oldOwner",
          "type": "address"
        },
        {
          "indexed": true,
          "internalType": "address",
          "name": "newOwner",
          "type": "address"
        }
      ],
      "name": "OwnershipTransferred",
      "type": "event"
    },
    {
      "anonymous": false,
      "inputs": [
        {
          "indexed": true,
          "internalType": "address",
          "name": "tradingInstanceAddress",
          "type": "address"
        },
        {
          "indexed": true,
          "internalType": "address",
          "name": "signer",
          "type": "address"
        }
      ],
      "name": "TradingInstanceCreated",
      "type": "event"
    },
    {
      "inputs": [],
      "name": "AlreadyInitialized",
      "type": "error"
    },
    {
      "inputs": [],
      "name": "INVALID_BYTE_SIZE",
      "type": "error"
    },
    {
      "inputs": [],
      "name": "NewOwnerIsZeroAddress",
      "type": "error"
    },
    {
      "inputs": [],
      "name": "NoHandoverRequest",
      "type": "error"
    },
    {
      "inputs": [],
      "name": "Unauthorized",
      "type": "error"
    },
    {
      "inputs": [],
      "name": "ZERO_ADDRESS_ASPENS_VAULT",
      "type": "error"
    },
    {
      "inputs": [],
      "name": "ZERO_ADDRESS_OWNER",
      "type": "error"
    },
    {
      "inputs": [],
      "name": "ZERO_ADDRESS_PERMIT2",
      "type": "error"
    }
  ],
  "assembly": null,
  "bytecode": "0x6080604052348015600e575f5ffd5b506113898061001c5f395ff3fe608060405260043610610108575f3560e01c806398b0bec311610094578063ce31a06b11610063578063ce31a06b14610302578063f04e283e14610318578063f2fde38b14610334578063fcf1e00914610350578063fee81cf41461037857610108565b806398b0bec31461025c578063ae32f99114610286578063c0c53b8b146102b0578063c72802dc146102d857610108565b806354d1f13d116100db57806354d1f13d146101a657806359397677146101b0578063715018a6146101ec5780638da5cb5b146101f65780638e8571c51461022057610108565b80630e6b0a151461010c57806316a084491461013657806325692962146101605780632791c74e1461016a575b5f5ffd5b348015610117575f5ffd5b506101206103b4565b60405161012d9190610fdc565b60405180910390f35b348015610141575f5ffd5b5061014a61040d565b604051610157919061103b565b60405180910390f35b610168610432565b005b348015610175575f5ffd5b50610190600480360381019061018b9190611082565b610483565b60405161019d919061103b565b60405180910390f35b6101ae6104b3565b005b3480156101bb575f5ffd5b506101d660048036038101906101d19190611082565b6104ec565b6040516101e3919061103b565b60405180910390f35b6101f4610551565b005b348015610201575f5ffd5b5061020a610564565b604051610217919061103b565b60405180910390f35b34801561022b575f5ffd5b50610246600480360381019061024191906110e4565b61058c565b604051610253919061103b565b60405180910390f35b348015610267575f5ffd5b5061027061076e565b60405161027d919061113a565b60405180910390f35b348015610291575f5ffd5b5061029a6107cd565b6040516102a79190610fdc565b60405180910390f35b3480156102bb575f5ffd5b506102d660048036038101906102d19190611153565b610826565b005b3480156102e3575f5ffd5b506102ec6109e3565b6040516102f991906111bb565b60405180910390f35b34801561030d575f5ffd5b50610316610a21565b005b610332600480360381019061032d9190611082565b610ad4565b005b61034e60048036038101906103499190611082565b610b12565b005b34801561035b575f5ffd5b5061037660048036038101906103719190611082565b610b3b565b005b348015610383575f5ffd5b5061039e60048036038101906103999190611082565b610c4f565b6040516103ab91906111bb565b60405180910390f35b60605f5f9054906101000a900473ffffffffffffffffffffffffffffffffffffffff1673ffffffffffffffffffffffffffffffffffffffff16803b806020016040519081016040528181525f908060200190933c905090565b60015f9054906101000a900473ffffffffffffffffffffffffffffffffffffffff1681565b5f61043b610c68565b67ffffffffffffffff164201905063389a75e1600c52335f52806020600c2055337fdbf36a107da19e49527a7176a1babf963b4b0ff8cde35ee35d6cd8f1f9ac7e1d5f5fa250565b6003602052805f5260405f205f915054906101000a900473ffffffffffffffffffffffffffffffffffffffff1681565b63389a75e1600c52335f525f6020600c2055337ffa7b8eab7da67f412cc9575ed43464468f9bfbae89d1675917346ca6d8fe3c925f5fa2565b5f60035f8373ffffffffffffffffffffffffffffffffffffffff1673ffffffffffffffffffffffffffffffffffffffff1681526020019081526020015f205f9054906101000a900473ffffffffffffffffffffffffffffffffffffffff169050919050565b610559610c72565b6105625f610ca9565b565b5f7fffffffffffffffffffffffffffffffffffffffffffffffffffffffff7487392754905090565b5f5f5f5f9054906101000a900473ffffffffffffffffffffffffffffffffffffffff1673ffffffffffffffffffffffffffffffffffffffff163b036105fd576040517ff68d79c300000000000000000000000000000000000000000000000000000000815260040160405180910390fd5b5f833060025f9054906101000a900473ffffffffffffffffffffffffffffffffffffffff1685604051602001610636949392919061124d565b6040516020818303038152906040529050610690815f5f9054906101000a900473ffffffffffffffffffffffffffffffffffffffff1673ffffffffffffffffffffffffffffffffffffffff16610d6f90919063ffffffff16565b91508360035f8473ffffffffffffffffffffffffffffffffffffffff1673ffffffffffffffffffffffffffffffffffffffff1681526020019081526020015f205f6101000a81548173ffffffffffffffffffffffffffffffffffffffff021916908373ffffffffffffffffffffffffffffffffffffffff1602179055508373ffffffffffffffffffffffffffffffffffffffff168273ffffffffffffffffffffffffffffffffffffffff167fda6fc6c449f6c6459f464189da9adaede6fd2243bed808c290ce0ef8c286d95660405160405180910390a35092915050565b5f5f5f9054906101000a900473ffffffffffffffffffffffffffffffffffffffff1673ffffffffffffffffffffffffffffffffffffffff16803b806020016040519081016040528181525f908060200190933c80519060200120905090565b60605f5f9054906101000a900473ffffffffffffffffffffffffffffffffffffffff1673ffffffffffffffffffffffffffffffffffffffff16803b806020016040519081016040528181525f908060200190933c905090565b5f73ffffffffffffffffffffffffffffffffffffffff168373ffffffffffffffffffffffffffffffffffffffff160361088b576040517fa7e3283100000000000000000000000000000000000000000000000000000000815260040160405180910390fd5b5f73ffffffffffffffffffffffffffffffffffffffff168173ffffffffffffffffffffffffffffffffffffffff16036108f0576040517f2e75ee3c00000000000000000000000000000000000000000000000000000000815260040160405180910390fd5b5f73ffffffffffffffffffffffffffffffffffffffff168273ffffffffffffffffffffffffffffffffffffffff1603610955576040517f8b1bdddc00000000000000000000000000000000000000000000000000000000815260040160405180910390fd5b61095e83610e92565b8060025f6101000a81548173ffffffffffffffffffffffffffffffffffffffff021916908373ffffffffffffffffffffffffffffffffffffffff1602179055508160015f6101000a81548173ffffffffffffffffffffffffffffffffffffffff021916908373ffffffffffffffffffffffffffffffffffffffff160217905550505050565b5f5f5f9054906101000a900473ffffffffffffffffffffffffffffffffffffffff1673ffffffffffffffffffffffffffffffffffffffff163b905090565b610a29610c72565b5f3373ffffffffffffffffffffffffffffffffffffffff1647604051610a4e906112c7565b5f6040518083038185875af1925050503d805f8114610a88576040519150601f19603f3d011682016040523d82523d5f602084013e610a8d565b606091505b5050905080610ad1576040517f08c379a0000000000000000000000000000000000000000000000000000000008152600401610ac890611335565b60405180910390fd5b50565b610adc610c72565b63389a75e1600c52805f526020600c208054421115610b0257636f5e88185f526004601cfd5b5f815550610b0f81610ca9565b50565b610b1a610c72565b8060601b610b2f57637448fbae5f526004601cfd5b610b3881610ca9565b50565b610b43610c72565b5f8173ffffffffffffffffffffffffffffffffffffffff163b03610b93576040517ff68d79c300000000000000000000000000000000000000000000000000000000815260040160405180910390fd5b8073ffffffffffffffffffffffffffffffffffffffff165f5f9054906101000a900473ffffffffffffffffffffffffffffffffffffffff1673ffffffffffffffffffffffffffffffffffffffff167fbc177199a5e2a6bef75e52ba7ca48f30d61d9b98ae9f25df98855a078dd77d3460405160405180910390a3805f5f6101000a81548173ffffffffffffffffffffffffffffffffffffffff021916908373ffffffffffffffffffffffffffffffffffffffff16021790555050565b5f63389a75e1600c52815f526020600c20549050919050565b5f6202a300905090565b7fffffffffffffffffffffffffffffffffffffffffffffffffffffffff74873927543314610ca7576382b429005f526004601cfd5b565b610cb1610f68565b15610d16577fffffffffffffffffffffffffffffffffffffffffffffffffffffffff748739278160601b60601c91508181547f8be0079c531659141344cd1fd0a4f28419497f9722a3daafe3b4186f6b6457e05f5fa3811560ff1b8217815550610d6c565b7fffffffffffffffffffffffffffffffffffffffffffffffffffffffff748739278160601b60601c91508181547f8be0079c531659141344cd1fd0a4f28419497f9722a3daafe3b4186f6b6457e05f5fa3818155505b50565b5f6002825101603f8101600a81036040518360581b8260e81b177f6100003d81600a3d39f3363d3d373d3d3d3d610000806035363936013d7300001781528660601b601e8201527f5af43d3d93803e603357fd5bf30000000000000000000000000000000000000060328201528551603f8201602088015b600115610e115760208310610e115780518252602082019150602081019050602083039250610de7565b7fffffffffffffffffffffffffffffffffffffffffffffffffffffffffffffffff8360200360031b1b80825116835283830192508760f01b835286855ff0985088610e7e577febfef188000000000000000000000000000000000000000000000000000000005f5260205ffd5b868501604052505050505050505092915050565b610e9a610f68565b15610f12577fffffffffffffffffffffffffffffffffffffffffffffffffffffffff74873927805415610ed457630dc149f05f526004601cfd5b8160601b60601c9150811560ff1b82178155815f7f8be0079c531659141344cd1fd0a4f28419497f9722a3daafe3b4186f6b6457e05f5fa350610f65565b8060601b60601c9050807fffffffffffffffffffffffffffffffffffffffffffffffffffffffff7487392755805f7f8be0079c531659141344cd1fd0a4f28419497f9722a3daafe3b4186f6b6457e05f5fa35b50565b5f90565b5f81519050919050565b5f82825260208201905092915050565b8281835e5f83830152505050565b5f601f19601f8301169050919050565b5f610fae82610f6c565b610fb88185610f76565b9350610fc8818560208601610f86565b610fd181610f94565b840191505092915050565b5f6020820190508181035f830152610ff48184610fa4565b905092915050565b5f73ffffffffffffffffffffffffffffffffffffffff82169050919050565b5f61102582610ffc565b9050919050565b6110358161101b565b82525050565b5f60208201905061104e5f83018461102c565b92915050565b5f5ffd5b6110618161101b565b811461106b575f5ffd5b50565b5f8135905061107c81611058565b92915050565b5f6020828403121561109757611096611054565b5b5f6110a48482850161106e565b91505092915050565b5f61ffff82169050919050565b6110c3816110ad565b81146110cd575f5ffd5b50565b5f813590506110de816110ba565b92915050565b5f5f604083850312156110fa576110f9611054565b5b5f6111078582860161106e565b9250506020611118858286016110d0565b9150509250929050565b5f819050919050565b61113481611122565b82525050565b5f60208201905061114d5f83018461112b565b92915050565b5f5f5f6060848603121561116a57611169611054565b5b5f6111778682870161106e565b93505060206111888682870161106e565b92505060406111998682870161106e565b9150509250925092565b5f819050919050565b6111b5816111a3565b82525050565b5f6020820190506111ce5f8301846111ac565b92915050565b5f8160601b9050919050565b5f6111ea826111d4565b9050919050565b5f6111fb826111e0565b9050919050565b61121361120e8261101b565b6111f1565b82525050565b5f8160f01b9050919050565b5f61122f82611219565b9050919050565b611247611242826110ad565b611225565b82525050565b5f6112588287611202565b6014820191506112688286611202565b6014820191506112788285611202565b6014820191506112888284611236565b60028201915081905095945050505050565b5f81905092915050565b50565b5f6112b25f8361129a565b91506112bd826112a4565b5f82019050919050565b5f6112d1826112a7565b9150819050919050565b5f82825260208201905092915050565b7f455448207472616e73666572206661696c6564000000000000000000000000005f82015250565b5f61131f6013836112db565b915061132a826112eb565b602082019050919050565b5f6020820190508181035f83015261134c81611313565b905091905056fea2646970667358221220ceb7048c88042bc0fcfe82f7e96b0b069c7278f702d0f7be617fa81d3bdd159164736f6c634300081f0033",
  "contractName": "MidribFactory",
  "devdoc": null,
  "storageLayout": null,
  "userdoc": null
}